:020000040800F2
:10000000D02700209101000887110008390A000854
:1000100085110008710500080118000800000000A3
:10002000000000000000000000000000B9120008FD
:100030007106000800000000ED110008E914000836
:1000400011180008AB010008AB010008AB01000863
:10005000AB010008AB010008A5060008E90600088E
:100060002107000859070008AB010008AB01000890
:10007000AB010008AB010008AB010008AB010008B0
:10008000AB010008AB010008AB010008AB010008A0
:10009000AB010008AB010008AB010008AB01000890
:1000A000AB010008AB010008AB010008AB01000880
:1000B0003D150008C9150008AB010008AB01000898
:1000C000AB010008AB010008AB010008AB01000860
:1000D000AB01000831160008AB010008AB010008B5
:1000E000AB010008AB010008AB01000800F002F80A
:1000F00000F03FF80AA090E8000C82448344AAF183
:100100000107DA4501D100F034F8AFF2090EBAE880
:100110000F0013F0010F18BFFB1A43F0010318473B
:100120006442000084420000103A24BF78C878C1BD
:10013000FAD8520724BF30C830C144BF04680C60ED
:10014000704700000023002400250026103A28BF35
:1001500078C1FBD8520728BF30C148BF0B60704739
:10016000642900F07F80002070471FB51FBD10B5C7
:1001700010BD00F0CBF91146FFF7F7FF01F0B0FB1F
:1001800000F0E9F903B4FFF7F2FF03BC01F065FBEF
:100190000948804709480047FEE7FEE7FEE7FEE71B
:1001A000FEE7FEE7FEE7FEE7FEE7FEE70448054957
:1001B000054A064B70470000ED140008ED000008EA
:1001C000D0210020D0270020D0230020D0230020E1
:1001D000704700000FB4044910B503AA029800F05C
:1001E0007FF910BC5DF814FB300000200FB41CB583
:1001F000074B06AA7B4469460090059800F057F922
:100200000020694600F066F91CBC5DF814FB000094
:10021000DD02000070B5044685690068C10601D59D
:10022000302600E02026C00707D070BDD4E90121A8
:1002300030469047206A401C20626D1EF6D570BD86
:1002400070B5044685690078C00707D170BDD4E950
:10025000012120209047206A401C20626D1EF6D5A7
:1002600070BD00002DE9F041064600241068752994
:10027000314616A510D0AFF30080002802DA4042C4
:1002800013A507E031688A0701D512A502E04907E6
:1002900004D511A5012401E0AFF3008000210A225A
:1002A00006F1240709E0B0FBF2FCB0FBF2F302FB1D
:1002B0001C00303078541846491C0028F3D12346DE
:1002C0002A463046BDE8F04100F093B80000000037
:1002D0002D0000002B000000200000002DE9F04759
:1002E0004FF0000A89460446C0F820A02046E16885
:1002F0008847002876D0252806D0D4E901219047E8
:10030000206A401C2062F1E7E1682046002588470A
:10031000C4F81CA006460027C4F818A02A2E09D04D
:10032000304601F093FA38B304EB8708303EC8F842
:10033000186019E059F8041B204604EB870291610C
:10034000E1688847012F064618D1E069002820DAC5
:1003500025F020051DE0D8F8180000EB800006EB22
:1003600040003038C8F818002046E1688847064643
:1003700001F06CFA0028EED1012F0AD02E2E08D100
:100380002046E16888477F1C0646022F45F020057D
:10039000C4DBA069002803DA404245F00105A061F2
:1003A000E80701D025F01005B6B1A6F141001928E3
:1003B00002D8203645F400654A463146204625607D
:1003C0004D46FFF7CDFE58B1012806D0ED1D25F0B2
:1003D000070000F1080989E704E005F1040985E751
:1003E00030468AE7206ABDE8F0877047704770475B
:1003F00070472DE9F0470D4699469246044600F1B4
:1004000024080168880604D5E06921F01001216004
:1004100000E00120A84201DD471B00E00027A169A0
:100420007A1902EB0900081AA0612078C00602D4EC
:100430002046FFF7EFFE002608E0D4E901211AF874
:1004400006009047206A401C761C20624E45F4DB73
:100450002078C0060AD52046FFF7DCFE06E0D4E986
:10046000012130209047206A401C2062381EA7F1ED
:100470000107F4DC07E0D4E9012118F805009047F2
:10048000206A401C2062281EA5F10105F3DC2046ED
:10049000FFF7D6FE2078000602D50220BDE8F087DF
:1004A0000120FBE701694A1C02610878704700B52A
:1004B0008FB0CDE901310021059105497944CDE99D
:1004C000031011466846FFF709FF0FB000BD00009A
:1004D000E5FFFFFF0A6802F8010B0A6070470000A1
:1004E000074B70B50D467B44FFF7E1FF04462846F5
:1004F00000F008F810B14FF0FF3070BD204670BD1D
:10050000DF130000007B00F080007047754600F0AC
:100510002BF8AE4605006946534620F00700854695
:1005200018B020B5FFF742FEBDE820404FF00006AE
:100530004FF000074FF000084FF0000B21F00701CB
:10054000AC46ACE8C009ACE8C009ACE8C009ACE80E
:10055000C0098D46704710B50446AFF300802046B1
:10056000BDE81040FFF70EBE004870477021002024
:10057000FEE700002DE9F0438146884615461E46F9
:1005800000240B4F04EB041117F81100A84209D105
:1005900007EB41014878B04204D1891C42464846E5
:1005A00000F02AF8641CA4B2382CEBD3BDE8F08329
:1005B000C83800082DE9F0438146884615461E4696
:1005C00000240C4F04EB840000EB441017F81010CB
:1005D000A94209D107EB40014878B04204D1891CF7
:1005E0004246484600F008F8641CA4B2092CE9D33E
:1005F000BDE8F0839E40000810B5002304E011F828
:10060000014B00F8014B5B1C9342F8D310BD000076
:10061000C10002D50249086070470249486070472E
:100620000404024000000240002904D0016841F0A7
:1006300001010160704701684FF6FE7211400160D0
:100640007047406880B2704702460020D10002D552
:100650000449096801E004490968114200D00120F9
:1006600070470000000402400000024041607047F3
:10067000704700002DE9FF4114461D46084B1A88BB
:10068000121A92B25B885B1A9BB200261027CDE942
:100690000057CDE9024600F0BFFEBDE8FF81000033
:1006A0006021002010B50A2001F0F4F801210B4868
:1006B00000F08FF9012809D10949D1F8B40150B1EE
:1006C0000020C1F8B401074900200870BDE81040BF
:1006D000012000F0D7B80120F3E700000008014036
:1006E000000022422000002010B50A2001F0D2F8BC
:1006F0000221094800F06DF930B90849D1F8B40178
:1007000038B10020C1F8B401BDE81040022000F06B
:10071000B9B80120F6E700000008014000002242BD
:1007200010B50A2001F0B6F80421094800F051F98B
:1007300030B90849D1F8B40138B10020C1F8B4018A
:10074000BDE81040042000F09DB80120F6E700004D
:10075000000801400000224210B50A2001F09AF87A
:100760000821094800F035F930B90849D1F8B40139
:1007700038B10020C1F8B401BDE81040082000F0F5
:1007800081B80120F6E70000000801400000224285
:1007900008B50121042000F02BFD0E20ADF800006B
:1007A00048208DF803006946014800F0BFF808BDF5
:1007B00000080140FEB500F075F9FFF7E9FF0121DF
:1007C000084600F015FD0121002000F09BF80225ED
:1007D000019500278DF808700C208DF80900012480
:1007E0008DF80A4001A800F053F80221002000F023
:1007F00089F80420019001A800F04AF803210020A4
:1008000000F080F80826019601A800F041F80021C8
:10081000084600F077F801948DF8096001A800F00F
:1008200037F806208DF800008DF8015003208DF870
:1008300002008DF80340684600F0A6FC07208DF802
:1008400000008DF801508DF802508DF80340684685
:1008500000F09AFC8DF800608DF801508DF8024090
:100860008DF80340684600F08FFC09208DF80000E9
:100870008DF801508DF802708DF80340684600F045
:1008800083FCFEBD0149086070470000140401406C
:1008900030B51B4A83790168002B2AD013688B433B
:1008A0001360111D0B680468A3430B6001791144A8
:1008B0000B68046823430B60114C083421680368FB
:1008C00099432160231D19680568A943196041797E
:1008D000102905D011440A68006802430A6030BD3F
:1008E000216802681143216019680068014319609A
:1008F00030BD0079104402688A43026030BD0000B8
:100900000004014010B58A07120F0F23934021F015
:100910000304054921448C689C438C608B6890409B
:1009200003438B6010BD0000000001402DE9F04141
:100930000022CC7804F00F03E40601D58C78234321
:100940000C784FF00F0714F0FF0F4FF0010C1CD084
:1009500005680CFA02F40E882640A64211D19600D2
:1009600007FA06F825EA080503FA06F848EA050535
:10097000CE78282E02D0482E02D002E0446100E05A
:100980000461521C082AE4D305600A88FF2A1ED994
:100990004568002202F108060CFA06F40E8826408B
:1009A000A64210D1960007FA06F825EA080503FAD0
:1009B00006F848EA0505CE78282E00D14461CE78A5
:1009C000482E00D10461521C082AE3D34560BDE8DB
:1009D000F0810246002092680A4200D00120704750
:1009E000416170470161704730B4054608461446BE
:1009F00019462A786B78812A0FD3402B0DD3FF2B11
:100A00000BD0FF2A09D00C2910D0102910D018299A
:100A10000CD1214630BCFFF7CDBD0021002203E000
:100A200000F8012B491CC9B2A142F9D330BC704770
:100A3000214630BCFFF79EBDFEE700002DE9F047E0
:100A400005460024DFF858804FF400494FF4005762
:100A50004FF4804A280604D549464046FFF7C2FFB6
:100A600003E049464046FFF7BBFF39464046FFF7E3
:100A7000B7FF6806060E51464046FFF7AAFF40EA58
:100A8000060539464046FFF7ADFF641CE4B2082C6A
:100A9000E0D339464046FFF7A5FF2846BDE8F0877A
:100AA000000C014008B50121042000F0A1FB012049
:100AB000ADF800008DF8020028208DF8030069468B
:100AC0000148FFF733FF08BD000801402DE9F04160
:100AD000074600240C4E002108467388328800F037
:100AE00007FA3588708845430021084600F0D4F99C
:100AF00000F008FB03E0384600F0B8FA641CAC4292
:100B0000F9D3BDE8F0810000602100202DE9F0411B
:100B1000002680212C222A232A4D2B4C4FF02B0C0F
:100B200000281AD0012825D0012702282FD0032819
:100B30003AD0A6712180618022816381A4F80CC023
:100B4000C821362000F0E4FA2E7063882288BDE8C0
:100B5000F0410021084600F0CBB9A67121806180E8
:100B600022816381A4F80CC0C821362000F0D0FA9D
:100B70002E70EAE7A6712180618022816381A4F84A
:100B80000CC04821362000F0C3FA2E70DDE7A771B3
:100B90002180618022816381A4F80CC0A8213620C5
:100BA00000F0B6FA2F70D0E7A77121806180228112
:100BB0006381A4F80CC06821362000F0A9FA2F70D8
:100BC000C3E70000480000206021002010B5144653
:100BD00000F062F90448008900F07CFA2046BDE884
:100BE000104000F043BA000060210020F8B5012158
:100BF0000C2000F0FDFA4BF20200ADF800000324D7
:100C00008DF8024010268DF80360114F6946384672
:100C1000FFF78CFE3501ADF800508DF802408DF8DD
:100C200003600C4E69463046FFF780FEAA01ADF81E
:100C300000208DF8024048208DF8030069463846B0
:100C4000FFF774FE29463046FFF7CCFEF8BD0000E2
:100C5000000C01400008014010B5FFF7C7FF00F08D
:100C6000FBF9112000F036FA782000F013FEB120D5
:100C700000F030FA012000F015FA2C2000F012FAF2
:100C80002D2000F00FFAB22000F024FA012000F02D
:100C900009FA2C2000F006FA2D2000F003FAB32008
:100CA00000F018FA012000F0FDF92C2000F0FAF90C
:100CB0002D2000F0F7F9012000F0F4F92C2000F0CD
:100CC000F1F92D2000F0EEF9B42000F003FA07202E
:100CD00000F0E8F9C02000F0FDF9A22000F0E2F9F0
:100CE000022000F0DFF9842000F0DCF9C12000F0E0
:100CF000F1F9C52000F0D6F9C22000F0EBF90A2086
:100D000000F0D0F9002000F0CDF9C32000F0E2F9A6
:100D10008A2000F0C7F92A2000F0C4F9C42000F0AE
:100D2000D9F98A2000F0BEF9EE2000F0BBF9C52009
:100D300000F0D0F90E2000F0B5F9362000F0CAF925
:100D4000C82000F0AFF9E02000F0C4F90F2000F057
:100D5000A9F91A2000F0A6F90F2000F0A3F9182035
:100D600000F0A0F92F2000F09DF9282000F09AF95A
:100D7000202000F097F9222000F094F91F2000F0C5
:100D800091F91B2000F08EF9232000F08BF9372019
:100D900000F088F9002000F085F9072000F082F9C2
:100DA000022000F07FF9102000F07CF9E12000F033
:100DB00091F90F2000F076F91B2000F073F90F2055
:100DC00000F070F9172000F06DF9332000F06AF997
:100DD0002C2000F067F9292000F064F92E2000F0A3
:100DE00061F9302000F05EF9302000F05BF9392025
:100DF00000F058F93F2000F055F9002000F052F9BA
:100E0000072000F04FF9032000F04CF9102000F00B
:100E100049F92A2000F05EF9002000F043F9002093
:100E200000F040F9002000F03DF97F2000F03AF991
:100E30002B2000F04FF9002000F034F9002000F0E2
:100E400031F9002000F02EF99F2000F02BF9F0205E
:100E500000F040F9012000F025F9F62000F03AF901
:100E6000002000F01FF93A2000F034F9052000F0CE
:100E700019F9292000F02EF90020FFF747FE4FF462
:100E800080710448FFF7AEFDBDE810404FF6FF70DB
:100E9000FFF71CBE0008014070B506460D4612481B
:100EA000124C0178608900290ED000F013F9F61C6D
:100EB000B0B200F0DBF8A08900F00CF9AD1CA8B2CC
:100EC000BDE8704000F0D2B800F004F9B61CB0B232
:100ED00000F0CCF8A08900F0FDF8ED1CA8B2BDE848
:100EE000704000F0C3B800004800002060210020DE
:100EF0002DE9F04104460D46A018401E86B2E818C0
:100F0000401E87B21B48DFF870800178B8F80A00ED
:100F1000002917D000F0DEF8E41CA0B200F0A6F81B
:100F2000F61CB0B200F0A2F8B8F80C0000F0D2F84D
:100F3000AD1CA8B200F09AF8BF1CB8B2BDE8F041F1
:100F400000F094B800F0C6F8A41CA0B200F08EF82F
:100F5000B61CB0B200F08AF8B8F80C0000F0BAF88D
:100F6000ED1CA8B200F082F8FF1CB8B2BDE8F04159
:100F700000F07CB848000020602100202DE9F84FE7
:100F800082460C461F46A346780701D0012000E0A8
:100F9000002000EBD70079084843C0B20090203A07
:100FA00002F0FF09002648E00C2F13D0102F18D0B4
:100FB000182F45D1234909EBC90001EB8000855D5D
:100FC0004FF00008280611D5214650460A9AFFF72F
:100FD000FDFD13E01C4909EB490001EB8000855D34
:100FE000EEE71A4800EB0910855DE9E70B9828B990
:100FF0001748214682885046FFF7E8FD6806050E2F
:10100000641CA4B213484088A04219D9A4EB0B0079
:10101000B84209D15C460AF1010A1FFA8AFA0D4862
:10102000008850450CD906E008F1010808F0FF08D7
:10103000B8F1080FC6D3761CF6B200988642B3D337
:10104000BDE8F88F6C2B0008082100087C250008FB
:10105000480000206021002010B5012000F03AF87F
:10106000BDE81040642000F015BC000070B50446D7
:101070000B4E4FF4805529463046FFF7B1FC022154
:101080003046FFF7AFFC200AFFF7D8FCE0B2FFF7CD
:10109000D5FC29463046BDE87040FFF7A3BC0000F0
:1010A000000C014070B50646094D4FF480542146AE
:1010B0002846FFF795FC02212846FFF793FC3046AF
:1010C000FFF7BCFC21462846BDE87040FFF78ABC0C
:1010D000000C014070B50446094E4FF48055294676
:1010E0003046FFF77DFC02213046FFF779FCE0B285
:1010F000FFF7A4FC29463046BDE87040FFF772BCFC
:10110000000C014001480089FFF7E4BF6021002086
:1011100010B50C46FFF7DEFFE0B2BDE81040FFF768
:10112000C1BF000038B50121102000F061F84FF474
:101130000054ADF8004010208DF8030003208DF816
:101140000200054D69462846FFF7F0FB2146284678
:10115000FFF748FC38BD00000010014010B5044600
:1011600000212046FFF760FA054920460988FFF76D
:101170007DFA2046BDE810400121FFF755BA000076
:1011800026000020FEE7704770B50F23C2780126C5
:101190000178002A1ED0144A126802F4E062C2F5F7
:1011A000E062120AC2F10404D3404578A540827877
:1011B0001A402A43120101F1E02181F8002400784D
:1011C00000F01F018E404009800000F1E020C0F8CF
:1011D000006170BD01F01F0086404809800000F1E9
:1011E000E020C0F8806170BD0CED00E070470000A9
:1011F000054A002903D091690143916170479169C3
:1012000081439161704700000010024010B5264AEA
:10121000516801F00C01254B002927D0042927D063
:10122000082927D00360516801F0F0010909204B1B
:101230005C5C0168E1404160546804F4E064240AA5
:101240001C5D21FA04F48460546804F46054E40AD8
:101250001B5DD940C160526802F44042920B144BAE
:101260001B1F9A5CB1FBF2F1016110BD0360DAE76C
:101270000360D8E7516801F47011536803F48033B8
:10128000022404EB914133B153689B0307D5094B0A
:1012900059430160C7E7074B59430160C3E7034B5C
:1012A00059430160BFE700000010024000127A00BD
:1012B0003800002000093D00704700F001B8000030
:1012C0000CB50022019200922748016841F4803158
:1012D00001604FF4A063016801F4003100910199AD
:1012E000491C0191009911B901999942F3D1016802
:1012F000890302D50121009100E0009200990129A3
:1013000030D11A490A6842F010020A600A6822F0D5
:1013100003020A600A6842F002020A604168416002
:1013200041684160416841F480614160416821F455
:101330007C114160416841F4E8114160016841F06D
:101340008071016001688901FCD5416821F00301C9
:101350004160416841F0020141604168C1F381018F
:101360000229FAD10CBD000000100240002002400A
:101370002DE9F04F93B004468A4615461F46A14614
:10138000780701D0012000E0002000EBD70078436F
:10139000C0B200900C2F03D0102F01D0182F36D1DF
:1013A0003B4601A92846009AFFF71EFB4FF00008B4
:1013B0002AE001A810F808600025DFF858B03006D0
:1013C00005D5514620461C9AFFF700FC07E01D9802
:1013D00028B9BBF8002051462046FFF7F7FB7006FE
:1013E000060E641CA4B2A4EB0900B84204D14C461A
:1013F0000AF1010A1FFA8AFA6D1CEDB2082DDED33C
:1014000008F1010808F0FF0800988045D1D313B017
:10141000BDE8F08F4C0000202DE9FF4F83B004465B
:10142000DDE910750E469346A046B2464FF000091E
:101430001EE0B9F1000F21D04FF0000908EB0B00BE
:10144000401BA04202DA701986B244460698504406
:10145000401BB0420FDBDDE91201CDE900012B4654
:101460003A4631462046FFF783FFBF1C601984B21D
:101470003A78002ADDD107B0BDE8F08F802A02D982
:101480004FF00109F4E708EB0B00A0EB5500A04278
:1014900002DA701986B2444606985044401BB042A6
:1014A000E9DB0D2A0DD0DDE91201CDE900012B4663
:1014B00031462046FFF762FD7F1C04EB550084B2E5
:1014C000D6E7701986B244467F1CF5E74FF0E0215D
:1014D000042804D0086920F00400086170470869F6
:1014E00040F00400086170477047000010B50F48D5
:1014F000016841F00101016041680D4A11404160FD
:1015000001680C4A11400160016821F480210160EA
:10151000416821F4FE0141604FF41F018160FFF733
:10152000CCFE05494FF00060086010BD001002407D
:101530000000FFF8FFFFF6FE08ED00E070B5214C5B
:101540004FF080452078000636D40121284600F06F
:101550005AF838B12178480604D5C843800615D01A
:10156000491C21700221284600F04DF820B3217853
:10157000480612D541F080002070284600F041F85E
:1015800060800021284600F04AF815E041F0800014
:1015900020704FF6FF706080E4E7002020706080CC
:1015A0000021284600F041F8217841F040012170E7
:1015B0000221284600F033F82846BDE87040032198
:1015C00000F01CB82200002010B50A4C0121204672
:1015D00000F019F800280AD00121204600F00EF88A
:1015E0000549D1F8B40118B10020C1F8B40110BD0B
:1015F0000120FAE70004004000002242C9430182B2
:101600007047808E704702460020138A0B409289F3
:101610000A40002B02D0002A00D001207047028C23
:1016200022F002020A43028470478184704700005E
:1016300070B5164C40F22551204600F043F80028C2
:101640000ED0204600F0D8F8C1B2114A1088030429
:1016500006D444044FF0000307D50A2901D01380B3
:1016600070BD40F40040108070BD0D290AD0094DB6
:10167000C0F30D042955401C80B21080C728F3D94F
:10168000138070BD40F48040108070BD0038014070
:101690002C00002098200020002904D0818941F4EA
:1016A000005181817047818921F400518181704707
:1016B000002A03D0828A0A4382827047828A8A4340
:1016C0008282704770B5002440F66A12C1F342135B
:1016D00001F01F05012606FA05F2012B0CD0022BA2
:1016E0000DD0838A1340090A8E40008830400BB128
:1016F00000B10124204670BD83891340F3E7038ABB
:101700001340F0E710B540F66A13C1F3421301F03D
:101710001F040121A140012B07D0022B07D0143058
:101720003AB102680A43026010BD0C30F8E710308D
:10173000F6E702688A43026010BD000030B585B04C
:1017400004460D46208A4CF6FF710840E9880143A3
:101750002182A0894EF6F3110840A9882A891143F5
:101760006A8902431143A181A08A4FF6FF410840D4
:10177000A9890143A1826846FFF748FD1D488442BC
:1017800001D1039800E00298A189090408D500EB73
:10179000C00101EB001029684900B0FBF1F007E03F
:1017A00000EBC00101EB001029688900B0FBF1F0EB
:1017B0006422B0FBF2F109010B096FF018056B43CD
:1017C00000EB8300A3891D044FF0320307D503EB20
:1017D000C000B0FBF2F000F00700084306E003EBA6
:1017E0000010B0FBF2F000F00F000843208105B0BC
:1017F00030BD0000003801408088C0F30800704709
:10180000FEE700000149002008607047082C0040F6
:1018100010B50848007800F011F8FFF7F3FF06490B
:10182000D1F8B40118B10020C1F8B40110BD0120F5
:10183000FAE700002100002000002242024900F0E7
:101840007F00086070470000002C004030380A28F4
:1018500001D20120704700207047704710B56FF02B
:101860000400FFF733FE084808490068B0FBF1F0B8
:101870000749088000EB4002C2EBC0104FF6FF7230
:1018800002EAC000488010BD0C00002000127A005F
:10189000280000200B49498848434FF0E021486167
:1018A00000238B61086940F0010008610869C207E4
:1018B00001D0C003FAD5086920F0010008618B61EE
:1018C000704700002800002004490A885206FCD511
:1018D000024AC1B2121D1180704700000038014059
:1018E000FFF7BCFFFFF71EFCFEF764FF4FF4E1308B
:1018F00000F0F6F8FFF7B0F94FF6FF70FFF7E6F8E3
:1019000000214BA34FF478420846FEF7B3FE4CA3E8
:101910001F2210210020FEF7ADFE4EA31F22202122
:101920000020FEF7A7FE4F4C1E23A3700022A280CA
:101930004D4942F208060125207898420BD3607881
:1019400020B1A7880A20C85522700DE0A7880D2075
:10195000C855657008E06270444FB4F804C03F5C3D
:1019600001F80C70401C2070A088401C80B2A08040
:10197000B042E1D34FF400573D4EDFF8F890DFF866
:10198000F8804EE088F800503CA31F224021002040
:10199000FEF770FE3EA31F2250210020FEF76AFED4
:1019A0003DA0FEF717FC012280213F48FFF780FE93
:1019B0003046FFF7D3FB3846FEF746FE78B138468F
:1019C000FEF726FE39A31F2250210020FEF752FE0B
:1019D00038A31F2240210020FEF74CFE18E03046BD
:1019E000FEF72FFE00F022FA374900F05DF94FF0C4
:1019F0007E5100F0FBFA354900F02CFAA06000F0AF
:101A0000C5F802460B4632A13448FEF7EFFBD2E799
:101A1000D9F8B40150B10020C9F8B401FA20FFF799
:101A200039FF98F800000028F2D1ABE70120F3E776
:101A30002020444D412054455354202020200000B4
:101A40002020C7B6C8EBCABDBFAAB7A2CDF82020D8
:101A5000200000006D63756465762E74616F6261AD
:101A60006F2E00000000002050000020EA20000837
:101A700044000240000022422000002053746172A2
:101A800074205472616E73696D69742E2E2E2E004F
:101A900020202025000000000D0A444D4120444133
:101AA00054413A0D0A000000003801402020313036
:101AB000302500005472616E73696D697420466947
:101AC0006E69736865642100002000460000C8420A
:101AD0002020202020253364000000005820002012
:101AE00070B586B00546012144F20400FFF780FB83
:101AF0004FF40070ADF8140003248DF8164018213F
:101B00008DF817101C4E05A93046FEF70FFF311552
:101B1000ADF8141004218DF8171005A93046FEF712
:101B200005FF25208DF800008DF801408DF802405A
:101B300001208DF803006846FFF726FB0195002081
:101B4000ADF80800ADF80A00ADF80C00ADF81000D3
:101B50000C20ADF80E00094C01A92046FFF7EEFD60
:101B6000012240F225512046FFF7CCFD01212046FD
:101B7000FFF792FD06B070BD00080140003801403B
:101B80000808A0F500114FEA3101704743004FEA01
:101B9000D30C4FEA3C0C43401FBF40070CF160518F
:101BA00013F0FE4F70471CF0006F03D100200CF0C3
:101BB000004170470CF0004343EA507010B540EA12
:101BC000CC0000F0C8F900BF000000924FEA00010D
:101BD000FFF7D6BF4FF000414FF00000A1F5002104
:101BE0007047000090EA010F48BF81F0004100F10A
:101BF0000E82421A3CBF801A89184FEAD0524FF029
:101C00007F4C1CEA410FA2EBD15318BF9CEA026F34
:101C100000F03B804FF0004C4CEA00204CEA0121E0
:101C200021FA03FC10EB0C0C1ED202F1FF325FEA2A
:101C30001C2040EBC25038BF70471CF07F0F4FEAAA
:101C4000400C18BFBCF17F4F38BF7047C3F1200371
:101C5000994008BF20F00100BCF17F4F38BF7047AA
:101C6000A0F1C04000F0BDB94FEA3C00000A40EBD3
:101C7000C25028BF1CF0FF0F4FEA400CE6D018BF3F
:101C8000BCF17F4F38BF7047EAE79CEA026F05D08E
:101C900010EA5C0F08BF00F00040704710B500F07C
:101CA0005AF900BF64FBBE3E4FF47F0C1CEAD01211
:101CB0001EBF1CEAD11392EA0C0F93EA0C0F00F03E
:101CC000858090EA010F48BF42F4807240F4000C16
:101CD00041F400002CF07F4120F07F4000B58142AC
:101CE000A2EB03020FF2081CACEB504EC0F1000057
:101CF0009EF800E04FEA4E0E00FB0EFC38BF490094
:101D00004FEA2C1C02F5FA020CFB0EF34FEACE1E32
:101D10004FEA112C4FEAC1210EEB635E42EB2242E7
:101D20000EFB0CFC4FEA1C5300FB03114FEA112C75
:101D30004FEA01310EFB0CFC4FEADC4C00FB0C11AE
:101D4000C14228BF09184CEB03335DF804EB10EBDC
:101D5000410143EBC250B2F57C0F38BF704729D523
:101D600012F0F00F1CBF00F1C04000F000407047BF
:101D7000008182838485868788898B8C8D8E8F9164
:101D80009293959697999A9C9D9FA0A2A3A5A7A888
:101D9000AAACAEB0B2B3B5B7B9BCBEC0C2C5C7C9B4
:101DA000CCCED1D4D7D9DCDFE2E6E9ECF0F3F7FA18
:101DB000FE0000004FEA400C0CF1807CBCF17E4F2D
:101DC00028BF7047B0F1C04000F00BB990EA010F96
:101DD0000CEAD11348BF42F48072624538BF6345B4
:101DE00007D213F47F0F16D080EA010000F0004004
:101DF000704710B500F0AFF8097EFC3E00F005B862
:101E000080EA010000F00040704780EA010000F025
:101E1000004000F0E6B812F47F0F04BF024870479C
:101E200080EA010000F0DDB80000C07FB0FA80F366
:101E300010FA03F2C3F19D030AD0D90501EB122079
:101E4000530638BF704700F1010008BF20F00100C1
:101E5000704700004FF47F0C1CEAD0121EBF1CEA32
:101E6000D11392EA0C0F93EA0C0F00F0478090EA2E
:101E7000010F48BF42F480724FF0004C4CEA002042
:101E80004CEA012102EB0302A0FB0113A2F50002C0
:101E9000002918BF43F001035B0028BF4FEA33035A
:101EA00042EB22425FEA132C4CEBC2502EBFBCEB3C
:101EB000436FB2F57C0F70474FEA036CBCF1004FE3
:101EC00008BF20F00100B2F57C0F38BF70470BD57A
:101ED00082F0FF0212F5803FC8BF704700F1C0409A
:101EE000D8BF00F00040704700F5000C5FEA4C0CD2
:101EF00048BF7047B0F1C04000F073B890EA010FDE
:101F00000CEAD11348BF42F48072624538BF634582
:101F100004D280EA010000F00040704710B500F0E4
:101F20001AF800BF8900013E00F007B800F009B8B8
:101F30005FEA410C5FEA1C6C08D080EA010000F007
:101F400050B85FEA400C5FEA1C6CF6D14FF00040DD
:101F5000A0F5800070470EF1020E2EF0030E5EF821
:101F6000044B244204D44FEA4102B2F17F4F11D80E
:101F70004FEA4003B3F17F4F0CD80ED14FEAD07C2B
:101F8000B2F17F4F0CEB4C0C0CF1020C08BF4CEB88
:101F9000D17C04E04FF0080C01E04FEAD17C0CEB5F
:101FA0004C0324FA03F404F00704B4F1040C06D241
:101FB0000EEB840CBDE810404CF0010C6047DFE8EC
:101FC0000CF0070802024FF00040A0F5800010BDA1
:101FD0000846420018BFD2F1807288BF00F000406E
:101FE00010BDFF2141EAD050C005704780F000408D
:101FF00090EA010F7FF5FDAD81F0004100F007B8D8
:1020000090EA010F48BF81F000413FF5F2AD421A5E
:1020100004D882F00042A0EB020011444FEAD052F3
:102020004FF07F4C1CEA410FA2EBD15318BF9CEA42
:10203000026F4AD04FF0004C4CEA00204CEA0121DC
:1020400021FA03FCB0EB0C0C0FD412F0FE0F36D0CB
:102050005FEA4C001DD5001240EBC25038BF7047FC
:102060001CF03F0F18BF70470BE0A2F101025FEABE
:102070001C2040EBC25038BF70471CF07F0F18BFC8
:102080007047C3F12003994014BF401E20F00100A7
:10209000704780084FEA122308BF7047B0FA80FCEF
:1020A000A2EB0C02CCF1280C60FA0CF093EA122F90
:1020B00004BF00EBC25070474FEAC3707047130A69
:1020C0005FEADC1008BF7047F6E79CEA026F04D0B5
:1020D00010EA5C0F08BF0020704710B5FFF73BFF08
:1020E00040DFF63E81F0004070476D6375646576B1
:1020F0002053544D33324631303320444D4120B4C7
:10210000AEBFDACAB5D1E90000000000000000004F
:1021100000000000000000003F4000000000000040
:1021200000003000400030004000000009000BC0FB
:102130003D000BC03D00090018C024407FE0224054
:1021400031800000180024C01B000D803240018047
:1021500003801C4027401C800740004010006000A6
:1021600000000000000000000000000000001F80D0
:10217000204040200000402020401F800000000040
:10218000090006001F80060009000000040004008A
:102190003F80040004000000001000600000000008
:1021A000000000000400040004000400040000001B
:1021B000000000400000000000000000002001C0FE
:1021C00006003800400000001F80204020402040D2
:1021D0001F800000000010403FC0004000000000D1
:1021E00018C02140224024401840000010802040A8
:1021F000244024401B80000002000D0011003FC05D
:10220000014000003C802440244024402380000002
:102210001F80244024403440038000003000200010
:1022200027C03800200000001B80244024402440A8
:102230001B8000001C0022C0224022401F800000A2
:102240000000000008400000000000000000000046
:102250000460000000000000000004000A001100FB
:102260002080404009000900090009000900000021
:1022700000004040208011000A00040018002000E7
:1022800023402400180000001F80204027402940E0
:102290001F400000004007C039000F0001C000408F
:1022A00020403FC0244024401B8000001F8020406D
:1022B000204020403080000020403FC0204020408F
:1022C0001F80000020403FC024402E4030C000004E
:1022D00020403FC024402E00300000000F0010803E
:1022E000204022403380020020403FC00400040010
:1022F0003FC02040204020403FC020402040000000
:102300000060202020203FC02000200020403FC04F
:1023100024400B0030C0204020403FC020400040FF
:10232000004000C03FC03C0003C03C003FC0000074
:1023300020403FC00C4023003FC020001F802040B1
:10234000204020401F80000020403FC02440240047
:10235000180000001F802140214020E01FA0000045
:1023600020403FC02440260019C0004018C024402F
:102370002440224031800000300020403FC02040F7
:102380003000000020003F80004000403F802000DF
:1023900020003E0001C0070038002000380007C0C0
:1023A0003C0007C038000000204039C0060039C09A
:1023B000204000002000384007C0384020000000C6
:1023C000304021C02640384020C0000000000000FE
:1023D0007FE0402040200000000070000C000380DF
:1023E000004000000000402040207FE0000000008E
:1023F000000020004000200000000000001000103D
:10240000001000100010001000000000400000004C
:1024100000000000000002800540054003C00040AD
:1024200020003FC0044004400380000000000380FF
:1024300004400440064000000000038004402440A3
:102440003FC00040000003800540054003400000FD
:10245000000004401FC0244024402000000002E08F
:10246000055005500650042020403FC004400400A1
:1024700003C000400000044027C0004000000000EE
:1024800000100010041027E00000000020403FC0B2
:102490000140070004C00440204020403FC00040ED
:1024A0000040000007C0040007C0040003C0000093
:1024B000044007C00440040003C000400000038043
:1024C0000440044003800000041007F0045004405E
:1024D00003800000000003800440045007F0001057
:1024E000044007C002400400040000000000064051
:1024F0000540054004C00000000004001F800440A7
:1025000000400000040007800040044007C0004075
:102510000400070004C0018006000400060001C09A
:10252000070001C006000000044006C0010006C00C
:10253000044000000410071004E0018006000400BD
:102540000000044005C006400440000000000000F8
:1025500004007BE040200000000000000000FFF0CD
:1025600000000000000040207BE0040000000000AC
:1025700040008000400020002000400000000000DB
:10258000000000000000000000000000000000004B
:1025900000001FCC000C000000000000000008003C
:1025A000300060000800300060000000022003FCE2
:1025B0001E20022003FC1E200220000000000E1836
:1025C00011043FFF10840C78000000000F001084FD
:1025D0000F3800C0077818840078000000780F8456
:1025E00010C411240E9800E400840008080068005C
:1025F000700000000000000000000000000000006B
:10260000000007E01818200440020000000040020B
:102610002004181807E000000000000002400240FB
:1026200001800FF001800240024000000080008025
:1026300000800FF800800080008000000001000D85
:10264000000E0000000000000000000000000080FC
:102650000080008000800080008000800000000C6E
:10266000000C000000000000000000000000000658
:10267000001800600180060018002000000007F02C
:10268000080810041004080807F0000000000804FF
:1026900008041FFC000400040000000000000E0CF1
:1026A00010141024104411840E0C000000000C18AB
:1026B00010041104110412880C700000000000E0E6
:1026C0000320042408241FFC0024000000001F989D
:1026D000108411041104108810700000000007F02D
:1026E00008881104110418880070000000001C0004
:1026F000100010FC13001C001000000000000E3839
:1027000011441084108411440E38000000000700AA
:10271000088C10441044088807F0000000000000F6
:102720000000030C030C000000000000000000008B
:102730000001010600000000000000000000008011
:1027400001400220041008081004000002200220AA
:1027500002200220022002200220000000001004BB
:1027600008080410022001400080000000000E0054
:102770001200100C106C10800F00000003E00C1809
:1027800013E4142417C4082807D000000004003CF8
:1027900003C41C40074000E4001C000410041FFC9C
:1027A0001104110411040E880070000003E00C18DD
:1027B00010041004100410081C10000010041FFC6A
:1027C000100410041004080807F0000010041FFC97
:1027D0001104110417C410040818000010041FFC91
:1027E0001104110017C010000800000003E00C18CD
:1027F0001004100410441C780040000010041FFC5A
:1028000010840080008010841FFC1004000010045D
:1028100010041FFC1004100400000000000300015D
:10282000100110011FFE10001000000010041FFC1A
:10283000110403801464181C1004000010041FFC11
:102840001004000400040004000C000010041FFC2D
:102850001F0000FC1F001FFC1004000010041FFCE0
:102860000C04030000E010181FFC100007F008081B
:10287000100410041004080807F0000010041FFCE6
:1028800010841080108010800F00000007F00818DE
:1028900010241024101C080A07F2000010041FFC6A
:1028A0001104110011C011300E0C000400000E1CA8
:1028B00011041084108410441C380000180010000B
:1028C00010041FFC100410001800000010001FF876
:1028D00010040004000410041FF8100010001E0073
:1028E00011E0001C007013801C0010001FC0103C81
:1028F00000E01F0000E0103C1FC000001004180C96
:10290000163401C001C01634180C100410001C004D
:10291000130400FC13041C00100000000804101C29
:102920001064108413041C04101800000000000040
:1029300000007FFE40024002400200000000300024
:102940000C0003800060001C000300000000400237
:10295000400240027FFE0000000000000000000076
:102960002000400040004000200000000001000165
:102970000001000100010001000100010000400011
:10298000400020000000000000000000000000984F
:10299000012401440144014400FC000410001FFC18
:1029A000008801040104008800700000000000702D
:1029B0000088010401040104008800000000007088
:1029C00000880104010411081FFC0004000000F845
:1029D000014401440144014400C800000000010416
:1029E00001040FFC1104110411001800000000D6AE
:1029F00001290129012901C90106000010041FFC59
:102A0000008401000100010400FC00040000010436
:102A1000190419FC00040004000000000000000379
:102A200000010101190119FE0000000010041FFC43
:102A30000024004001B4010C010400000000100457
:102A400010041FFC0004000400000000010401FC4D
:102A50000104010001FC0104010000FC010401FC6F
:102A6000008401000100010400FC0004000000F8E3
:102A7000010401040104010400F80000010101FF48
:102A8000008501040104008800700000000000704F
:102A9000008801040104010501FF00010104010493
:102AA00001FC00840104010001800000000000CC52
:102AB00001240124012401240198000000000100E8
:102AC000010007F80104010400000000010001F802
:102AD000000400040004010801FC0004010001805E
:102AE0000170000C001001600180010001F0010C78
:102AF000003001C00030010C01F0010000000104B1
:102B0000018C00740170018C01040000010101813D
:102B10000171000E001801600180010000000184B5
:102B2000010C013401440184010C0000000000008C
:102B30000000000001003EFC4002400200000000D6
:102B400000000000FFFF0000000000000000400245
:102B500040023EFC01000000000000000000600098
:102B600080008000400040002000200000000000A5
:102B70000000000000000000000000000000000055
:102B80000000000000000000000000000000000045
:102B90000000000000000000000000000000000F26
:102BA00080380FFE380F8038000000000000000061
:102BB000000000000000000000000100000600000E
:102BC0000C00003800003100000600000C00003846
:102BD000000030000000000000000000618000677D
:102BE000F807F980006180006180006180006180E9
:102BF0000067F807F9800061800000000000000015
:102C0000000001C0E003E0F00630080418081FFFD0
:102C1000FE040E080787F00381E0000000000000BA
:102C200001F000060C00040408060C7001F9C00055
:102C30000E00003BE000EC18070808040C18000325
:102C4000E00000000001E00007F003F818041C0891
:102C500004170807E1D003C0E00023B0003C0800DF
:102C600020080000100000000000000100003100FA
:102C7000003200001C000000000000000000000006
:102C80000000000000000000000000000000000044
:102C90000000000000000000000000007F0001FFB5
:102CA000C00780F00C001810000420000200000093
:102CB0000000002000021000040C00180780F00142
:102CC000FFC0007F000000000000000000000000C6
:102CD00000000000000000004200006600006600E6
:102CE000003C0000180003FFC0001800003C00007A
:102CF00066000066000042000000000008000008B6
:102D00000000080000080000080001FFC0000800E3
:102D10000008000008000008000008000000000093
:102D2000000100003100003200001C000000000023
:102D30000000000000000000000000000000000093
:102D40000000000008000008000008000008000063
:102D50000800000800000800000800000800000843
:102D600000000000000000000000000038000038F3
:102D7000000038000000000000000000000000001B
:102D8000000000000000000000000000000600003D
:102D90001C000070000180000E0000380000C00020
:102DA0000700001C000030000000000000000000D0
:102DB0007F8001FFE0038070060018040008040013
:102DC0000806001803807001FFE0007F800000000B
:102DD00000000000000001000801000801000803D5
:102DE000FFF807FFF80000080000080000080000D6
:102DF0000000000000000001C03802C05804009824
:102E0000040118040218040418061C1803F8180119
:102E1000E0F800000000000000000001C0E003C076
:102E2000F004000804080804080806180803F41849
:102E300001E7F00001E000000000000000000000D9
:102E40000300000D00001100006100008108030173
:102E50000807FFF80FFFF800010800010800000054
:102E60000000000000E007FCD00608080610080675
:102E70001008061008061838060FF00607C00000F4
:102E800000000000000000003F8001FFE0038430EC
:102E9000020818041008041008041008071810038A
:102EA0000FF00007C000000000000000000003C099
:102EB000000700000600000600F80607F8061800E4
:102EC00006E000070000060000000000000000010E
:102ED000E1E003F7F0063410041808041808040CA5
:102EE00008040C0806161803F3F001C1E000000006
:102EF00000000000F80003FC300306380402080458
:102F000002080402080404100308F001FFC0007F57
:102F100000000000000000000000000000000000B1
:102F200000000000703800703800703800000000A9
:102F30000000000000000000000000000000000091
:102F40000000000000000000301A00301C000000EB
:102F50000000000000000000000000000000000071
:102F60000000000800001400002200004100008062
:102F7000800100400200200400100800080000004A
:102F800000000000210000210000210000210000BD
:102F9000210000210000210000210000210000216B
:102FA00000000000000000000000080008040010FD
:102FB000020020010040008080004100002200004B
:102FC000140000080000000000000003C00004C05E
:102FD00000040000080038080F38080838081000FE
:102FE0000C300007E00003C00000000000000000FB
:102FF0003F8000FFE0038070020F1006708804C05D
:1030000088048308047F8802C09003012000FE40EA
:103010000000080000180001F8003E0801C2000787
:10302000020007E20000FE00001FC80001F80000D7
:103030003800000804000807FFF807FFF804080834
:1030400004080804080804080806180803F418010E
:10305000E7F00001E0000000000000003F8001FFF9
:10306000E00380700200180400080400080400084F
:103070000400100600200780C000000004000807BC
:10308000FFF807FFF8040008040008040008040023
:103090001802001003807001FFE0007F8000000034
:1030A00004000807FFF807FFF804080804080804EC
:1030B0000808040808043E08040008060018010077
:1030C0006000000004000807FFF807FFF804080884
:1030D000040800040800040800043E00060000067E
:1030E0000000018000000000000000003F8001FFA0
:1030F000E0038070060018040008040208040208B7
:103100000203F00783F00002000002000400080739
:10311000FFF807FFF804080800080000080000088E
:103120000000080004080807FFF807FFF80400087B
:103130000000000000000400080400080400080764
:10314000FFF807FFF8040008040008040008000066
:103150000000000000000000000600000700000161
:1031600004000104000104000307FFFE07FFFC0444
:10317000000004000004000004000807FFF807FF37
:10318000F8040C08001800003E0004C7800503C8BE
:103190000600F804003804001800000804000807BE
:1031A000FFF807FFF804000800000800000800000E
:1031B000080000080000080000180000600000007F
:1031C00004000807FFF807800807FC00007FC00024
:1031D00003F80007C000780007800807FFF807FF22
:1031E000F804000804000807FFF807000803C000FF
:1031F00000E000003800001E000007000001C004CD
:1032000000F007FFF8040000000000007F8001FFCD
:10321000E003807006001804000804000806001887
:1032200003003001FFE0007F800000000400080779
:10323000FFF807FFF8040408040400040400040471
:1032400000040400060C0003F80001F00000000078
:10325000000000007F8001FFE0038070060088040A
:1032600000880400C806003C03003E01FFE6007F22
:103270008400000004000807FFF807FFF8040808AE
:10328000040800040C00040F00040BC00610F00337
:10329000F03801E00800000800000001E0F803F049
:1032A00030063010041808041808040C08040C0830
:1032B0000206180207F00781E00000000180000606
:1032C000000004000004000004000807FFF807FFE6
:1032D000F80400080400000400000600000180005B
:1032E00004000007FFE007FFF004001800000800DA
:1032F000000800000800000800000804001007FF94
:10330000E004000004000006000007E00007FE00E3
:10331000041FE00001F80000380001E0043E00074F
:10332000C00006000004000004000007E00007FFE2
:10333000C0041FF80007C007F80007FF80043FF82B
:103340000007C004F80007000004000000000004AB
:10335000000806001807C07805F1C8003E00001FED
:10336000800463E80780F8060018040008000000E5
:1033700004000006000007800007E008047C080045
:103380001FF80007F800180804E00807000006000E
:10339000000400000000000100080600380400F8E6
:1033A0000403E8040F08047C0805F00807C00807B8
:1033B0000018040060000000000000000000000091
:1033C000000000000000003FFFFE2000022000027D
:1033D0002000022000022000020000000000000087
:1033E000000008000007000000C0000038000006D0
:1033F000000001C000003000000E000001000000CD
:103400000000000000002000022000022000022036
:1034100000022000023FFFFE00000000000000004C
:103420000000000000000000000000000008000094
:1034300010000030000020000030000010000008E4
:10344000000000000000000000000100000100007A
:103450000100000100000100000100000100000166
:103460000000010000010000010000010000000058
:1034700000000000002000002000001000001000EC
:10348000000000000000000000000000000000003C
:103490000000000000F00019F8001B1800220800CE
:1034A0002608002408002410003FF8001FF8000040
:1034B0000800001800000004000007FFF80FFFF0EC
:1034C000001818001008002008002008003018001C
:1034D0001FF0000FC00000000000000007C0001F28
:1034E000F0001830002008002008002008003C08E8
:1034F000001C100000600000000000000000000040
:1035000007C0001FF0003818002008002008002025
:103510000804101007FFF80FFFF000001000000073
:103520000000000000000007C0001FF00012300083
:103530002218002208002208003208001E10000E87
:1035400020000000000000002000002008002008EB
:1035500001FFF803FFF806200804200804200807EC
:10356000200003000000000000000000000E000E1C
:103570006E001FF30031B10020B10020B100319185
:10358000001F13002E1E00200E003000000000045B
:10359000000807FFF80FFFF80010080020000020C7
:1035A00000002008003FF8001FF80000080000009D
:1035B000000000000000002008002008002008068D
:1035C0003FF8063FF800000800000800000800006F
:1035D00000000000000000000000000003000003E5
:1035E000002001002001002003063FFE063FFC00F2
:1035F000000000000000000000000004000807FFB9
:10360000F80FFFF8000188000300002FC00038F811
:103610000020380020080000080000000000000022
:10362000000004000804000804000807FFF80FFF6A
:10363000F80000080000080000080000000000007A
:10364000002008003FF8003FF800100800200000AC
:103650003FF8003FF8001008002000003FF8003F4E
:10366000F8000008000000002008003FF8003FF8C4
:10367000001008001000002000002008003FF800A3
:103680001FF80000080000000000000007C0000F45
:10369000F000183000300800200800200800300832
:1036A000001830000FF00007C0000000000000000C
:1036B0002001003FFF003FFF001011002009002003
:1036C00008002008003038001FF0000FC000000084
:1036D0000000000007C0001FF0003818002008009C
:1036E0002008002009001011001FFF003FFF00000C
:1036F00001000000002008002008002008003FF81A
:10370000003FF80008080010080020080020000012
:103710003000003000000000000000000000000C3D
:1037200078001E18003308002308002108002188B3
:103730000021980030F00038600000000000000018
:10374000200000200000200000FFF003FFF8002010
:1037500008002008002008000030000000000000E1
:10376000000000002000003FF0007FF8000018007B
:103770000008000008002010003FF8007FF0000063
:1037800010000000000000002000003000003C009D
:10379000003F800023F000007800007000238000CC
:1037A0003C00003000002000002000003C00003FF2
:1037B000E00023F80000E0002700003E00003FE0AA
:1037C0000021F80001E0003E0000200000000000A1
:1037D0002008002008003838003E680027800003D9
:1037E000C8002CF80038380020180020080000001D
:1037F000000000002000003003003C01003F830077
:1038000023EC000070002380003C0000200000201A
:103810000000000000000000000000380800203810
:103820000020F80023E8002F88003E080038080038
:1038300020180000700000000000000000000000E0
:10384000000000000000000008000014001FF7FC4A
:103850003000062000020000000000000000000010
:103860000000000000000000000000000000FFFF5A
:10387000FF00000000000000000000000000000049
:103880000000000000002000023000061FF7FC00CE
:10389000140000080000000000000000000000000C
:1038A0000000000000000018000060000040000060
:1038B0004000002000001000000800000400000488
:1038C00000000C0000100000B5E70200020002003A
:1038D0007FF0421042107FF0421042107FF0420011
:1038E0000208020801F800000000D7D37FF0002092
:1038F0000040008001000200FFF802000200020008
:103900000200020002000E0000000000BCBC1020FB
:103910001020102013FEFC201020102015FC18840D
:103920003088D04810501020105051882606CAF513
:1039300001000120011001107FFC038005400540BB
:1039400009201110210841040102010001000100B9
:10395000D2BA0080404027F81140014082784248A6
:1039600016A81AD02350222042204250028800007C
:103970000000BEA73FE020203FE020203FE0000005
:10398000FDF885088508FDF885088508FDF8850897
:1039900000000000B2E200084F8828880AA88AA820
:1039A0004AA80AA82AA82AA84228450884888888FC
:1039B000103800000000CAD44050204820400FF8C2
:1039C0000040E04027402240224022202A2833A8FD
:1039D0002E18000800000000B3CC00001BF0E2101D
:1039E000221023F0F800200033F068806080A3F0FC
:1039F0002080208027F800000000D0F202000100A3
:103A00003FF820002FF02020224021803FF820881E
:103A1000209040804080838000000000D1D52000AD
:103A200010F87E20444028F87E8848A850A864A852
:103A300048A872A884501888610800000000C9AB2B
:103A4000100010003FE0404080807FF042104210A4
:103A500042107FF04000400840083FF8000000009E
:103A6000CCEE20802FF8208027F0F41027F02410CF
:103A700027F0241027F03410CFF8022004100000A3
:103A80000000B3E404000200FFF80800104020200A
:103A90007FF0089008800880088010882088C0780F
:103AA00000000000CEC4040002000200FFF8104035
:103AB0001040088008800500020005000880306082
:103AC000C01800000000D7D604000200FFF88008EC
:103AD00080083FC0008001000200FFF802000200E1
:103AE00002000E0000000000CFD43FE02020202084
:103AF0003FE0202020203FE008804890289028A028
:103B000008800880FFF800000000CABE00003FE007
:103B1000000000000000FFF80200124012202210F6
:103B20004208820802000E0000000000CDBC7FF8B1
:103B30004008440847C84848548843084CC873386C
:103B400040884C08430840887FF800000000C6AC5D
:103B500000802080208020803FF020002000200076
:103B60003FC02040204020404040804000000000F6
:103B7000B4A520403840484091F07D5055505550F4
:103B80007D5055F054407C40545057F88C0800004C
:103B90000000C3FE2220222027F8FA2027F024105C
:103BA00027F03410E7F020802FF821402220EC1875
:103BB00000000000CAE440804140F22044108BE83D
:103BC000A000F78824A827A834A8E7A824A8248858
:103BD00025B800000000C8EB080004000400020043
:103BE00002000500050008800880104010402020D9
:103BF0004010800800000000C8AB02000200050071
:103C0000088010402020DFD8020002001FC0020000
:103C100002000200FFF800000000B3CC00001BF01F
:103C2000E210221023F0F800200033F0688060805A
:103C3000A3F02080208027F800000000BCBC20807A
:103C400020802080F7F02080208027E03220E220B2
:103C50002140208021402220EC1800000000CAF5FD
:103C60000200024002200200FFF807000A800A80DA
:103C700012402220421082080200020000000000D0
:103C8000D6A702000200FFF8020002007FE0102029
:103C90001040088005000200050018C0E038000050
:103CA0000000B3D62080208023F0F880208027F801
:103CB00028203020E7F82020222021202020E0E0CA
:103CC00000000000D7A8020002007FF004000400FA
:103CD000FFF8080010003FE0002000401C800300B7
:103CE000008000000000D7A201004080200017F0F3
:103CF000008080804080008017F01080208020802D
:103D000040804FF800000000C5FA204024402440C5
:103D1000F4482450276024403440E44024402440A8
:103D200025482648E43800000000B7A202002220FF
:103D3000221044007FF8040008000FE01420244003
:103D40004280810006C0383800000000B3C900A0DE
:103D5000009000807FF8408040907C90449044A088
:103D600044A0444858A84118820800000000B9A6A1
:103D700001000100F90023F0211021102110211071
:103D800021103910C2100210041008600000000059
:103D9000D2C60000002000780CE47904516810308D
:103DA0007E6019981A3C2FE448E40838003000601F
:103DB0000000D1A100000120012003FC622034207A
:103DC000042003FC240021B021202220323E1800D0
:103DD0000FE00000D4F10000000010FC1304110CEF
:103DE0003DF8703E10D015907CF0503E18101BFE30
:103DF000023000200000CFEE0000000003FE006053
:103E00007C4012FC11041106113611241F44794420
:103E100000C0009C01860000C4BF000000000FE04D
:103E20003C18200820043E04600460047E04600402
:103E3000200C20081FF001800000B6CC0000080014
:103E400011FC103E3EF82D8C2904490409043E8CD7
:103E500050FC10881EC811FC100E0000B0B4000009
:103E60000040006012FE13023A427F4410C41BFE61
:103E70003C987190113011A00078004C0000C8B738
:103E80000000004000F878C41F8C313821EC212656
:103E9000413A7DE2272225FA3D2601240104000053
:103EA000B6A80000010001705FFC700420042FF828
:103EB00001001100113821C431003F0063E0403897
:103EC0000000B3A4000000000818086008C00B0040
:103ED0001E00181C7FF01000118010E01838098EA9
:103EE0000F000000B0B400000040006012FE13029A
:103EF0003A427F4410C41BFE3C987190113011A0CF
:103F00000078004C0000B7B50000000007F806007C
:103F1000240014F8078C04042408261825F0647C77
:103F200064C220801FC00000BBD8000000001FF04A
:103F300030182008278C2C44284428442CC427847B
:103F40002004300C1FF803800000C7B601002108D0
:103F500021083FF800202220223EFF422294221016
:103F60003E10221022283E2822440082CABD00486A
:103F7000004400440040FFFE004000403E40084036
:103F80000840082008220F12780A20060002BFAA63
:103F900000007FFC08200820082008200820FFFEE1
:103FA0000820082008200820102010202020402071
:103FB000B7A201001110110822003FFC020004000A
:103FC00007F80A080908111010A0204040A00318A3
:103FD0001C06CDF800007FFC4004400442145294BB
:103FE0004A54442444244A544A5452946104400498
:103FF00040144008D6D001000100010001003FF844
:10400000210821082108210821083FF82108010082
:10401000010001000100CEC4020001000100FFFE0A
:1040200010101010082008200440028001000280B7
:10403000044008203018C006B2E2000427C414442B
:104040001454855445544554155415542554E55479
:1040500021042284224424140808CAD400282024DD
:104060001024102007FE0020F02017E0112011106E
:104070001110151019CA170A0206000200000000EC
:104080000000000000000000000000000000000030
:104090000000000000000000000000000000B4F379
:1040A00000000000000000180000100000100000D8
:1040B000100000100000100C3FFFFE001000001860
:1040C00000001800003400003400002200006200EC
:1040D00000410000C1800080C00100600600380877
:1040E000001C300000000000D4BD000000000000F3
:1040F0000300C00200B00200980260881F888C0292
:104100000FF0020C80022C887FDC88030C901B0CC3
:10411000D01B0C6013EE60131E64130CF413019C8F
:104120001B020C27040421D800407FFC4007F80044
:104130000000B4B400000000000003800803000C7D
:1041400002E00C06300C04198C08088C08008C184E
:10415000208C2FF08C48208C08208C08208C082084
:104160008C08608C09C10C08080C08080C08080CA5
:104170000C0C0C07FC78000010000000D0C20000FE
:104180000000000002000801003C0133C03EC200F4
:10419000086200044200048200049A0C3FFFFE0102
:1041A00002300102300112301FE2300102300D42B4
:1041B00030193630111430211430210830471030B6
:1041C000022030000000D2BA00000000000000060B
:1041D000001803000C020C04FDF00119800111000D
:1041E0004233083222F812421812651004E4900596
:1041F0006AB0056A200A71200861403860C0186002
:10420000C018616018623018641E08780000000051
:10421000BEA700000000000001004001FFC0010037
:104220004001004001FFC001004001004001FFC00B
:104230000100400000001064081FE7F81046081055
:1042400046081046081FC7F81046081046081046D2
:10425000081FC7F8104608000000C6C10000000093
:1042600000000800000FFFF80C00180C00180FFFEA
:10427000F80C40900C30C00C10800C11100DFFF8A1
:1042800008308008308008308808309C1FFFE0101C
:1042900020801020802060802040804080800300AB
:1042A00080000000B2E200000000000011000C09D4
:1042B000FE080D860805864801A64841B64833B673
:1042C0004813B64815B64805B64805B64805B64879
:1042D00009A64809A64839A44818204818580818BB
:1042E0004408188608190238060018000000CAD4CD
:1042F0000000000000000001A01001D80800880C98
:10430000008804008400FFFE00008000008004009C
:10431000803C0280047DC00408C0040840040840BA
:10432000044860048822050F3407381406E01C0492
:10433000000E000006000000000000000000000069
:10434000000000000000000000000000000000006D
:10435000000000000000000000000000000000005D
:10436000000000000000000000000000000000004D
:10437000000000000000000000000000000000003D
:1043800000000000A44300080000002050000000CE
:1043900028010008F4430008500000208027000096
:1043A00044010008000000000000000000000000C0
:1043B00000A24A0400000000000000000102030403
:1043C00006070809017F000000000000000000004F
:1043D00000000000000000000204060800000000C9
:1043E000010203040102030406070809000000009B
:0443F000FFFF0000CB
:04000005080001915D
:00000001FF
