:020000040800F2
:100000006007002091010008FB0800088D08000827
:10001000F9080008490400082D0D00080000000040
:10002000000000000000000000000000490A000875
:10003000DD07000800000000610900081D0B000832
:10004000AB010008AB010008AB010008AB010008E0
:10005000AB010008AB010008AB010008AB010008D0
:10006000AB010008AB010008AB010008AB010008C0
:10007000AB010008AB010008AB010008AB010008B0
:10008000AB010008AB010008AB010008AB010008A0
:10009000AB010008AB010008AB010008AB01000890
:1000A000AB010008AB010008AB010008AB01000880
:1000B000AB010008AB010008AB010008AB01000870
:1000C000AB010008AB010008AB010008AB01000860
:1000D000AB010008710B0008AB010008AB01000880
:1000E000AB010008AB010008AB01000800F002F80A
:1000F00000F03FF80AA090E8000C82448344AAF183
:100100000107DA4501D100F034F8AFF2090EBAE880
:100110000F0013F0010F18BFFB1A43F0010318473B
:10012000300D0000500D0000103A24BF78C878C18F
:10013000FAD8520724BF30C830C144BF04680C60ED
:10014000704700000023002400250026103A28BF35
:1001500078C1FBD8520728BF30C148BF0B60704739
:10016000642900F07780002070471FB51FBD10B5CF
:1001700010BD00F037F91146FFF7F7FF00F000FE61
:1001800000F055F903B4FFF7F2FF03BC00F0CFFD18
:100190000948804709480047FEE7FEE7FEE7FEE71B
:1001A000FEE7FEE7FEE7FEE7FEE7FEE70448054957
:1001B000054A064B70470000210B0008ED000008BF
:1001C0006001002060070020600300206003002021
:1001D000704700000FB4044910B503AA029800F05C
:1001E000D3F810BC5DF814FB1C0000202DE9F04191
:1001F0000E460446002020622046E168884730B35E
:10020000252805D0D4E901219047206A401CF2E757
:10021000E168204600278847050018D0A5F1410075
:10022000192802D820354FF4006732462946204667
:100230002760FFF795FF40B1012804D0F61D26F096
:1002400007060836D8E7361DD6E72846DAE7206ADB
:10025000BDE8F0812DE9F0410646002410687529BB
:10026000314616A510D0AFF30080002802DA4042D4
:1002700013A507E031688A0701D512A502E04907F6
:1002800004D511A5012401E0AFF3008000210A226A
:1002900006F1240709E0B0FBF2FCB0FBF2F302FB2D
:1002A0001C00303078541846491C0028F3D12346EE
:1002B0002A463046BDE8F04100F00CB800000000CE
:1002C0002D0000002B000000200000007047704748
:1002D000704770472DE9F0470D469946924604460F
:1002E00000F124080168880604D5E06921F01001B6
:1002F000216000E00120A84201DD471B00E000274B
:10030000A1697A1902EB0900081AA0612078C006D9
:1003100002D42046AFF30080002608E0D4E9012192
:100320001AF806009047206A401C761C20624E4551
:10033000F4DB2078C0060AD52046AFF3008006E043
:10034000D4E9012130209047206A401C2062381EE9
:10035000A7F10107F4DC07E0D4E9012118F8050052
:100360009047206A401C2062281EA5F10105F3DC9D
:100370002046AFF300802078000602D50220BDE8B9
:10038000F0870120FBE70000074B70B50D467B446A
:1003900000F011F80446284600F020F810B14FF0A4
:1003A000FF3070BD204670BDD709000001694A1CAE
:1003B00002610878704700B58FB0CDE901310021A6
:1003C000059105497944CDE9031011466846FFF7C8
:1003D0000DFF0FB000BD0000E5FFFFFF007B00F048
:1003E00080007047754600F02BF8AE460500694660
:1003F000534620F00700854618B020B5FFF7D6FE1B
:10040000BDE820404FF000064FF000074FF0000815
:100410004FF0000B21F00701AC46ACE8C009ACE896
:10042000C009ACE8C009ACE8C0098D46704710B5FA
:100430000446AFF300802046BDE81040FFF7A2BE9F
:1004400000487047FC000020FEE70000F0B5827A0B
:1004500001219140304C226842F0010222602E4D71
:100460001C352A688A432A602B4A067B0C322B4BA8
:10047000002E14D116688E4316604688C78846EA57
:100480000746877A03EBC707C7F840660688878860
:1004900046EA0746877A03EBC707C7F84466067B38
:1004A000012E14D116680E4316604288068842EA6F
:1004B0000642867A03EBC606C6F84026C2888688BE
:1004C00042EA0642867A03EBC603C3F84426124A80
:1004D000C37A121D3BB113680B4313600E4A0389A4
:1004E000143223B106E013688B431360F6E71368F8
:1004F0008B4313600389012B02D113680B431360F4
:10050000407B012802D1286808432860206820F039
:1005100001002060F0BD0000006600400060004067
:1005200010B50022036823F002030360036843F060
:10053000010303604FF6FF7300E0521C4468E407B8
:1005400001D19A42F9D14268D2073ED08A79012A74
:100550003DD0026822F080020260CA79012A3BD0B5
:10056000026822F0400202600A7A012A39D0026849
:1005700022F0200202604A7A012A37D0026822F073
:10058000100202608A7A012A35D0026822F008023D
:100590000260CA7A012A33D0026822F004020260A3
:1005A0008A78CC78920742EA04620C7942EA0442E3
:1005B0004C79098842EA0452491E0A43C261016823
:1005C00021F001010160002120E0002010BD02683F
:1005D00042F080020260C0E7026842F0400202601E
:1005E000C2E7026842F020020260C4E7026842F0FB
:1005F00010020260C6E7026842F008020260C8E723
:10060000026842F004020260CAE7491C4268D2074D
:1006100001D09942F9D14068C00701D0002010BD37
:10062000012010BD02460020002905D0012902D179
:10063000106900F003007047D06800F003007047B5
:100640002DE9F04788B00646DDF840A00F469046F9
:1006500099460121042000F093F90121480600F099
:1006600081F94FF48050ADF81C0003208DF81E0076
:1006700018208DF81F00224C07A9204600F0AFF883
:10068000E014ADF81C0048208DF81F0007A9204693
:1006900000F0A5F800248DF816408DF817408DF86D
:1006A000184001258DF819508DF81A408DF81B401F
:1006B0008DF812A08DF813608DF814808DF81570E8
:1006C000ADF8109004A90F48FFF72AFF8DF80A40F3
:1006D0008DF80B408DF80C50ADF80040ADF802409D
:1006E000ADF80440ADF80640ADF808408DF80D5067
:1006F0006846FFF7ABFE08B00020BDE8F0870000B9
:10070000000801400064004010B500EB0113D3F86D
:10071000B04104F004041472002C2CD0D3F8B04182
:10072000E408546003F5D8731C6804F002045472A2
:100730005C6804F00F0494725C68240AD4749C68AA
:10074000D4729C68240A14739C68240C54739C68AB
:10075000240E9473DC68D473DC68240A1474DC6897
:10076000240C5474DB681B0E937449B1016941F089
:100770002001016110BDD3F8B041640D1460D1E7D0
:10078000C16841F02001C16010BD000010B586B005
:100790000E4C00212046FFF745FF48B101AA002179
:1007A0002046FFF7B1FF9DF80F40AA2C03D00AE0C6
:1007B000002006B010BD214605A0FFF70BFD06483E
:1007C0000168C94301602046F3E70000006400406F
:1007D00025640D0A000000008401214270472DE9C4
:1007E000F0410022CC7804F00F03E40601D58C78A8
:1007F00023430C784FF00F0714F0FF0F4FF0010C5C
:100800001CD005680CFA02F40E882640A64211D1CD
:10081000960007FA06F825EA080503FA06F848EAFA
:100820000505CE78282E02D0482E02D002E0446181
:1008300000E00461521C082AE4D305600A88FF2AFC
:100840001ED94568002202F108060CFA06F40E884B
:100850002640A64210D1960007FA06F825EA0805B8
:1008600003FA06F848EA0505CE78282E00D144613F
:10087000CE78482E00D10461521C082AE3D345608B
:10088000BDE8F0814161704701617047FEE70000FB
:1008900008B50121042000F073F848208DF803000A
:1008A0000320ADF800008DF8020069460148FFF70B
:1008B00096FF08BD0008014002210148FFF7E2BF92
:1008C0000008014038B50121042000F059F810203B
:1008D0008DF803000220ADF8000003208DF802001F
:1008E000044C69462046FFF77AFF02212046FFF7B5
:1008F000CBFF38BD00080140FEE7704770B50F23FD
:10090000C27801260178002A1ED0144A126802F427
:10091000E062C2F5E062120AC2F10404D3404578F5
:10092000A54082781A402A43120101F1E02181F8A2
:100930000024007800F01F018E404009800000F183
:10094000E020C0F8006170BD01F01F00864048093A
:10095000800000F1E020C0F8806170BD0CED00E087
:1009600070470000054A002903D0D1690143D161D5
:100970007047D1698143D161704700000010024087
:10098000054A002903D0916901439161704791693B
:1009900081439161704700000010024010B5264A63
:1009A000516801F00C01254B002927D0042927D0DC
:1009B000082927D00360516801F0F0010909204B94
:1009C0005C5C0168E1404160546804F4E064240A1E
:1009D0001C5D21FA04F48460546804F46054E40A51
:1009E0001B5DD940C160526802F44042920B144B27
:1009F0001B1F9A5CB1FBF2F1016110BD0360DAE7E5
:100A00000360D8E7516801F47011536803F4803330
:100A1000022404EB914133B153689B0307D5094B82
:100A200059430160C7E7074B59430160C3E7034BD4
:100A300059430160BFE700000010024000127A0035
:100A40002400002000093D00704700F001B80000BC
:100A50000CB50022019200922748016841F48031D0
:100A600001604FF4A063016801F400310091019925
:100A7000491C0191009911B901999942F3D101687A
:100A8000890302D50121009100E00092009901291B
:100A900030D11A490A6842F010020A600A6822F04E
:100AA00003020A600A6842F002020A60416841607B
:100AB00041684160416841F480614160416821F4CE
:100AC0007C114160416841F4E8114160016841F0E6
:100AD0008071016001688901FCD5416821F0030142
:100AE0004160416841F0020141604168C1F3810108
:100AF0000229FAD10CBD0000001002400020024083
:100B00004FF0E021042804D0086920F004000861B7
:100B10007047086940F004000861704770470000A2
:100B200010B50F48016841F00101016041680D4AAC
:100B30001140416001680C4A11400160016821F4D4
:100B400080210160416821F4FE0141604FF41F01E2
:100B50008160FFF77AFF05494FF00060086010BD23
:100B6000001002400000FFF8FFFFF6FE08ED00E075
:100B700070B5164C40F22551204600F039F8002897
:100B80000ED0204600F0CEF8C1B2114A10880304FE
:100B900006D444044FF0000307D50A2901D013807E
:100BA00070BD40F40040108070BD0D290AD0094D81
:100BB000C0F30D042955401C80B21080C728F3D91A
:100BC000138070BD40F48040108070BD003801403B
:100BD0001800002034000020002904D0818941F44D
:100BE000005181817047818921F4005181817047D2
:100BF00070B5002440F66A12C1F3421301F01F05DC
:100C0000012606FA05F2012B0CD0022B0DD0838AA7
:100C10001340090A8E40008830400BB100B1012416
:100C2000204670BD83891340F3E7038A1340F0E741
:100C300010B540F66A13C1F3421301F01F040121FD
:100C4000A140012B07D0022B07D014303AB1026823
:100C50000A43026010BD0C30F8E71030F6E7026876
:100C60008A43026010BD000030B585B004460D46D1
:100C7000208A4CF6FF710840E98801432182A0894F
:100C80004EF6F3110840A9882A8911436A89024364
:100C90001143A181A08A4FF6FF410840A989014371
:100CA000A1826846FFF77AFE1D48844201D103986D
:100CB00000E00298A189090408D500EBC00101EB0E
:100CC000001029684900B0FBF1F007E000EBC0011B
:100CD00001EB001029688900B0FBF1F06422B0FB41
:100CE000F2F109010B096FF018056B4300EB83006B
:100CF000A3891D044FF0320307D503EBC000B0FBFE
:100D0000F2F000F00700084306E003EB0010B0FB30
:100D1000F2F000F00F000843208105B030BD000064
:100D2000003801408088C0F308007047FEE7704734
:100D300010B56FF00400FFF7E3FE084808490068AB
:100D4000B0FBF1F00749088000EB4002C2EBC01095
:100D50004FF6FF7202EAC000488010BD000000207C
:100D600000127A001400002004490A885206FCD5BB
:100D7000024AC1B2121D11807047000000380140C4
:100D800008B5FFF7D5FFFFF79DFDFFF781FD4FF495
:100D9000E13000F00DF80020042308220721009024
:100DA000FFF74EFCFFF788FDFFF7F0FCFCE70000C3
:100DB00070B586B00546012144F20400FFF7E0FD5E
:100DC0004FF40070ADF8140003248DF8164018217C
:100DD0008DF817101C4E05A93046FFF700FD3115A0
:100DE000ADF8141004218DF8171005A93046FFF74F
:100DF000F6FC25208DF800008DF801408DF80240AA
:100E000001208DF803006846FFF778FD019500206A
:100E1000ADF80800ADF80A00ADF80C00ADF8100010
:100E20000C20ADF80E00094C01A92046FFF71CFF6D
:100E3000012240F225512046FFF7FAFE012120460B
:100E4000FFF7CAFE06B070BD00080140003801403F
:100E5000700E000800000020340000002801000887
:100E6000A40E0008340000202C07000044010008F4
:100E700000A24A0400000000000000000102030478
:100E80000607080900000000000000000000000044
:100E9000020406080000000001020304010203042A
:040EA0000607080930
:04000005080001915D
:00000001FF
