:020000040800F2
:10000000D80700208901000873100008D1080008F3
:1000100071100008D5020008091700080000000050
:10002000000000000000000000000000C1110008F6
:100030000B05000800000000D9100008F1130008AB
:1000400019170008A3010008A3010008A301000874
:10005000A3010008A30100083D0500088105000870
:10006000B9050008F1050008A3010008A301000874
:10007000A3010008A3010008A3010008A3010008D0
:10008000A3010008A3010008A3010008A3010008C0
:10009000A3010008A3010008A3010008A3010008B0
:1000A000A3010008A3010008A3010008A3010008A0
:1000B00045140008D1140008A3010008A30100089A
:1000C000A3010008A3010008A3010008A301000880
:1000D000A301000839150008A3010008A3010008C6
:1000E000A3010008A3010008A301000800F002F822
:1000F00000F03AF80AA090E8000C82448344AAF188
:100100000107DA4501D100F02FF8AFF2090EBAE885
:100110000F0013F0010F18BFFB1A43F0010318473B
:100120005440000074400000103A24BF78C878C1E1
:10013000FAD8520724BF30C830C144BF04680C60ED
:10014000704700000023002400250026103A28BF35
:1001500078C1FBD8520728BF30C148BF0B60704739
:100160001FB51FBD10B510BD00F06EF81146FFF7AA
:10017000F7FF01F033FB00F0A0F803B4FFF7F2FF44
:1001800003BC01F0E7FA000009488047094800472E
:10019000FEE7FEE7FEE7FEE7FEE7FEE7FEE7FEE737
:1001A000FEE7FEE704480549054A064B7047000094
:1001B000F5130008ED000008D8010020D807002042
:1001C000D8030020D8030020704700000FB4044972
:1001D00010B503AA029800F009F810BC5DF814FBF2
:1001E000300000207047704770477047074B70B56C
:1001F0000D467B4400F011F80446284600F020F834
:1002000010B14FF0FF3070BD204670BDCF1500001B
:1002100001694A1C02610878704700B58FB0CDE9CA
:1002200001310021059105497944CDE903101146BA
:10023000684600F02EF80FB000BD0000E5FFFFFF9C
:10024000007B00F080007047754600F03FF8AE4636
:1002500005006946534620F00700854618B020B5D2
:10026000FFF7A0FFBDE820404FF000064FF0000769
:100270004FF000084FF0000B21F00701AC46ACE84E
:10028000C009ACE8C009ACE8C009ACE8C0098D46BB
:1002900070472DE9F04106460024D6E90170F56863
:1002A0008046304603E04146B847641C3046A847C4
:1002B0000028F8D12046BDE8F08110B50446AFF320
:1002C00000802046BDE81040FFF757BF0048704748
:1002D00074010020FEE700002DE9F04381468846C6
:1002E00015461E4600240B4F04EB041117F81100AD
:1002F000A84209D107EB41014878B04204D1891CDA
:100300004246484600F02AF8641CA4B2382CEBD3CD
:10031000BDE8F083B93600082DE9F04381468846F0
:1003200015461E4600240C4F04EB840000EB4410DD
:1003300017F81010A94209D107EB40014878B042E4
:1003400004D1891C4246484600F008F8641CA4B257
:10035000092CE9D3BDE8F0838F3E000810B50023D7
:1003600004E011F8014B00F8014B5B1C9342F8D3F9
:1003700010BD0000C10002D5024908607047024963
:10038000486070470404024000000240002904D085
:10039000016841F001010160704701684FF6FE728B
:1003A000114001607047000001684FF6FE72114075
:1003B00001600021016041608160C1603649364AB8
:1003C0000839904204D1486840F00F0048607047F7
:1003D000314A1432904204D1486840F0F00048603D
:1003E00070472D4A2832904204D1486840F470602A
:1003F00048607047284A3C32904204D1486840F433
:10040000704048607047244A5032904204D1486896
:1004100040F47020486070471F4A6432904204D113
:10042000486840F47000486070471B4A7832904238
:1004300004D1486840F0706048607047174A111F47
:10044000904204D1086840F00F0008607047134ADA
:100450001432904204D1086840F0F0000860704700
:100460000E4A2832904204D1086840F47060086057
:1004700070470A4A3C32904204D1086840F4704008
:1004800008607047054A50329042FAD1086840F43B
:100490007020086070470000080002400804024015
:1004A000406880B27047000002460020D10002D5AB
:1004B0000449096801E004490968114200D001209B
:1004C00070470000000402400000024030B502689E
:1004D00047F6F0739A430C6A8B682343D1E90445CD
:1004E0002C4323438C692343CC6923434C6A234325
:1004F0008C6A234313430360CA6842600A688260BF
:100500004968C16030BD4160704770472DE9FF41C7
:1005100014461D46084B1A88121A92B25B885B1A61
:100520009BB200261027CDE90057CDE9024600F026
:10053000F7FEBDE8FF8100006401002010B50A202D
:1005400001F026F901210B4800F08FF9012809D1AB
:100550000949D1F8B40150B10020C1F8B4010749EC
:1005600000200870BDE81040012000F0D7B801203D
:10057000F3E70000000801400000224220000020B4
:1005800010B50A2001F004F90221094800F06DF9C4
:1005900030B90849D1F8B40138B10020C1F8B4012C
:1005A000BDE81040022000F0B9B80120F6E70000D5
:1005B000000801400000224210B50A2001F0E8F8CE
:1005C0000421094800F051F930B90849D1F8B401C3
:1005D00038B10020C1F8B401BDE81040042000F09B
:1005E0009DB80120F6E7000000080140000022420B
:1005F00010B50A2001F0CCF80821094800F035F9BF
:1006000030B90849D1F8B40138B10020C1F8B401BB
:10061000BDE81040082000F081B80120F6E7000096
:10062000000801400000224208B50121042000F02A
:1006300063FD0E20ADF8000048208DF803006946E8
:10064000014800F0BFF808BD00080140FEB500F009
:1006500075F9FFF7E9FF0121084600F04DFD012182
:10066000002000F09BF80225019500278DF8087006
:100670000C208DF8090001248DF80A4001A800F033
:1006800053F80221002000F089F80420019001A80D
:1006900000F04AF80321002000F080F808260196B7
:1006A00001A800F041F80021084600F077F8019415
:1006B0008DF8096001A800F037F806208DF80000D9
:1006C0008DF8015003208DF802008DF80340684634
:1006D00000F0D0FC07208DF800008DF801508DF857
:1006E00002508DF80340684600F0C4FC8DF80060AD
:1006F0008DF801508DF802408DF80340684600F0F7
:10070000B9FC09208DF800008DF801508DF80270B9
:100710008DF80340684600F0ADFCFEBD014908605D
:10072000704700001404014030B51B4A837901680A
:10073000002B2AD013688B431360111D0B680468CB
:10074000A3430B60017911440B68046823430B60D9
:10075000114C08342168036899432160231D1968EE
:100760000568A94319604179102905D011440A6828
:10077000006802430A6030BD2168026811432160AD
:10078000196800680143196030BD0079104402689F
:100790008A43026030BD00000004014010B58A07A2
:1007A000120F0F23934021F00304054921448C6864
:1007B0009C438C608B68904003438B6010BD0000AD
:1007C000000001402DE9F0410022CC7804F00F0335
:1007D000E40601D58C7823430C784FF00F0714F012
:1007E000FF0F4FF0010C1CD005680CFA02F40E88C4
:1007F0002640A64211D1960007FA06F825EA080518
:1008000003FA06F848EA0505CE78282E02D0482ECD
:1008100002D002E0446100E00461521C082AE4D3E3
:1008200005600A88FF2A1ED94568002202F10806E1
:100830000CFA06F40E882640A64210D1960007FA5C
:1008400006F825EA080503FA06F848EA0505CE7811
:10085000282E00D14461CE78482E00D10461521C6C
:10086000082AE3D34560BDE8F08102460020926883
:100870000A4200D001207047416170470161704712
:1008800030B405460846144619462A786B78812A02
:100890000FD3402B0DD3FF2B0BD0FF2A09D00C29EF
:1008A00010D0102910D018290CD1214630BCFFF7E8
:1008B00033BD0021002203E000F8012B491CC9B21E
:1008C000A142F9D330BC7047214630BCFFF704BDCC
:1008D000FEE700002DE9F04705460024DFF85880C8
:1008E0004FF400494FF400574FF4804A280604D5CE
:1008F00049464046FFF7C2FF03E049464046FFF73E
:10090000BBFF39464046FFF7B7FF6806060E514663
:100910004046FFF7AAFF40EA060539464046FFF782
:10092000ADFF641CE4B2082CE0D339464046FFF723
:10093000A5FF2846BDE8F087000C014008B501215D
:10094000042000F0D9FB0120ADF800008DF8020072
:1009500028208DF8030069460148FFF733FF08BDE2
:10096000000801402DE9F041074600240C4E00210B
:1009700008467388328800F007FA35887088454346
:100980000021084600F0D4F900F008FB03E03846E7
:1009900000F0B8FA641CAC42F9D3BDE8F081000065
:1009A000640100202DE9F041002680212C222A2319
:1009B0002A4D2B4C4FF02B0C00281AD0012825D0A3
:1009C000012702282FD003283AD0A6712180618008
:1009D00022816381A4F80CC0C821362000F0E4FA1B
:1009E0002E7063882288BDE8F0410021084600F09F
:1009F000CBB9A6712180618022816381A4F80CC0EB
:100A0000C821362000F0D0FA2E70EAE7A6712180C6
:100A1000618022816381A4F80CC04821362000F057
:100A2000C3FA2E70DDE7A771218061802281638186
:100A3000A4F80CC0A821362000F0B6FA2F70D0E739
:100A4000A7712180618022816381A4F80CC0682194
:100A5000362000F0A9FA2F70C3E7000048000020FC
:100A60006401002010B5144600F062F904480089C2
:100A700000F07CFA2046BDE8104000F043BA0000C8
:100A800064010020F8B501210C2000F035FB4BF289
:100A90000200ADF8000003248DF8024010268DF806
:100AA0000360114F69463846FFF78CFE3501ADF8FB
:100AB00000508DF802408DF803600C4E69463046B8
:100AC000FFF780FEAA01ADF800208DF80240482013
:100AD0008DF8030069463846FFF774FE2946304614
:100AE000FFF7CCFEF8BD0000000C014000080140FB
:100AF00010B5FFF7C7FF00F0FBF9112000F036FA40
:100B0000782000F045FEB12000F030FA012000F01E
:100B100015FA2C2000F012FA2D2000F00FFAB22066
:100B200000F024FA012000F009FA2C2000F006FA67
:100B30002D2000F003FAB32000F018FA012000F095
:100B4000FDF92C2000F0FAF92D2000F0F7F9012032
:100B500000F0F4F92C2000F0F1F92D2000F0EEF96E
:100B6000B42000F003FA072000F0E8F9C02000F0FC
:100B7000FDF9A22000F0E2F9022000F0DFF9842064
:100B800000F0DCF9C12000F0F1F9C52000F0D6F941
:100B9000C22000F0EBF90A2000F0D0F9002000F0AC
:100BA000CDF9C32000F0E2F98A2000F0C7F92A202D
:100BB00000F0C4F9C42000F0D9F98A2000F0BEF991
:100BC000EE2000F0BBF9C52000F0D0F90E2000F0B7
:100BD000B5F9362000F0CAF9C82000F0AFF9E020DE
:100BE00000F0C4F90F2000F0A9F91A2000F0A6F9CE
:100BF0000F2000F0A3F9182000F0A0F92F2000F03A
:100C00009DF9282000F09AF9202000F097F9222081
:100C100000F094F91F2000F091F91B2000F08EF9EC
:100C2000232000F08BF9372000F088F9002000F035
:100C300085F9072000F082F9022000F07FF91020EA
:100C400000F07CF9E12000F091F90F2000F076F936
:100C50001B2000F073F90F2000F070F9172000F04E
:100C60006DF9332000F06AF92C2000F067F9292093
:100C700000F064F92E2000F061F9302000F05EF9F8
:100C8000302000F05BF9392000F058F93F2000F0E7
:100C900055F9002000F052F9072000F04FF9032029
:100CA00000F04CF9102000F049F92A2000F05EF91C
:100CB000002000F043F9002000F040F9002000F08F
:100CC0003DF97F2000F03AF92B2000F04FF9002089
:100CD00000F034F9002000F031F9002000F02EF986
:100CE0009F2000F02BF9F02000F040F9012000F0E7
:100CF00025F9F62000F03AF9002000F01FF93A201B
:100D000000F034F9052000F019F9292000F02EF93F
:100D10000020FFF747FE4FF480710448FFF7AEFD57
:100D2000BDE810404FF6FF70FFF71CBE0008014001
:100D300070B506460D461248124C017860890029AC
:100D40000ED000F013F9F61CB0B200F0DBF8A08969
:100D500000F00CF9AD1CA8B2BDE8704000F0D2B8AC
:100D600000F004F9B61CB0B200F0CCF8A08900F095
:100D7000FDF8ED1CA8B2BDE8704000F0C3B800005B
:100D800048000020640100202DE9F04104460D4692
:100D9000A018401E86B2E818401E87B21B48DFF834
:100DA00070800178B8F80A00002917D000F0DEF84A
:100DB000E41CA0B200F0A6F8F61CB0B200F0A2F855
:100DC000B8F80C0000F0D2F8AD1CA8B200F09AF808
:100DD000BF1CB8B2BDE8F04100F094B800F0C6F80E
:100DE000A41CA0B200F08EF8B61CB0B200F08AF8D5
:100DF000B8F80C0000F0BAF8ED1CA8B200F082F8C8
:100E0000FF1CB8B2BDE8F04100F07CB848000020FB
:100E1000640100202DE9F84F82460C461F46A34688
:100E2000780701D0012000E0002000EBD70079080E
:100E30004843C0B20090203A02F0FF09002648E083
:100E40000C2F13D0102F18D0182F45D1234909EBA0
:100E5000C90001EB8000855D4FF00008280611D520
:100E6000214650460A9AFFF7FDFD13E01C4909EBA5
:100E7000490001EB8000855DEEE71A4800EB0910A0
:100E8000855DE9E70B9828B91748214682885046C6
:100E9000FFF7E8FD6806050E641CA4B213484088FD
:100EA000A04219D9A4EB0B00B84209D15C460AF163
:100EB000010A1FFA8AFA0D48008850450CD906E04D
:100EC00008F1010808F0FF08B8F1080FC6D3761C36
:100ED000F6B200988642B3D3BDE8F88F5D290008CA
:100EE000F91E00086D23000848000020640100205E
:100EF00010B5012000F03AF8BDE81040642000F081
:100F000047BC000070B504460B4E4FF4805529468F
:100F10003046FFF7B1FC02213046FFF7AFFC200A54
:100F2000FFF7D8FCE0B2FFF7D5FC29463046BDE814
:100F30007040FFF7A3BC0000000C014070B50646EE
:100F4000094D4FF4805421462846FFF795FC0221B5
:100F50002846FFF793FC3046FFF7BCFC21462846A5
:100F6000BDE87040FFF78ABC000C014070B5044634
:100F7000094E4FF4805529463046FFF77DFC02218B
:100F80003046FFF779FCE0B2FFF7A4FC2946304673
:100F9000BDE87040FFF772BC000C014001480089B9
:100FA000FFF7E4BF6401002010B50C46FFF7DEFF39
:100FB000E0B2BDE81040FFF7C1BF000038B5012125
:100FC000102000F099F84FF40054ADF800401020C4
:100FD0008DF8030003208DF80200054D6946284670
:100FE000FFF7F0FB21462846FFF748FC38BD00001C
:100FF000001001402DE9F04180460E4617461D467F
:101000000121084600F06AF84046FFF7CDF90C4888
:1010100005800C4C266067601020A060E560002110
:10102000216180206061A161E16121624001606213
:10103000A16221464046BDE8F041FFF747BA0000F3
:10104000260000207000002010B504460021204634
:10105000FFF79CF9054920460988FFF754FA204616
:10106000BDE810400121FFF791B9000026000020E3
:10107000FEE7704770B50F23C27801260178002A79
:101080001ED0144A126802F4E062C2F5E062120A4D
:10109000C2F10404D3404578A54082781A402A431F
:1010A000120101F1E02181F80024007800F01F0115
:1010B0008E404009800000F1E020C0F8006170BD62
:1010C00001F01F0086404809800000F1E020C0F8D0
:1010D000806170BD0CED00E070470000054A0029FA
:1010E00003D0516901435161704751698143516196
:1010F0007047000000100240054A002903D09169A2
:10110000014391617047916981439161704700008B
:101110000010024010B5264A516801F00C01254B21
:10112000002927D0042927D0082927D00360516837
:1011300001F0F0010909204B5C5C0168E14041606D
:10114000546804F4E064240A1C5D21FA04F4846009
:10115000546804F46054E40A1B5DD940C1605268CD
:1011600002F44042920B144B1B1F9A5CB1FBF2F14C
:10117000016110BD0360DAE70360D8E7516801F44C
:101180007011536803F48033022404EB914133B1AE
:1011900053689B0307D5094B59430160C7E7074BC9
:1011A00059430160C3E7034B59430160BFE70000A7
:1011B0000010024000127A003800002000093D00B3
:1011C000704700F001B800000CB5002201920092B7
:1011D0002748016841F4803101604FF4A063016841
:1011E00001F4003100910199491C0191009911B954
:1011F00001999942F3D10168890302D50121009137
:1012000000E000920099012930D11A490A6842F0A1
:1012100010020A600A6822F003020A600A6842F0BB
:1012200002020A604168416041684160416841F4DE
:1012300080614160416821F47C114160416841F462
:10124000E8114160016841F0807101600168890125
:10125000FCD5416821F003014160416841F0020181
:1012600041604168C1F381010229FAD10CBD00003F
:1012700000100240002002402DE9F04F93B00446D8
:101280008A4615461F46A146780701D0012000E096
:10129000002000EBD7007843C0B200900C2F03D0A1
:1012A000102F01D0182F36D13B4601A92846009AAD
:1012B000FFF7E6FA4FF000082AE001A810F80860EE
:1012C0000025DFF858B0300605D5514620461C9A57
:1012D000FFF7C8FB07E01D9828B9BBF8002051466E
:1012E0002046FFF7BFFB7006060E641CA4B2A4EBF9
:1012F0000900B84204D14C460AF1010A1FFA8AFAE1
:101300006D1CEDB2082DDED308F1010808F0FF08CE
:1013100000988045D1D313B0BDE8F08F4C00002079
:101320002DE9FF4F83B00446DDE910750E46934664
:10133000A046B2464FF000091EE0B9F1000F21D0DF
:101340004FF0000908EB0B00401BA04202DA7019B5
:1013500086B2444606985044401BB0420FDBDDE99C
:101360001201CDE900012B463A4631462046FFF7EF
:1013700083FFBF1C601984B23A78002ADDD107B020
:10138000BDE8F08F802A02D94FF00109F4E708EB9D
:101390000B00A0EB5500A04202DA701986B2444659
:1013A00006985044401BB042E9DB0D2A0DD0DDE920
:1013B0001201CDE900012B4631462046FFF72AFDF8
:1013C0007F1C04EB550084B2D6E7701986B2444600
:1013D0007F1CF5E74FF0E021042804D0086920F0D5
:1013E000040008617047086940F004000861704714
:1013F0007047000010B50F48016841F0010101601D
:1014000041680D4A1140416001680C4A1140016079
:10141000016821F480210160416821F4FE014160EE
:101420004FF41F018160FFF7CCFE05494FF00060CB
:10143000086010BD001002400000FFF8FFFFF6FE3C
:1014400008ED00E070B5214C4FF080452078000693
:1014500036D40121284600F05AF838B121784806E0
:1014600004D5C843800615D0491C217002212846A6
:1014700000F04DF820B32178480612D541F08000E5
:101480002070284600F041F860800021284600F0D6
:101490004AF815E041F0800020704FF6FF70608040
:1014A000E4E70020207060800021284600F041F829
:1014B000217841F0400121700221284600F033F8E4
:1014C0002846BDE87040032100F01CB8220000202F
:1014D00010B50A4C0121204600F019F800280AD066
:1014E0000121204600F00EF80549D1F8B40118B1E9
:1014F0000020C1F8B40110BD0120FAE7000400404B
:1015000000002242C94301827047808E7047024624
:101510000020138A0B4092890A40002B02D0002A37
:1015200000D001207047028C22F002020A4302849C
:10153000704781847047000070B5164C40F2255109
:10154000204600F043F800280ED0204600F0D8F8DE
:10155000C1B2114A1088030406D444044FF00003BA
:1015600007D50A2901D0138070BD40F400401080D7
:1015700070BD0D290AD0094DC0F30D042955401C3A
:1015800080B21080C728F3D9138070BD40F480402A
:10159000108070BD003801402C0000209C0000200D
:1015A000002904D0818941F40051818170478189EB
:1015B00021F4005181817047002A03D0828A0A43B6
:1015C00082827047828A8A438282704770B5002483
:1015D00040F66A12C1F3421301F01F05012606FA14
:1015E00005F2012B0CD0022B0DD0838A1340090A7F
:1015F0008E40008830400BB100B10124204670BD00
:1016000083891340F3E7038A1340F0E710B540F6EF
:101610006A13C1F3421301F01F040121A140012B01
:1016200007D0022B07D014303AB102680A43026097
:1016300010BD0C30F8E71030F6E702688A4302600C
:1016400010BD000030B585B004460D46208A4CF62A
:10165000FF710840E98801432182A0894EF6F31109
:101660000840A9882A8911436A8902431143A1814C
:10167000A08A4FF6FF410840A9890143A18268462C
:10168000FFF748FD1D48844201D1039800E002980D
:10169000A189090408D500EBC00101EB00102968FD
:1016A0004900B0FBF1F007E000EBC00101EB0010D6
:1016B00029688900B0FBF1F06422B0FBF2F1090166
:1016C0000B096FF018056B4300EB8300A3891D0421
:1016D0004FF0320307D503EBC000B0FBF2F000F08F
:1016E0000700084306E003EB0010B0FBF2F000F047
:1016F0000F000843208105B030BD000000380140D4
:101700008088C0F308007047FEE700000149002010
:1017100008607047082C004010B50848007800F0B9
:1017200011F8FFF7F3FF0649D1F8B40118B1002012
:10173000C1F8B40110BD0120FAE70000210000202B
:1017400000002242024900F07F000860704700005C
:10175000002C00407047000010B56FF00400FFF748
:1017600039FE084808490068B0FBF1F007490880D5
:1017700000EB4002C2EBC0104FF6FF7202EAC0005D
:10178000488010BD0C00002000127A0028000020C4
:101790000B49498848434FF0E021486100238B61A1
:1017A000086940F0010008610869C20701D0C00360
:1017B000FAD5086920F0010008618B6170470000CC
:1017C0002800002004490A885206FCD5024AC1B20A
:1017D000121D11807047000000380140FFF7BCFF68
:1017E000FFF7ECFBFEF732FF4FF4E13000F0EEF8CC
:1017F000514E20234E4A4F493046FFF7FBFBFFF77F
:1018000077F94FF6FF70FFF7ADF800214BA34FF4C7
:1018100078420846FEF77AFE4CA31F2210210020D2
:10182000FEF774FE4EA31F2220210020FEF76EFE5D
:101830004F4C1F23E3800022A2803D4901252088D0
:1018400098420BD3608820B1A7880A20C85522800F
:101850000DE0A7880D20C855658008E06280454FDF
:10186000B4F804C03F5C01F80C70401C2080A088D4
:10187000401C80B2A0802028E1D34FF40057DFF84D
:10188000F8B04DE08BF800503CA31F22402100200F
:10189000FEF73CFE3EA31F2250210020FEF736FE3D
:1018A0003DA0FEF793FC234801228021001FFFF793
:1018B00083FE3046FFF7C8FBDFF8ECA06FF00408AA
:1018C0004FF07E593846FEF7EFFD78B13846FEF707
:1018D00051FD36A31F2240210020FEF717FE38A33A
:1018E0001F2250210020FEF711FE0FE03046FEF7C8
:1018F000D7FD00F023F9414600F0B1FA494600F067
:10190000FDF9514600F02EF9A060DBE72E49D1F831
:10191000B40150B10020C1F8B401FA20FFF738FF3C
:101920009BF800000028F1D1ACE70120F3E70000AC
:101930005000002004380140440002402020444D63
:101940004120544553542020202000002020C7B6B9
:10195000C8EBCABDBFAAB7A2CDF820202000000066
:101960006D63756465762E74616F62616F2E000021
:1019700000000020DA1E000820000020537461726D
:1019800074205472616E73696D69742E2E2E2E0050
:1019900020202025000000000D0A444D4120444134
:1019A00054413A0D0A0000000000C8425472616EB2
:1019B00073696D69742046696E6973686564210096
:1019C00020203130302500000000224270B586B062
:1019D0000546012144F20400FFF78EFB4FF400702E
:1019E000ADF8140003248DF8164018218DF8171057
:1019F0001C4E05A93046FEF7E5FE3115ADF8141072
:101A000004218DF8171005A93046FEF7DBFE2520CE
:101A10008DF800008DF801408DF8024001208DF80E
:101A200003006846FFF726FB01950020ADF808008B
:101A3000ADF80A00ADF80C00ADF810000C20ADF8C0
:101A40000E00094C01A92046FFF7FCFD012240F2DF
:101A500025512046FFF7DAFD01212046FFF7A0FDC2
:101A600006B070BD000801400038014090EA010F47
:101A700048BF81F0004100F15281421A3CBF801AF8
:101A800089184FEAD0524FF07F4C1CEA410FA2EB6D
:101A9000D15318BF9CEA026F00F03B804FF0004C1E
:101AA0004CEA00204CEA012121FA03FC10EB0C0C5B
:101AB0001ED202F1FF325FEA1C2040EBC25038BF59
:101AC00070471CF07F0F4FEA400C18BFBCF17F4FEE
:101AD00038BF7047C3F12003994008BF20F00100D0
:101AE000BCF17F4F38BF7047A0F1C04000F001B992
:101AF0004FEA3C00000A40EBC25028BF1CF0FF0F29
:101B00004FEA400CE6D018BFBCF17F4F38BF70479A
:101B1000EAE79CEA026F05D010EA5C0F08BF00F00C
:101B20000040704710B500F09EF800BF64FBBE3E59
:101B3000014800F062B900BF0000C07FB0FA80F336
:101B400010FA03F2C3F19D030AD0D90501EB12206C
:101B5000530638BF704700F1010008BF20F00100B4
:101B6000704700004FF47F0C1CEAD0121EBF1CEA25
:101B7000D11392EA0C0F93EA0C0F00F0478090EA21
:101B8000010F48BF42F480724FF0004C4CEA002035
:101B90004CEA012102EB0302A0FB0113A2F50002B3
:101BA000002918BF43F001035B0028BF4FEA33034D
:101BB00042EB22425FEA132C4CEBC2502EBFBCEB2F
:101BC000436FB2F57C0F70474FEA036CBCF1004FD6
:101BD00008BF20F00100B2F57C0F38BF70470BD56D
:101BE00082F0FF0212F5803FC8BF704700F1C0408D
:101BF000D8BF00F00040704700F5000C5FEA4C0CC5
:101C000048BF7047B0F1C04000F073B890EA010FD0
:101C10000CEAD11348BF42F48072624538BF634575
:101C200004D280EA010000F00040704710B500F0D7
:101C30001AF800BF8900013E00F007B800F009B8AB
:101C40005FEA410C5FEA1C6C08D080EA010000F0FA
:101C500050B85FEA400C5FEA1C6CF6D14FF00040D0
:101C6000A0F5800070470EF1020E2EF0030E5EF814
:101C7000044B244204D44FEA4102B2F17F4F11D801
:101C80004FEA4003B3F17F4F0CD80ED14FEAD07C1E
:101C9000B2F17F4F0CEB4C0C0CF1020C08BF4CEB7B
:101CA000D17C04E04FF0080C01E04FEAD17C0CEB52
:101CB0004C0324FA03F404F00704B4F1040C06D234
:101CC0000EEB840CBDE810404CF0010C6047DFE8DF
:101CD0000CF0070802024FF00040A0F5800010BD94
:101CE0000846420018BFD2F1807288BF00F0004061
:101CF00010BDFF2141EAD050C005704780F0004080
:101D000090EA010F7FF5B9AE81F0004100F007B80D
:101D100090EA010F48BF81F000413FF5AEAE421A94
:101D200004D882F00042A0EB020011444FEAD052E6
:101D30004FF07F4C1CEA410FA2EBD15318BF9CEA35
:101D4000026F4AD04FF0004C4CEA00204CEA0121CF
:101D500021FA03FCB0EB0C0C0FD412F0FE0F36D0BE
:101D60005FEA4C001DD5001240EBC25038BF7047EF
:101D70001CF03F0F18BF70470BE0A2F101025FEAB1
:101D80001C2040EBC25038BF70471CF07F0F18BFBB
:101D90007047C3F12003994014BF401E20F001009A
:101DA000704780084FEA122308BF7047B0FA80FCE2
:101DB000A2EB0C02CCF1280C60FA0CF093EA122F83
:101DC00004BF00EBC25070474FEAC3707047130A5C
:101DD0005FEADC1008BF7047F6E79CEA026F04D0A8
:101DE00010EA5C0F08BF0020704710B5FFF73BFFFB
:101DF00040DFF63E81F0004070470CF00F03092BE6
:101E000008BF082000F051800A2B0BD0082B18BF08
:101E1000704708BF1CF0400F0AD04FF000004FF091
:101E2000000170471CF0400F18BF4FF00040704792
:101E30001CF0100F08D020F0704300F07F4242EAFF
:101E4000D3014FEA4370704700F0604021F07F42B9
:101E500042EA000201F07F4040EA727070474FF0A2
:101E6000FF0212EAD0521CBF92F0FF038B42C2BFA6
:101E7000D14200EBC1507047002A0AD0002B0BD092
:101E8000002900F00040A4BF40F0FE4040F40000F4
:101E9000704700F00040704743024FF00B0C18BF32
:101EA0004CF0806C7FF444AE70471CF4801F11D05E
:101EB0001CF4E02F03D06FEACC31490070474FF09B
:101EC0004050EFF3008222F0704242EA000282F3B7
:101ED000008870474FF0000070476D637564657649
:101EE0002053544D33324631303320444D4120B4D9
:101EF000AEBFDA31CAB5D1E9000000000000000031
:101F00000000000000000000003F40000000000052
:101F10000000003000400030004000000009000BCD
:101F2000C03D000BC03D00090018C024407FE022E6
:101F30004031800000180024C01B000D8032400199
:101F40008003801C4027401C800740004010006038
:101F50000000000000000000000000000000001F62
:101F600080204040200000402020401F80000000D2
:101F700000090006001F800600090000000400049C
:101F8000003F80040004000000001000600000001A
:101F9000000000000004000400040004000400002D
:101FA00000000000400000000000000000002001D0
:101FB000C006003800400000001F80204020402064
:101FC000401F800000000010403FC00040000000A3
:101FD0000018C021402240244018400000108020FA
:101FE00040244024401B80000002000D0011003FEF
:101FF000C0014000003C8024402440244023800055
:10200000001F802440244034400380000030002022
:102010000027C03800200000001B802440244024FA
:10202000401B8000001C0022C0224022401F800074
:102030000000000000084000000000000000000058
:10204000000460000000000000000004000A00110D
:102050000020804040090009000900090009000033
:102060000000004040208011000A000400180020F9
:102070000023402400180000001F80204027402932
:10208000401F400000004007C039000F0001C000A1
:102090004020403FC0244024401B8000001F80207F
:1020A00040204020403080000020403FC0204020A1
:1020B000401F80000020403FC024402E4030C00020
:1020C0000020403FC024402E00300000000F0010D0
:1020D00080204022403380020020403FC0040004A2
:1020E000003FC02040204020403FC0204020400012
:1020F000000060202020203FC02000200020403F22
:10210000C024400B0030C0204020403FC020400091
:1021100040004000C03FC03C0003C03C003FC00046
:102120000020403FC00C4023003FC020001F802003
:1021300040204020401F80000020403FC024402419
:1021400000180000001F802140214020E01FA00057
:102150000020403FC02440260019C0004018C02481
:10216000402440224031800000300020403FC02009
:10217000403000000020003F80004000403F8020B1
:102180000020003E0001C007003800200038000792
:10219000C03C0007C038000000204039C0060039AC
:1021A000C0204000002000384007C0384020000018
:1021B00000304021C02640384020C0000000000010
:1021C000007FE0402040200000000070000C000371
:1021D00080004000000000402040207FE000000020
:1021E000000000200040002000000000000010005F
:1021F000100010001000100010000000004000004F
:102200000000000000000002800540054003C000FF
:102210004020003FC0044004400380000000000351
:102220008004400440064000000000038004402475
:10223000403FC000400000038005400540034000CF
:1022400000000004401FC024402440200000000281
:10225000E0055005500650042020403FC0044004D3
:102260000003C000400000044027C0004000000000
:102270000000100010041027E00000000020403F84
:10228000C00140070004C00440204020403FC0007F
:10229000400040000007C0040007C0040003C00065
:1022A00000044007C00440040003C00040000003D5
:1022B000800440044003800000041007F004500430
:1022C0004003800000000003800440045007F00039
:1022D00010044007C0024004000400000000000693
:1022E000400540054004C00000000004001F8004B9
:1022F0004000400000040007800040044007C00088
:10230000400400070004C00180060004000600012C
:10231000C0070001C006000000044006C00100061E
:10232000C0044000000410071004E001800600040F
:10233000000000044005C00640044000000000000A
:102340000004007BE040200000000000000000FFCF
:10235000F000000000000040207BE00400000000CE
:1023600000400080004000200020004000000000ED
:10237000000000000000000000000000000000005D
:102380000000001FCC000C0000000000000000084E
:1023900000300060000800300060000000022003F0
:1023A000FC1E20022003FC1E200220000000000E64
:1023B0001811043FFF10840C78000000000F00107B
:1023C000840F3800C0077818840078000000780F68
:1023D0008410C411240E9800E400840008080068EA
:1023E000007000000000000000000000000000007D
:1023F00000000007E0181820044002000000004020
:10240000022004181807E00000000000000240024B
:102410004001800FF0018002400240000000800077
:102420008000800FF8008000800080000000010024
:102430000D000E0000000000000000000000000081
:10244000800080008000800080008000800000000C
:102450000C000C0000000000000000000000000064
:102460000600180060018006001800200000000728
:10247000F0080810041004080807F0000000000825
:102480000408041FFC000400040000000000000E0B
:102490000C10141024104411840E0C000000000CC9
:1024A0001810041104110412880C700000000000C0
:1024B000E00320042408241FFC0024000000001F67
:1024C0009810841104110410881070000000000797
:1024D000F008881104110418880070000000001C26
:1024E00000100010FC13001C001000000000000E83
:1024F0003811441084108411440E38000000000785
:1025000000088C10441044088807F0000000000008
:10251000000000030C030C0000000000000000009D
:1025200000000101060000000000000000000000A3
:10253000800140022004100808100400000220025C
:1025400020022002200220022002200000000010B1
:102550000408080410022001400080000000000E62
:10256000001200100C106C10800F00000003E00C33
:102570001813E4142417C4082807D000000004002E
:102580003C03C41C40074000E4001C000410041F6E
:10259000FC1104110411040E880070000003E00C0B
:1025A0001810041004100410081C10000010041F60
:1025B000FC100410041004080807F0000010041FA9
:1025C000FC1104110417C410040818000010041FA3
:1025D000FC1104110017C010000800000003E00CFB
:1025E000181004100410441C780040000010041F50
:1025F000FC10840080008010841FFC100400001078
:102600000410041FFC10041004000000000003006C
:1026100001100110011FFE10001000000010041F27
:10262000FC110403801464181C1004000010041F23
:10263000FC1004000400040004000C000010041F3F
:10264000FC1F0000FC1F001FFC1004000010041FF2
:10265000FC0C04030000E010181FFC100007F00839
:1026600008100410041004080807F0000010041FEC
:10267000FC10841080108010800F00000007F0080C
:102680001810241024101C080A07F2000010041F60
:10269000FC1104110011C011300E0C000400000EDA
:1026A0001C11041084108410441C38000018001001
:1026B0000010041FFC100410001800000010001F80
:1026C000F810040004000410041FF8100010001E8D
:1026D0000011E0001C007013801C0010001FC010CF
:1026E0003C00E01F0000E0103C1FC0000010041878
:1026F0000C163401C001C01634180C100410001C54
:1027000000130400FC13041C001000000008041057
:102710001C1064108413041C041018000000000036
:102720000000007FFE400240024002000000003036
:10273000000C0003800060001C000300000000404B
:1027400002400240027FFE00000000000000000086
:102750000020004000400040002000000000010078
:102760000100010001000100010001000100004022
:1027700000400020000000000000000000000000F9
:1027800098012401440144014400FC000410001F8E
:10279000FC008801040104008800700000000000B3
:1027A000700088010401040104008800000000009A
:1027B0007000880104010411081FFC0004000000DF
:1027C000F8014401440144014400C8000000000134
:1027D0000401040FFC110411041100180000000092
:1027E000D601290129012901C90106000010041F91
:1027F000FC008401000100010400FC000400000151
:1028000004190419FC00040004000000000000008A
:102810000300010101190119FE0000000010041F4E
:10282000FC0024004001B4010C0104000000001071
:102830000410041FFC000400040000000001040157
:10284000FC0104010001FC0104010000FC01040181
:10285000FC008401000100010400FC0004000000F1
:10286000F8010401040104010400F8000001010161
:10287000FF008501040104008800700000000000D2
:1028800070008801040104010501FF000101040139
:102890000401FC008401040100018000000000002C
:1028A000CC0124012401240124019800000000012E
:1028B00000010007F801040104000000000100010C
:1028C000F8000400040004010801FC0004010001F8
:1028D000800170000C001001600180010001F00116
:1028E0000C003001C00030010C01F00100000001BB
:1028F00004018C00740170018C01040000010101CD
:10290000810171000E0018016001800100000001CA
:1029100084010C013401440184010C00000000001A
:10292000000000000001003EFC40024002000000E8
:102930000000000000FFFF00000000000000004059
:102940000240023EFC0100000000000000000060A8
:1029500000800080004000400020002000000000B7
:102960000000000000000000000000000000000067
:102970000000000000000000000000000000000057
:102980000000000000000000000000000000000047
:102990000F80380FFE380F80380000000000000064
:1029A0000000000000000000000000010000060020
:1029B000000C00003800003100000600000C000090
:1029C00038000030000000000000000000618000BE
:1029D00067F807F980006180006180006180006114
:1029E000800067F807F980006180000000000000A7
:1029F00000000001C0E003E0F00630080418081FE2
:102A0000FFFE040E080787F00381E00000000000CD
:102A10000001F000060C00040408060C7001F9C067
:102A2000000E00003BE000EC18070808040C18003A
:102A300003E00000000001E00007F003F818041CA8
:102A40000804170807E1D003C0E00023B0003C08E9
:102A5000002008000010000000000000010000310C
:102A600000003200001C0000000000000000000018
:102A70000000000000000000000000000000000056
:102A8000000000000000000000000000007F0001C6
:102A9000FFC00780F00C00181000042000020000A6
:102AA000000000002000021000040C00180780F055
:102AB00001FFC0007F0000000000000000000000D7
:102AC00000000000000000000042000066000066F8
:102AD00000003C0000180003FFC0001800003C008C
:102AE00000660000660000420000000000080000D0
:102AF000080000080000080000080001FFC00008EE
:102B000000000800000800000800000800000000A5
:102B100000000100003100003200001C0000000035
:102B200000000000000000000000000000000000A5
:102B30000000000000080000080000080000080075
:102B4000000800000800000800000800000800005D
:102B50000800000000000000000000000038000035
:102B600038000038000000000000000000000000F5
:102B7000000000000000000000000000000006004F
:102B8000001C000070000180000E0000380000C032
:102B9000000700001C0000300000000000000000E2
:102BA000007F8001FFE00380700600180400080425
:102BB000000806001803807001FFE0007F8000001D
:102BC00000000000000000010008010008010008EA
:102BD00003FFF807FFF800000800000800000800E5
:102BE000000000000000000001C03802C0580400CE
:102BF00098040118040218040418061C1803F81895
:102C000001E0F800000000000000000001C0E00347
:102C1000C0F004000804080804080806180803F4B3
:102C20001801E7F00001E0000000000000000000D3
:102C3000000300000D000011000061000081080386
:102C4000010807FFF80FFFF8000108000108000065
:102C5000000000000000E007FCD00608080610088D
:102C6000061008061008061838060FF00607C00000
:102C70000000000000000000003F8001FFE003842E
:102C8000300208180410080410080410080718106F
:102C9000030FF00007C00000000000000000000368
:102CA000C0000700000600000600F80607F8061836
:102CB0000006E00007000006000000000000000021
:102CC00001E1E003F7F006341004180804180804C2
:102CD0000C08040C0806161803F3F001C1E000000C
:102CE0000000000000F80003FC300306380402086E
:102CF0000402080402080404100308F001FFC000E5
:102D00007F00000000000000000000000000000044
:102D100000000000007038007038007038000000BB
:102D200000000000000000000000000000000000A3
:102D3000000000000000000000301A00301C0000FD
:102D40000000000000000000000000000000000083
:102D500000000000080000140000220000410000F4
:102D600080800100400200200400100800080000DC
:102D700000000000002100002100002100002100CF
:102D8000002100002100002100002100002100009E
:102D900021000000000000000000000800080400FE
:102DA000100200200100400080800041000022004D
:102DB00000140000080000000000000003C0000430
:102DC000C000040000080038080F38080838081050
:102DD000000C300007E00003C0000000000000000D
:102DE000003F8000FFE0038070020F10067088042F
:102DF000C088048308047F8802C09003012000FE7D
:102E0000400000080000180001F8003E0801C20060
:102E100007020007E20000FE00001FC80001F800E2
:102E2000003800000804000807FFF807FFF804084E
:102E30000804080804080804080806180803F41819
:102E400001E7F00001E0000000000000003F800109
:102E5000FFE003807002001804000804000804006A
:102E6000080400100600200780C0000000040008CD
:102E700007FFF807FFF8040008040008040008042E
:102E8000001802001003807001FFE0007F80000046
:102E90000004000807FFF807FFF804080804080802
:102EA000040808040808043E080400080600180185
:102EB000006000000004000807FFF807FFF804089E
:102EC00008040800040800040800043E000600008E
:102ED000060000018000000000000000003F8001AB
:102EE000FFE00380700600180400080402080402D2
:102EF000080203F00783F00002000002000400084B
:102F000007FFF807FFF804080800080000080000A1
:102F1000080000080004080807FFF807FFF804008D
:102F20000800000000000004000804000804000875
:102F300007FFF807FFF80400080400080400080071
:102F40000000000000000000000006000007000074
:102F50000104000104000104000307FFFE07FFFC59
:102F600004000004000004000004000807FFF80744
:102F7000FFF8040C08001800003E0004C780050399
:102F8000C80600F80400380400180000080400080F
:102F900007FFF807FFF80400080000080000080019
:102FA0000008000008000008000018000060000091
:102FB0000004000807FFF807800807FC00007FC036
:102FC0000003F80007C000780007800807FFF80733
:102FD000FFF804000804000807FFF807000803C012
:102FE0000000E000003800001E000007000001C0E3
:102FF0000400F007FFF8040000000000007F8001DB
:10300000FFE00380700600180400080400080600B2
:103010001803003001FFE0007F800000000400087A
:1030200007FFF807FFF80404080404000404000480
:103030000400040400060C0003F80001F000000086
:1030400000000000007F8001FFE003807006008820
:103050000400880400C806003C03003E01FFE600AF
:103060007F8400000004000807FFF807FFF8040849
:1030700008040800040C00040F00040BC00610F044
:1030800003F03801E00800000800000001E0F80348
:10309000F030063010041808041808040C08040C5A
:1030A000080206180207F00781E000000001800016
:1030B00006000004000004000004000807FFF807F1
:1030C000FFF804000804000004000006000001806E
:1030D0000004000007FFE007FFF0040018000008EC
:1030E00000000800000800000800000804001007A5
:1030F000FFE004000004000006000007E00007FEF7
:1031000000041FE00001F80000380001E0043E0068
:1031100007C00006000004000004000007E00007EC
:10312000FFC0041FF80007C007F80007FF80043F36
:10313000F80007C004F800070000040000000000C9
:1031400004000806001807C07805F1C8003E00001A
:103150001F800463E80780F80600180400080000D8
:103160000004000006000007800007E008047C0857
:10317000001FF80007F800180804E0080700000620
:1031800000000400000000000100080600380400F0
:10319000F80403E8040F08047C0805F00807C008D9
:1031A000070018040060000000000000000000009C
:1031B00000000000000000003FFFFE200002200091
:1031C0000220000220000220000200000000000097
:1031D00000000008000007000000C00000380000E8
:1031E00006000001C000003000000E0000010000D9
:1031F0000000000000000020000220000220000269
:103200002000022000023FFFFE000000000000003E
:1032100000000000000000000000000000000800A6
:1032200000100000300000200000300000100000FE
:103230000800000000000000000000010000010084
:103240000001000001000001000001000001000079
:103250000100000100000100000100000100000069
:1032600000000000000020000020000010000010FE
:10327000000000000000000000000000000000004E
:10328000000000000000F00019F8001B18002208E0
:10329000002608002408002410003FF8001FF80052
:1032A000000800001800000004000007FFF80FFFEE
:1032B000F00018180010080020080020080030183E
:1032C000001FF0000FC00000000000000007C00059
:1032D0001FF0001830002008002008002008003CE3
:1032E00008001C100000600000000000000000004A
:1032F0000007C0001FF00038180020080020080058
:10330000200804101007FFF80FFFF0000010000065
:10331000000000000000000007C0001FF000123095
:10332000002218002208002208003208001E1000A7
:103330000E200000000000000020000020080020F7
:103340000801FFF803FFF8062008042008042008FD
:1033500007200003000000000000000000000E0035
:103360000E6E001FF30031B10020B10020B100311A
:1033700091001F13002E1E00200E003000000000E0
:1033800004000807FFF80FFFF800100800200000F5
:103390002000002008003FF8001FF800000800008F
:1033A00000000000000000002008002008002008A5
:1033B000063FF8063FF8000008000008000008007B
:1033C00000000000000000000000000000030000FA
:1033D00003002001002001002003063FFE063FFC01
:1033E00000000000000000000000000004000807CA
:1033F000FFF80FFFF8000188000300002FC000381D
:10340000F80020380020080000080000000000003C
:1034100000000004000804000804000807FFF80F7B
:10342000FFF800000800000800000800000000008D
:1034300000002008003FF8003FF8001008002000BE
:10344000003FF8003FF8001008002000003FF8009F
:103450003FF8000008000000002008003FF8003F8F
:10346000F8001008001000002000002008003FF8BD
:10347000001FF80000080000000000000007C00066
:103480000FF000183000300800200800200800303D
:1034900008001830000FF00007C000000000000016
:1034A000002001003FFF003FFF0010110020090035
:1034B0002008002008003038001FF0000FC0000076
:1034C000000000000007C0001FF0003818002008AE
:1034D000002008002009001011001FFF003FFF001E
:1034E0000001000000002008002008002008003F24
:1034F000F8003FF80008080010080020080020002D
:10350000003000003000000000000000000000005B
:103510000C78001E18003308002308002108002141
:10352000880021980030F0003860000000000000A2
:1035300000200000200000200000FFF003FFF80042
:1035400020080020080020080000300000000000D3
:1035500000000000002000003FF0007FF80000188D
:10356000000008000008002010003FF8007FF00075
:103570000010000000000000002000003000003CAF
:1035800000003F800023F0000078000070002380DE
:10359000003C00003000002000002000003C000043
:1035A0003FE00023F80000E0002700003E00003F5D
:1035B000E00021F80001E0003E00002000000000D3
:1035C000002008002008003838003E6800278000EE
:1035D00003C8002CF800383800201800200800002C
:1035E00000000000002000003003003C01003F8389
:1035F0000023EC000070002380003C00002000004D
:10360000200000000000000000000000380800203A
:10361000380020F80023E8002F88003E0800380812
:1036200000201800007000000000000000000000F2
:1036300000000000000000000008000014001FF758
:10364000FC30000620000200000000000000000026
:10365000000000000000000000000000000000FF6B
:10366000FFFF00000000000000000000000000005C
:10367000000000000000002000023000061FF7FCE0
:10368000001400000800000000000000000000001E
:103690000000000000000000180000600000400072
:1036A000004000002000001000000800000400009E
:1036B0000400000C0000100000B5E7020002000248
:1036C000007FF0421042107FF0421042107FF04223
:1036D000000208020801F800000000D7D37FF000C4
:1036E000200040008001000200FFF80200020002FA
:1036F000000200020002000E0000000000BCBC102E
:10370000201020102013FEFC201020102015FC1883
:10371000843088D04810501020105051882606CA96
:10372000F501000120011001107FFC038005400518
:10373000400920111021084104010201000100018B
:1037400000D2BA0080404027F81140014082784200
:103750004816A81AD0235022204220425002880046
:10376000000000BEA73FE020203FE020203FE00017
:1037700000FDF885088508FDF885088508FDF885B1
:103780000800000000B2E200084F8828880AA88AD2
:10379000A84AA80AA82AA82AA842284508848888EE
:1037A00088103800000000CAD44050204820400F44
:1037B000F80040E04027402240224022202A2833BF
:1037C000A82E18000800000000B3CC00001BF0E297
:1037D00010221023F0F800200033F068806080A3EE
:1037E000F02080208027F800000000D0F2020001C5
:1037F000003FF820002FF02020224021803FF820B9
:1038000088209040804080838000000000D1D52037
:103810000010F87E20444028F87E8848A850A8640C
:10382000A848A872A884501888610800000000C940
:10383000AB100010003FE0404080807FF04210421B
:103840001042107FF04000400840083FF8000000A0
:1038500000CCEE20802FF8208027F0F41027F024F1
:103860001027F0241027F03410CFF80220041000A5
:10387000000000B3E404000200FFF808001040203C
:10388000207FF0089008800880088010882088C079
:103890007800000000CEC4040002000200FFF8100F
:1038A00040104008800880050002000500088030B4
:1038B00060C01800000000D7D604000200FFF880A6
:1038C0000880083FC0008001000200FFF8020002EB
:1038D0000002000E0000000000CFD43FE0202020B6
:1038E000203FE0202020203FE008804890289028BA
:1038F000A008800880FFF800000000CABE00003F5A
:10390000E0000000000000FFF80200124012202238
:10391000104208820802000E0000000000CDBC7FAB
:10392000F84008440847C84848548843084CC873BE
:103930003840884C08430840887FF800000000C6E3
:10394000AC00802080208020803FF02000200020DC
:10395000003FC02040204020404040804000000008
:1039600000B4A520403840484091F07D5055505556
:10397000507D5055F054407C40545057F88C08000E
:10398000000000C3FE2220222027F8FA2027F0247E
:103990001027F03410E7F020802FF821402220EC8F
:1039A0001800000000CAE440804140F22044108B1F
:1039B000E8A000F78824A827A834A8E7A824A8240A
:1039C0008825B800000000C8EB08000400040002CD
:1039D000000200050005000880088010401040200B
:1039E000204010800800000000C8AB020002000563
:1039F00000088010402020DFD8020002001FC00213
:103A00000002000200FFF800000000B3CC00001B21
:103A1000F0E210221023F0F800200033F0688060FC
:103A200080A3F02080208027F800000000BCBC208C
:103A30008020802080F7F02080208027E03220E264
:103A4000202140208021402220EC1800000000CAE4
:103A5000F50200024002200200FFF807000A800A77
:103A60008012402220421082080200020000000062
:103A700000D6A702000200FFF8020002007FE0105B
:103A8000201040088005000200050018C0E0380042
:103A9000000000B3D62080208023F0F8802080270B
:103AA000F828203020E7F82020222021202020E0C4
:103AB000E000000000D7A8020002007FF00400042C
:103AC00000FFF8080010003FE0002000401C8003C9
:103AD00000008000000000D7A201004080200017F5
:103AE000F0008080804080008017F01080208020CF
:103AF0008040804FF800000000C5FA204024402498
:103B000040F4482450276024403440E440244024BA
:103B10004025482648E43800000000B7A2020022F1
:103B200020221044007FF8040008000FE014202435
:103B3000404280810006C0383800000000B3C90050
:103B4000A0009000807FF8408040907C904490449A
:103B5000A044A0444858A84118820800000000B9B9
:103B6000A601000100F90023F021102110211021ED
:103B70001021103910C2100210041008600000005B
:103B800000D2C60000002000780CE47904516810CF
:103B9000307E6019981A3C2FE448E4083800300061
:103BA000600000D1A100000120012003FC6220344C
:103BB00020042003FC240021B021202220323E18C2
:103BC000000FE00000D4F10000000010FC1304110D
:103BD0000C3DF8703E10D015907CF0503E18101B34
:103BE000FE023000200000CFEE0000000003FE00C7
:103BF000607C4012FC11041106113611241F447917
:103C00004400C0009C01860000C4BF000000000FFB
:103C1000E03C18200820043E04600460047E046038
:103C200004200C20081FF001800000B6CC00000822
:103C30000011FC103E3EF82D8C2904490409043E75
:103C40008C50FC10881EC811FC100E0000B0B4008F
:103C5000000040006012FE13023A427F4410C41B71
:103C6000FE3C987190113011A00078004C0000C803
:103C7000B70000004000F878C41F8C313821EC21D7
:103C800026413A7DE2272225FA3D2601240104003F
:103C900000B6A80000010001705FFC700420042F32
:103CA000F801001100113821C431003F0063E040E9
:103CB000380000B3A4000000000818086008C00B1A
:103CC000001E00181C7FF01000118010E018380949
:103CD0008E0F000000B0B400000040006012FE1320
:103CE000023A427F4410C41BFE3C9871901130117F
:103CF000A00078004C0000B7B50000000007F806EF
:103D000000240014F8078C04042408261825F06405
:103D10007C64C220801FC00000BBD8000000001FD0
:103D2000F030182008278C2C44284428442CC42721
:103D3000842004300C1FF803800000C7B601002166
:103D40000821083FF800202220223EFF4222942230
:103D5000103E10221022283E2822440082CABD00B4
:103D600048004400440040FFFE004000403E400840
:103D7000400840082008220F12780A20060002BFDF
:103D8000AA00007FFC08200820082008200820FF47
:103D9000FE082008200820082010201020202040A5
:103DA00020B7A201001110110822003FFC020004FC
:103DB0000007F80A080908111010A0204040A003CD
:103DC000181C06CDF800007FFC4004400442145249
:103DD000944A54442444244A544A5452946104401A
:103DE0000440144008D6D001000100010001003F4A
:103DF000F8210821082108210821083FF82108019D
:103E000000010001000100CEC4020001000100FF1A
:103E1000FE1010101008200820044002800100024B
:103E200080044008203018C006B2E2000427C41401
:103E3000441454855445544554155415542554E59B
:103E40005421042284224424140808CAD4002820BF
:103E5000241024102007FE0020F02017E01120116C
:103E6000101110151019CA170A02060002000000EE
:103E70000000000000000000000000000000000042
:103E8000000000000000000000000000000000B47E
:103E9000F3000000000000001800001000001000F7
:103EA00000100000100000100C3FFFFE001000008A
:103EB00018000018000034000034000022000062E6
:103EC0000000410000C1800080C001006006003891
:103ED00008001C300000000000D4BD0000000000FD
:103EE000000300C00200B00200980260881F888CA6
:103EF000020FF0020C80022C887FDC88030C901BE0
:103F00000CD01B0C6013EE60131E64130CF4130131
:103F10009C1B020C27040421D800407FFC4007F8BA
:103F2000000000B4B400000000000003800803009B
:103F30000C02E00C06300C04198C08088C08008C6C
:103F400018208C2FF08C48208C08208C08208C089E
:103F5000208C08608C09C10C08080C08080C0808A3
:103F60000C0C0C0C07FC78000010000000D0C20004
:103F7000000000000002000801003C0133C03EC206
:103F800000086200044200048200049A0C3FFFFE15
:103F90000102300102300112301FE2300102300D07
:103FA00042301936301114302114302108304710B6
:103FB00030022030000000D2BA00000000000000F3
:103FC00006001803000C020C04FDF0011980011119
:103FD000004233083222F812421812651004E490AD
:103FE000056AB0056A200A71200861403860C0186F
:103FF00060C018616018623018641E087800000004
:1040000000BEA700000000000001004001FFC00149
:10401000004001004001FFC001004001004001FFDD
:10402000C00100400000001064081FE7F8104608B7
:104030001046081046081FC7F8104608104608101A
:1040400046081FC7F8104608000000C6C10000005F
:104050000000000800000FFFF80C00180C00180FFB
:10406000FFF80C40900C30C00C10800C11100DFFAC
:10407000F808308008308008308808309C1FFFE046
:1040800010208010208020608020408040808003AD
:104090000080000000B2E200000000000011000CEF
:1040A00009FE080D860805864801A64841B6483332
:1040B000B64813B64815B64805B64805B64805B61D
:1040C0004809A64809A64839A4481820481858089D
:1040D000184408188608190238060018000000CA9B
:1040E000D40000000000000001A01001D8080088E2
:1040F0000C008804008400FFFE00008000008004A3
:1041000000803C0280047DC00408C004084004080C
:1041100040044860048822050F3407381406E01C68
:1041200004000E0000060000000000000000000077
:10413000000000000000000000000000000000007F
:10414000000000000000000000000000000000006F
:10415000000000000000000000000000000000005F
:10416000000000000000000000000000000000004F
:1041700000000000944100080000002050000000F2
:1041800028010008E44100085000002088070000D2
:1041900044010008000000000000000000000000D2
:1041A00000A24A0400000000000000000102030415
:1041B00006070809017F0000000000000000000061
:1041C00000000000000000000204060800000000DB
:1041D00001020304010203040607080900000000AD
:0441E000FFFF0000DD
:040000050800018965
:00000001FF
