:020000040800F2
:100000008007002089010008071200080B0900087A
:100010000512000825030008411700080000000031
:100020000000000000000000000000006113000854
:10003000C5030008000000006D12000853150008F9
:10004000A3010008A3010008A3010008A301000800
:10005000A3010008A3010008A3010008A3010008F0
:10006000A3010008A3010008A3010008A3010008E0
:10007000A3010008A3010008A3010008A3010008D0
:10008000A3010008A3010008A3010008A3010008C0
:10009000A3010008A3010008A3010008A3010008B0
:1000A000A3010008A3010008A3010008A3010008A0
:1000B000A3010008A3010008A3010008A301000890
:1000C000A3010008A3010008A3010008A301000880
:1000D000A3010008A5150008A3010008A30100085A
:1000E000A3010008A3010008A301000800F002F822
:1000F00000F03AF80AA090E8000C82448344AAF188
:100100000107DA4501D100F02FF8AFF2090EBAE885
:100110000F0013F0010F18BFFB1A43F0010318473B
:10012000343C0000543C0000103A24BF78C878C129
:10013000FAD8520724BF30C830C144BF04680C60ED
:10014000704700000023002400250026103A28BF35
:1001500078C1FBD8520728BF30C148BF0B60704739
:100160001FB51FBD10B510BD00F033F81146FFF7E5
:10017000F7FF01F037FB00F051F803B4FFF7F2FF8F
:1001800003BC01F0DEFA0000094880470948004737
:10019000FEE7FEE7FEE7FEE7FEE7FEE7FEE7FEE737
:1001A000FEE7FEE704480549054A064B7047000094
:1001B00055150008ED000008800100208007002090
:1001C000800300208003002070477047704770470D
:1001D0007047754600F02CF8AE4605006946534658
:1001E00020F00700854618B020B5FFF7DBFFBDE81B
:1001F00020404FF000064FF000074FF000084FF08E
:10020000000B21F00701AC46ACE8C009ACE8C0091E
:10021000ACE8C009ACE8C0098D46704710B504468B
:10022000AFF300802046BDE81040FFF7A6BF0000F6
:10023000004870472001002010B5FF2000F022F890
:1002400055280AD05521FF2000F04DF8FF2000F07E
:1002500019F8552801D0012010BD002010BD00F074
:100260006BBB70B514460D46064608E03046711C5F
:100270008EB200F007F8641E05F8010BA4B2002C42
:10028000F4D170BD10B5044600F0DEFB200AA021B9
:1002900001EB4000C0B200F0ADFB00F005FCE0B2A5
:1002A00000F0A8FB00F000FC00F0CEFBA12000F065
:1002B000A1FB00F0F9FB002000F06EFB044600F00B
:1002C000DBFB204610BD70B516460C46054606E021
:1002D0002178284600F007F86D1CADB2641C761E2C
:1002E000B6B2F5D270BD70B50D46044600F0ACFB59
:1002F000200AA02101EB4000C0B200F07BFB00F01F
:10030000D3FBE0B200F076FB00F0CEFB284600F015
:1003100071FB00F0C9FB00F0AFFBBDE870400A20A4
:1003200001F02CBAFEE700002DE9F0430D4D1F4609
:10033000164688468146002404EB041015F8101078
:10034000B14209D105EB40014878B84204D1424698
:100350004846891C00F02AF8641CA4B2382CEBD360
:10036000BDE8F083973200082DE9F0430E4D1F469B
:10037000164688468146002404EB840000EB4410B6
:1003800015F81010B14209D105EB40014878B84288
:1003900004D142464846891C00F008F8641CA4B207
:1003A000092CE9D3BDE8F0836D3A000810B50023AD
:1003B00005E000BF11F8014B00F8014B5B1C9342B4
:1003C000F8D310BD70470000F0B50C4D0C4F85B050
:1003D0002C886D883F884FF0100CCDE9003CCDE9AA
:1003E0000227241A6D1AA4B2ADB2002604962B4639
:1003F000224600F0A9F905B0F0BD00001001002070
:10040000360000202DE9FF41094D002610272C88D9
:100410006D88CDE90037CDE90226241A6D1AA4B201
:10042000ADB22B46224601F03BF8BDE8FF8100004B
:10043000100100202DE9F041DFF85C800C460646F3
:100440004FF4805715463946404600F033FA0520F0
:1004500000F0C9F9032000F049FBC4F3074000F0A5
:1004600045FBC4F3072000F041FBE0B200F03EFB87
:10047000002405E0FF2000F039FB3055641CA4B2D5
:10048000AC42F7D33946404600F012FABDE8F041DD
:10049000052000F0A8B90000000C014030B40C4663
:1004A0000178202A1BD00ADC0C2A0ED0102A14D086
:1004B000182A18D10D4800BF01FB030108E0302ABB
:1004C0000FD0402A0FD10A48F6E7594301F5002121
:1004D000204630BC1A46FFF7ADBF0648ECE7064899
:1004E000EAE70648E8E730BC704700000012080061
:1004F00000920800000808000026080000480800D4
:1005000030B40C46014600784978812809D3402947
:1005100007D3FF2905D0FF2803D07F290CD240390B
:100520000BE00020014603E0401C04F8011B80B2F0
:100530009842F9D330BC704741398138C0B2C0EB22
:100540004015C9B205EB801001EB400159430C2A5C
:100550000CD0102A0CD0182A0DD0202AEAD101F58F
:100560006011204630BC1A46FFF764BF034800E024
:1005700003480144F5E701F5ED11F2E70014090025
:1005800000DD1100AFF3008070B586B04FF6FF704C
:1005900000F016FB002005466C462554401CC0B2F6
:1005A0001828FAD3112200212046FFF743FF4FF409
:1005B000784610216B4632460846FFF705FF0020BB
:1005C0002554401CC0B21828FAD3082214216846CA
:1005D000FFF730FF6B46324620211020FFF7F4FE74
:1005E00000202554401CC0B21828FAD308221E212E
:1005F0006846FFF71FFF6B46324630211020FFF799
:10060000E3FEC82001F0BAF806B070BD2DE9FF4F37
:10061000C1B01C46DDF840B116460D468946580764
:1006200000D0012000EBD401600841438A460C2C25
:1006300009D0102C07D0182C05D0202C03D0302C3A
:1006400001D0402C31D10B46224669463046FFF797
:1006500025FF002627E000BF1DF806704FF00008B8
:10066000380601D54E9A03E0BBF1000F04D14F9A32
:100670002946419800F00EFB78066D1C070EADB2BE
:10068000A5EB0900A04205D141984D46401C80B21F
:10069000419006E008F101001FFA80F8B8F1080F58
:1006A000DED3761CB6B25645D6D345B0BDE8F08F42
:1006B0002DE9FF4FA1B01C46DDF8C0B016460D462F
:1006C0008946580700D0012000EBD40161438A46D7
:1006D0000C2C05D0102C03D0182C01D0202C30D19C
:1006E0000B46224669463046FFF70AFF002626E001
:1006F0001DF806704FF00008380601D52E9A03E069
:10070000BBF1000F04D12F9A2946219800F0C2FABC
:1007100078066D1C070EADB2A5EB0900A04205D10D
:1007200021984D46401C80B2219006E008F101005E
:1007300000F0FF08B8F1080FDED3761CF6B256457C
:10074000D6D325B0BDE8F08F2DE9FE4F0446DDE994
:100750000C6780463078DDF840B00D46002820D088
:10076000E81808EB020AA0EB0709307880281AD9AC
:10077000AAEB0700A04202DAE81985B24446A9456F
:100780000FDBDDE90E028DE805083B4632462946BF
:100790002046FFF78DFFE01984B216F8020F0028FB
:1007A000E3D1BDE8FE8FAAEB5701A14202DAE919B5
:1007B0008DB24446A945F4DB0D280FD0DDE90E12B9
:1007C0008DE806083B46324629462046FFF71EFFC5
:1007D00004EB570084B216F8010FE0E7E81985B280
:1007E0004446761CF4E7002206E00021491CC9B209
:1007F0006429FBD3521CD2B28242F6D37047000068
:10080000F0B5CA78002502F00F03D20601D58A7828
:1008100013430A784FF00F0E12F0FF0F4FF0010252
:100820001CD004680F8802FA05F63740B74211D190
:100830004FEA850C0EFA0CF724EA070703FA0CF4CA
:100840003C43CF78282F02D0482F02D002E04661E7
:1008500000E006616D1C082DE4D304600C88FF2CB9
:100860001ED944685FF0000606F1080702FA07F592
:100870000F882F40AF420FD14FEA860C0EFA0CF7CB
:10088000BC4303FA0CF73C43CF78282F00D14561D5
:10089000CF78482F00D10561761C082EE4D3446040
:1008A000F0BD0246002092680A4200D00120704745
:1008B000416170470161704770B415461E46027869
:1008C00043780C46812A10D3402B0ED3FF2B0CD03B
:1008D000FF2A0AD00C2E11D0102E11D0182E0DD1B7
:1008E0002946204670BCFFF73FBD0020014603E0CB
:1008F000401C04F8011BC0B2A842F9D370BC704779
:100900002946204670BCFFF70FBDFEE770B5094CC5
:100910000025C4F8985104F5CC7400F00FFD656013
:10092000022000F045FF01202060022000F040FF7F
:10093000256070BD0080214238B50121082000F0FB
:1009400097FCC020ADF8000010208DF803000320B4
:10095000054C8DF8020069462046FFF751FFC02183
:100960002046FFF7A7FF38BD000C014070B5094CC9
:100970000025C4F8985104F5CC7400F0DFFC012682
:100980006660022000F014FF2660022000F010FFD5
:10099000256070BD008021422DE9F047814600248A
:1009A00000F0BAFC0025124E2F464FF0010800BFA0
:1009B000C6F89871022000F0FBFEC6F89881600628
:1009C000040ED6F81C0108B1641CE4B2012000F04A
:1009D000EFFE6D1CEDB2082DEAD3B9F1000F04D083
:1009E000FFF794FF2046BDE8F087FFF7BFFFF9E768
:1009F000008021422DE9F041064600F09FFC114C99
:100A00000027C4F898713D464FF00108300602D522
:100A1000C4F89C8101E0C4F89C717006060E0220A7
:100A200000F0C6FEC4F89881022000F0C1FEC4F8B0
:100A30009871022000F0BCFE6D1CEDB2082DE5D3CC
:100A4000BDE8F0810080214270B500F077FC094CD0
:100A50000120C4F89C01C4F89801042004F5CC746A
:100A600000F0A6FE00256560042000F0A1FE2560D0
:100A700070BD00000080214210B500F05FFC094C01
:100A80000020C4F89801C4F89C01042004F5CC743B
:100A900000F08EFE012020606060BDE81040042060
:100AA00000F086BE0080214270B5002400F034FCC6
:100AB0000D4D0126C5F89C61304600F079FEC5F861
:100AC0009861012000F074FE07E0641CE4B2FA2C87
:100AD00003D9FFF7D1FF012070BDD5F81C01002814
:100AE000F3D1C5F8980170BD008021422DE9F0478F
:100AF000164F002405464FF400497E144FF4804AF7
:100B000028064946384602D5FFF7D4FE01E0FFF734
:100B1000CFFE31463846FFF7CBFE68064FEA106835
:100B200051463846FFF7BDFE40EA080531463846D3
:100B3000FFF7C0FE641CE4B2082CE1D3314638460E
:100B4000FFF7B8FE2846BDE8F0870000000C014022
:100B500001B5009801E0401E00900028FBD108BDBF
:100B600008B50121042000F083FB0120ADF800004E
:100B70008DF8020028208DF8030069460148FFF730
:100B80003FFE08BD0008014070B50C460546FFF762
:100B900088FE012809D141F28830FFF7D9FF2146AC
:100BA0002846FFF77EFE012801D0002070BD2146B7
:100BB0002846FFF776FE0128F9D0012070BD00001D
:100BC0002DE9F0410D4D002407466B882A88214607
:100BD000204600F0EBF92E8868880021464308463D
:100BE00000F0BEF900F0E2FA03E0384600F092FAB5
:100BF000641CB442F9D3BDE8F0810000100100206C
:100C00002DE9F041002580212C22204F204C2A2361
:100C10004FF02B0C30B101280DD0012602281ED038
:100C2000032825D0A5712180618022816381A4F8E9
:100C30000CC0C82107E0A5712180618022816381F9
:100C4000A4F80CC04821362000F0B6FA3D70638845
:100C50002288BDE8F0410021084600F0A7B9A6713E
:100C60002180618022816381A4F80CC0A82107E063
:100C7000A6712180618022816381A4F80CC0682163
:100C8000362000F099FA3E70E1E7000032000020C3
:100C90001001002010B5144600F062F904480089E4
:100CA00000F06CFA2046BDE8104000F033BA0000B6
:100CB00010010020F8B501210C2000F0D9FA4BF208
:100CC0000200ADF800000324134F8DF802401025F8
:100CD0008DF8035069463846FFF792FD2E01ADF8B6
:100CE00000608DF802408DF803500C4D694628468F
:100CF000FFF786FDB001ADF800008DF802404820F6
:100D00008DF8030069463846FFF77AFD31462846DC
:100D1000FFF7D0FDF8BD0000000C014000080140C5
:100D200010B5FFF7C7FF00F0EBF9112000F026FA2D
:100D3000782000F023FDB12000F020FA012000F01F
:100D400005FA2C2000F002FA2D2000F0FFF9B22065
:100D500000F014FA012000F0F9F92C2000F0F6F967
:100D60002D2000F0F3F9B32000F008FA012000F084
:100D7000EDF92C2000F0EAF92D2000F0E7F9012030
:100D800000F0E4F92C2000F0E1F92D2000F0DEF96C
:100D9000B42000F0F3F9072000F0D8F9C02000F0EB
:100DA000EDF9A22000F0D2F9022000F0CFF9842062
:100DB00000F0CCF9C12000F0E1F9C52000F0C6F93F
:100DC000C22000F0DBF90A2000F0C0F9002000F09A
:100DD000BDF9C32000F0D2F98A2000F0B7F92A202B
:100DE00000F0B4F9C42000F0C9F98A2000F0AEF98F
:100DF000EE2000F0ABF9C52000F0C0F90E2000F0A5
:100E0000A5F9362000F0BAF9C82000F09FF9E020DB
:100E100000F0B4F90F2000F099F91A2000F096F9CB
:100E20000F2000F093F9182000F090F92F2000F027
:100E30008DF9282000F08AF9202000F087F922207F
:100E400000F084F91F2000F081F91B2000F07EF9EA
:100E5000232000F07BF9372000F078F9002000F023
:100E600075F9072000F072F9022000F06FF91020E8
:100E700000F06CF9E12000F081F90F2000F066F934
:100E80001B2000F063F90F2000F060F9172000F03C
:100E90005DF9332000F05AF92C2000F057F9292091
:100EA00000F054F92E2000F051F9302000F04EF9F6
:100EB000302000F04BF9392000F048F93F2000F0D5
:100EC00045F9002000F042F9072000F03FF9032027
:100ED00000F03CF9102000F039F92A2000F04EF91A
:100EE000002000F033F9002000F030F9002000F07D
:100EF0002DF97F2000F02AF92B2000F03FF9002087
:100F000000F024F9002000F021F9002000F01EF983
:100F10009F2000F01BF9F02000F030F9012000F0D4
:100F200015F9F62000F02AF9002000F00FF93A2018
:100F300000F024F9052000F009F9292000F01EF93D
:100F40000020FFF75DFE4FF480710448FFF7B2FC0C
:100F5000BDE810404FF6FF70FFF732BE00080140B9
:100F600070B505460F48104E0C460178708971B176
:100F700000F004F9ED1CA8B200F0CCF8B08900F044
:100F8000FDF8A41CA0B2BDE8704000F0C3B800F0AA
:100F9000F5F8AD1CA8B200F0BDF8B08900F0EEF88D
:100FA000E41CEFE732000020100100202DE9F041A1
:100FB00005461044401E87B2C818401E86B21A4823
:100FC0000C4602781948804641890846BAB100F0BB
:100FD000D5F8ED1CA8B200F09DF8FF1CB8B200F0E7
:100FE00099F8B8F80C0000F0C9F8A41CA0B200F001
:100FF00091F8B61CB0B2BDE8F04100F08BB800F03B
:10100000BDF8AD1CA8B200F085F8BF1CB8B200F066
:1010100081F8B8F80C0000F0B1F8E41CA0B200F0C0
:1010200079F8F61CE6E700003200002010010020ED
:101030002DE9FF5F1D460C468A46580700D0012067
:1010400000EBD50069084843203A00F0FF09D0B210
:101050000026DFF898B0029044E00C2D11D0102D3E
:1010600014D0182D40D10298214900EBC00000BFD8
:1010700001EB80004FF00008875D38060BD50E9A13
:101080000DE002981B4900EB4000F1E71A49029875
:1010900001EB0010EEE70F9828B918488288214626
:1010A0000098FFF7F7FD7806070E641CBBF80200F6
:1010B000A4B2A04218D9A4EB0A00A84209D1009812
:1010C0005446401C80B20090BBF8001081420BD9FE
:1010D00006E008F1010000F0FF08B8F1080FCCD3DA
:1010E000761CF6B24E45B8D3BDE8FF9F1001002034
:1010F0003B250008D71A00084B1F000832000020CB
:1011000010B5012000F03AF8BDE81040642000F06E
:1011100035BB000070B50C4E04464FF4805529468F
:101120003046FFF7C5FB02213046FFF7C3FB200A1C
:10113000FFF7DCFCE0B2FFF7D9FC29463046BDE8FA
:101140007040FFF7B7BB0000000C014070B50A4DBE
:1011500006464FF4805421462846FFF7A9FB02219A
:101160002846FFF7A7FB3046FFF7C0FC214628467C
:10117000BDE87040FFF79EBB000C014070B50A4E01
:1011800004464FF4805529463046FFF791FB022173
:101190003046FFF78DFBE0B2FFF7A8FC294630464A
:1011A000BDE87040FFF786BB000C01400148008994
:1011B000FFF7E4BF1001002010B50C46FFF7DEFF7B
:1011C000E0B2BDE81040FFF7C1BF000038B5012113
:1011D000102000F04DF84FF40054ADF800401020FE
:1011E0008DF803000320064D8DF80200694628465D
:1011F000FFF706FB21462846FFF75CFB38BD0000E1
:1012000000100140FEE7704770B50F23C4780178E5
:101210000122F4B1144C2468457804F4E064C4F568
:10122000E064240AC4F10406E3408478B5401C401D
:101230002C4301F1E021230181F80034007800F013
:101240001F018A404009800000F1E020C0F8002121
:1012500070BD01F01F0082404809800000F1E020CD
:10126000C0F8802170BD00000CED00E07047000068
:10127000044A0029916901D0014300E08143916152
:10128000704700000010024030B51F494A6812F054
:101290000C031E4A03D0042B01D0082B21D002607E
:1012A0004A680F231A4C03EA1212A35C0268DA4060
:1012B00042604B68072505EA1323E35C22FA03F337
:1012C00083604B6805EAD323E35CDA40C260496877
:1012D000032303EA9131231F595CB2FBF1F1016151
:1012E00030BD4A684B6802F470124FF0020413F4E8
:1012F000803F04EB924202D04B689B0301D5054B23
:1013000000E0024B5A43CAE70010024000127A0084
:101310002200002000093D0008B58020ADF8000043
:1013200048208DF8030003208DF80200694602482A
:10133000FFF766FA08BD0000000C014008B58020E8
:10134000ADF8000010208DF8030003208DF8020096
:1013500069460248FFF754FA08BD0000000C01403E
:10136000704700000CB500212648019100910268E9
:1013700042F4803202604FF4A063026802F400324B
:101380000092019A521C0192009A12B9019A9A4253
:10139000F3D10268920333D5012100911A490A68FA
:1013A00042F010020A600A6822F003020A600A682A
:1013B00042F002020A604168416041684160416850
:1013C00041F480614160416821F47C1141604168D1
:1013D00041F4E8114160016841F0807101600168E9
:1013E0008901FCD5416821F003014160416841F069
:1013F000020141604168C1F381010229FAD10CBDAB
:1014000000910CBD00100240002002402DE9F04F79
:101410000446814693B01D4616468A46580700D0BA
:10142000012000EBD5006843C0B283460C2D03D0E9
:10143000102D01D0182D2DD1024669463046FFF7F8
:101440003BFA002023E000BF1DF808700026380694
:1014500001D51C9A03E01D9828B91048028851460E
:101460002046FFF717FC7806641C070EA4B2A4EB15
:101470000900A84204D10AF101004C461FFA80FA83
:10148000761CF6B2082EE2D308F10100C0B2804605
:101490005845D9D313B0BDE8F08F000036000020C6
:1014A0002DE9FC5F0446DDE90C6780463078DDF805
:1014B0003CB00D4600281FD0E81808EB020AA0EB4C
:1014C00007093278802A19D9AAEB0700A04202DA6C
:1014D000E81985B24446A9450EDB0E99CDE9001BFB
:1014E0003B46324629462046FFF790FFE01984B27A
:1014F00016F8020F0028E4D1BDE8FC9FAAEB5700C4
:10150000A04202DAE81985B24446A945F4DB0D2A67
:101510000ED00E99CDE9001B3B4629462046FFF729
:1015200087FD00BF04EB570084B216F8010FE1E716
:10153000E81985B24446761CF4E74FF0E021042810
:10154000086903D020F004000861704740F00400EF
:10155000FAE770470F4810B5016841F001010160DA
:1015600041680D4A1140416001680C4A1140016018
:10157000016821F480210160416821F4FE0141608D
:101580004FF41F018160FFF7EDFE05494FF0006049
:10159000086010BD001002400000FFF8FFFFF6FEDB
:1015A00008ED00E070B5154C40F22551204600F0E2
:1015B00035F800280ED0204600F0BEF8C2B2104820
:1015C00001880B0406D44C044FF0000306D50A2A08
:1015D00001D0038070BD41F400410DE00D2A09D017
:1015E000C1F30D04074D491C89B22A550180C72952
:1015F000EFD870BD41F48041018070BD00380140DA
:101600001C000020470000200029818902D041F4FD
:10161000005101E021F400518181704730B501F0A3
:101620001F0201240025C1F3421304FA02F2012B28
:101630000FD0022B0FD0838A4FEA1121008813426A
:1016400004FA01F400EA040001D000B101252846A3
:1016500030BD8389F0E7038AEEE710B5C1F342138A
:1016600001F01F040121A140012B07D0022B07D05C
:101670001430002A026805D00A4304E00C30F8E771
:101680001030F6E78A43026010BD000030B5044612
:10169000008A85B00D464CF6FF710840E988014389
:1016A0002182A1894EF6F3100140A8882A891043AF
:1016B0006A890A431043A081A08A4FF6FF4108407F
:1016C000A9890143A1826846FFF7DEFD19488442DB
:1016D00001D1039800E00298A189090400EBC00140
:1016E00001EB0010296801D5490000E08900B0FB3A
:1016F000F1F06422B0FBF2F109010B096FF018055B
:101700006B4300EB8300A3891D044FF0320306D521
:1017100003EBC000B0FBF2F000F0070005E003EBC4
:101720000010B0FBF2F000F00F000843208105B07C
:1017300030BD0000003801408088C0F308007047C9
:10174000FEE7704710B56FF00400FFF7F6FE08489B
:1017500008490068B0FBF1F0074900EB400208803F
:10176000C2EBC0104FF6FF7202EAC000488010BD05
:101770000400002000127A00180000200B4949885C
:1017800048434FF0E021486100228A61086940F037
:10179000010008610869C30701D0C003FAD50869D0
:1017A00020F0010008618A617047000018000020E5
:1017B0000B49098848434FF0E021486100228A61C3
:1017C000086940F0010008610869C30701D0C0033F
:1017D000FAD5086920F0010008618A6170470000AD
:1017E00018000020FFF7AEFFFFF7F0FCFFF7B8F995
:1017F0004FF4E13000F018F9FFF792FAFEF7C2FE5D
:101800004FF6FF70FFF7DCF94FF47845002149A34C
:101810002A460846FEF7F6FD4AA31F2210210020A3
:10182000FEF7F0FD4CA31F2220210020FEF7EAFD69
:101830004EA31F2230210020FEF7E4FDFEF70FFD2E
:101840004FF4FA784D4C19E04DA32A464021002070
:10185000FEF7D8FD46464046FFF790FF4DA32A46C7
:1018600050210020FEF7CEFD3046FFF787FFD4F869
:10187000B401F0B15FF00000C4F8B401FEF7DCFC85
:101880000028E1D148A31F224021FEF7BBFD4BA356
:101890002E462A4650210020FEF7B4FDDFF8309195
:1018A0004C4D002701214846FFF76EF9012802D070
:1018B0002DE00120E0E72F7047A332466021002091
:1018C000FEF7A0FD0F2249490020FEF7FCFC48A3CB
:1018D000324670210020FEF795FD4046FFF74EFF8F
:1018E00048A3324660210020FEF78CFD0F224949B3
:1018F0000020FEF7B6FC48A3324660210020FEF728
:1019000081FD444B324670210020FEF77BFD688844
:10191000401C68800A20FFF731FF68881428C1D175
:10192000D4F8B40120B10020C4F8B4016F80B9E745
:101930000120F9E720202020204949432054455325
:10194000542000002020C7B6C8EBCABDBFAAB7A26A
:10195000CDF82020200000006D63756465762E743C
:10196000616F62616F2E636F6D2000004B303A2013
:101970005772697465262052656164000000224236
:10198000323443303420436865636B204661696CB0
:1019900065642100506C6561736520436865636B05
:1019A0002120202020202000323443303420526572
:1019B0006164792120202020202000002020202088
:1019C0002020202020202020202020202020200037
:1019D000000801400000002057726974652032340D
:1019E0004330342E2E2E2E2000000000C81A00088E
:1019F00057726974652046696E6973686564212051
:101A000000000000526561642032344330322E2ED3
:101A10002E2E200038000020526561646564204944
:101A2000733A20202020200070B5054686B00121A1
:101A300044F20400FFF71CFC4FF40070ADF81000F6
:101A400003248DF8124018201D4E8DF8130004A9B0
:101A50003046FEF7D5FE3015ADF8100004208DF8A5
:101A6000130004A93046FEF7CBFE25208DF81400A4
:101A70008DF815408DF8164001208DF8170005A847
:101A8000FFF7C2FB0020ADF80400ADF80600ADF88A
:101A90000800ADF80C000C200A4CADF80A000095C7
:101AA00069462046FFF7F2FD012240F2255120460B
:101AB000FFF7D3FD01212046FFF7A6FD06B070BD5C
:101AC0000008014000380140323443303420494995
:101AD0004320544553540000000000000000000063
:101AE000000000000000003F400000000000000077
:101AF000003000400030004000000009000BC03DF5
:101B0000000BC03D00090018C024407FE022403196
:101B1000800000180024C01B000D803240018003AB
:101B2000801C4027401C80074000401000600000DF
:101B3000000000000000000000000000001F8020E6
:101B40004040200000402020401F8000000000098D
:101B50000006001F80060009000000040004003F8A
:101B6000800400040000000010006000000000007D
:101B70000000000400040004000400040000000051
:101B80000000400000000000000000002001C0062E
:101B9000003800400000001F802040204020401FEF
:101BA000800000000010403FC0004000000000180E
:101BB000C0214022402440184000001080204024D2
:101BC0004024401B80000002000D0011003FC001B6
:101BD0004000003C80244024402440238000001F1B
:101BE000802440244034400380000030002000273F
:101BF000C03800200000001B802440244024401BEB
:101C00008000001C0022C0224022401F80000000F3
:101C10000000000840000000000000000000000478
:101C200060000000000000000004000A0011002015
:101C30008040400900090009000900090000000077
:101C4000004040208011000A0004001800200023FA
:101C5000402400180000001F802040274029401F1A
:101C6000400000004007C039000F0001C0004020C4
:101C7000403FC0244024401B8000001F80204020A3
:101C80004020403080000020403FC0204020401FC6
:101C900080000020403FC024402E4030C000002083
:101CA000403FC024402E00300000000F0010802074
:101CB0004022403380020020403FC0040004003F27
:101CC000C02040204020403FC02040204000000075
:101CD00060202020203FC02000200020403FC02462
:101CE000400B0030C0204020403FC020400040005A
:101CF0004000C03FC03C0003C03C003FC00000208B
:101D0000403FC00C4023003FC020001F80204020E7
:101D10004020401F80000020403FC0244024001885
:101D20000000001F802140214020E01FA000002073
:101D3000403FC02440260019C0004018C024402461
:101D400040224031800000300020403FC020403021
:101D500000000020003F80004000403F8020002025
:101D6000003E0001C0070038002000380007C03CDA
:101D70000007C038000000204039C0060039C020EC
:101D80004000002000384007C038402000000030EC
:101D90004021C02640384020C00000000000007FE5
:101DA000E0402040200000000070000C0003800094
:101DB0004000000000402040207FE00000000000C4
:101DC0000020004000200000000000001000100073
:101DD0001000100010001000000000400000000083
:101DE000000000000002800540054003C0004020C4
:101DF000003FC00440044003800000000003800452
:101E00004004400640000000000380044024403F9E
:101E1000C000400000038005400540034000000072
:101E20000004401FC0244024402000000002E005C0
:101E30005005500650042020403FC00440040003D9
:101E4000C000400000044027C00040000000000027
:101E5000100010041027E00000000020403FC001E7
:101E600040070004C00440204020403FC000400024
:101E700040000007C0040007C0040003C0000004C5
:101E80004007C00440040003C00040000003800479
:101E900040044003800000041007F0045004400395
:101EA000800000000003800440045007F00010048C
:101EB0004007C00240040004000000000006400586
:101EC00040054004C00000000004001F80044000E2
:101ED000400000040007800040044007C0004004A8
:101EE00000070004C0018006000400060001C007CE
:101EF0000001C006000000044006C0010006C00446
:101F00004000000410071004E001800600040000F7
:101F100000044005C006400440000000000000042A
:101F2000007BE040200000000000000000FFF00007
:101F3000000000000040207BE004000000000040A2
:101F40000080004000200020004000000000000051
:101F50000000000000000000000000000000000081
:101F6000001FCC000C000000000000000008003042
:101F70000060000800300060000000022003FC1E2A
:101F800020022003FC1E200220000000000E181179
:101F9000043FFF10840C78000000000F0010840F35
:101FA0003800C0077818840078000000780F84108B
:101FB000C411240E9800E400840008080068007032
:101FC0000000000000000000000000000000000011
:101FD0000007E01818200440020000000040022022
:101FE00004181807E0000000000000024002400151
:101FF000800FF0018002400240000000800080005D
:10200000800FF800800080008000000001000D00BB
:102010000E00000000000000000000000000800032
:1020200080008000800080008000800000000C00A4
:102030000C0000000000000000000000000006008E
:102040001800600180060018002000000007F0085A
:102050000810041004080807F00000000008040835
:10206000041FFC000400040000000000000E0C101F
:10207000141024104411840E0C000000000C1810E1
:10208000041104110412880C700000000000E00329
:1020900020042408241FFC0024000000001F9810C6
:1020A0008411041104108810700000000007F0086B
:1020B000881104110418880070000000001C001032
:1020C0000010FC13001C001000000000000E38116E
:1020D000441084108411440E3800000000070008EA
:1020E0008C10441044088807F00000000000000035
:1020F00000030C030C0000000000000000000000C2
:102100000101060000000000000000000000800146
:1021100040022004100808100400000220022002DF
:1021200020022002200220022000000000100408EB
:10213000080410022001400080000000000E001280
:1021400000100C106C10800F00000003E00C18133E
:10215000E4142417C4082807D000000004003C033E
:10216000C41C40074000E4001C000410041FFC11C4
:1021700004110411040E880070000003E00C181014
:10218000041004100410081C10000010041FFC10A0
:102190000410041004080807F0000010041FFC11CC
:1021A00004110417C410040818000010041FFC11C7
:1021B00004110017C010000800000003E00C181004
:1021C00004100410441C780040000010041FFC1090
:1021D000840080008010841FFC1004000010041094
:1021E000041FFC1004100400000000000300011094
:1021F0000110011FFE10001000000010041FFC1150
:102200000403801464181C1004000010041FFC1048
:1022100004000400040004000C000010041FFC1F54
:102220000000FC1F001FFC1004000010041FFC0C29
:1022300004030000E010181FFC100007F00808104D
:102240000410041004080807F0000010041FFC101C
:10225000841080108010800F00000007F008181014
:10226000241024101C080A07F2000010041FFC119F
:1022700004110011C011300E0C000400000E1C11DE
:10228000041084108410441C380000180010001042
:10229000041FFC100410001800000010001FF810AC
:1022A000040004000410041FF8100010001E0011A8
:1022B000E0001C007013801C0010001FC0103C00C8
:1022C000E01F0000E0103C1FC000001004180C16B6
:1022D0003401C001C01634180C100410001C001387
:1022E0000400FC13041C00100000000804101C1063
:1022F00064108413041C0410180000000000000087
:10230000007FFE4002400240020000000030000C4E
:102310000003800060001C00030000000040024039
:102320000240027FFE0000000000000000000020CC
:1023300000400040004000200000000001000100BB
:102340000100010001000100010001000040004007
:1023500000200000000000000000000000009801C4
:102360002401440144014400FC000410001FFC004F
:102370008801040104008800700000000000700063
:1023800088010401040104008800000000007000BE
:10239000880104010411081FFC0004000000F8017A
:1023A0004401440144014400C8000000000104014C
:1023B000040FFC1104110411001800000000D601E4
:1023C000290129012901C90106000010041FFC0090
:1023D0008401000100010400FC0004000001041954
:1023E0000419FC00040004000000000000000300C9
:1023F000010101190119FE0000000010041FFC007A
:1024000024004001B4010C0104000000001004107D
:10241000041FFC0004000400000000010401FC0192
:1024200004010001FC0104010000FC010401FC00A6
:102430008401000100010400FC0004000000F80118
:102440000401040104010400F80000010101FF007F
:102450008501040104008800700000000000700085
:102460008801040104010501FF00010104010401C8
:10247000FC00840104010001800000000000CC0188
:10248000240124012401240198000000000100011E
:102490000007F80104010400000000010001F80039
:1024A0000400040004010801FC0004010001800193
:1024B00070000C001001600180010001F0010C00AF
:1024C0003001C00030010C01F001000000010401E6
:1024D0008C00740170018C01040000010101810174
:1024E00071000E00180160018001000000018401EC
:1024F0000C013401440184010C00000000000000C4
:1025000000000001003EFC4002400200000000000C
:10251000000000FFFF00000000000000004002403B
:10252000023EFC010000000000000000006000808E
:10253000008000400040002000200000000000005B
:10254000000000000000000000000000000000008B
:10255000000000000000000000000000000000007B
:1025600000000000000000000000000000000F80DC
:10257000380FFE380F803800000000000000000017
:102580000000000000000000000100000600000C38
:1025900000003800003100000600000C0000380088
:1025A000003000000000000000000061800067F8BB
:1025B00007F9800061800061800061800061800017
:1025C00067F807F98000618000000000000000004B
:1025D0000001C0E003E0F00630080418081FFFFE09
:1025E000040E080787F00381E000000000000001EE
:1025F000F000060C00040408060C7001F9C0000E7F
:1026000000003BE000EC18070808040C180003E089
:102610000000000001E00007F003F818041C0804A3
:10262000170807E1D003C0E00023B0003C080020F9
:102630000800001000000000000001000031000050
:102640003200001C0000000000000000000000003C
:10265000000000000000000000000000000000007A
:1026600000000000000000000000007F0001FFC02B
:102670000780F00C00181000042000020000000089
:1026800000002000021000040C00180780F001FF79
:10269000C0007F00000000000000000000000000FB
:1026A000000000000000004200006600006600001C
:1026B0003C0000180003FFC0001800003C0000664A
:1026C0000000660000420000000000080000080052
:1026D00000080000080000080001FFC0000800001A
:1026E00008000008000008000008000000000000CA
:1026F0000100003100003200001C0000000000005A
:1027000000000000000000000000000000000000C9
:102710000000000800000800000800000800000891
:102720000000080000080000080000080000080081
:102730000000000000000000000000380000380029
:102740000038000000000000000000000000000051
:102750000000000000000000000000000600001C57
:10276000000070000180000E0000380000C000076B
:1027700000001C0000300000000000000000007F8E
:102780008001FFE0038070060018040008040008C0
:1027900006001803807001FFE0007F800000000049
:1027A000000000000001000801000801000803FF0C
:1027B000F807FFF80000080000080000080000000B
:1027C00000000000000001C03802C0580400980456
:1027D0000118040218040418061C1803F81801E074
:1027E000F800000000000000000001C0E003C0F09D
:1027F00004000804080804080806180803F418016F
:10280000E7F00001E000000000000000000000030D
:1028100000000D00001100006100008108030108A4
:1028200007FFF80FFFF80001080001080000000092
:1028300000000000E007FCD006080806100806109B
:1028400008061008061838060FF00607C00000003A
:10285000000000000000003F8001FFE00384300220
:102860000818041008041008041008071810030FB3
:10287000F00007C000000000000000000003C000DE
:102880000700000600000600F80607F80618000614
:10289000E00007000006000000000000000001E169
:1028A000E003F7F0063410041808041808040C08B4
:1028B000040C0806161803F3F001C1E00000000044
:1028C000000000F80003FC3003063804020804028C
:1028D000080402080404100308F001FFC0007F0090
:1028E00000000000000000000000000000000000E8
:1028F00000000070380070380070380000000000E0
:1029000000000000000000000000000000000000C7
:1029100000000000000000301A00301C0000000021
:1029200000000000000000000000000000000000A7
:102930000000080000140000220000410000808018
:102940000100400200200400100800080000000000
:1029500000000021000021000021000021000021D2
:1029600000002100002100002100002100002100C2
:102970000000000000000000000800080400100231
:10298000002001004000808000410000220000146F
:102990000000080000000000000003C00004C000A8
:1029A000040000080038080F380808380810000C28
:1029B000300007E00003C000000000000000003FFE
:1029C0008000FFE0038070020F1006708804C0884A
:1029D000048308047F8802C09003012000FE4000A9
:1029E00000080000180001F8003E0801C2000702BC
:1029F0000007E20000FE00001FC80001F8000038D8
:102A000000000804000807FFF807FFF8040808049E
:102A1000080804080804080806180803F41801E761
:102A2000F00001E0000000000000003F8001FFE036
:102A30000380700200180400080400080400080461
:102A400000100600200780C000000004000807FFF7
:102A5000F807FFF804000804000804000804001840
:102A600002001003807001FFE0007F80000000047E
:102A7000000807FFF807FFF804080804080804081E
:102A800008040808043E0804000806001801006055
:102A900000000004000807FFF807FFF80408080416
:102AA0000800040800040800043E000600000600B8
:102AB00000018000000000000000003F8001FFE0F6
:102AC00003807006001804000804020804020802CB
:102AD00003F00783F000020000020004000807FF73
:102AE000F807FFF8040808000800000800000800C4
:102AF00000080004080807FFF807FFF804000800B2
:102B0000000000000004000804000804000807FF9B
:102B1000F807FFF80400080400080400080000009B
:102B20000000000000000000060000070000010493
:102B3000000104000104000307FFFE07FFFC04007E
:102B40000004000004000004000807FFF807FFF875
:102B5000040C08001800003E0004C7800503C806E6
:102B600000F804003804001800000804000807FFFB
:102B7000F807FFF80400080000080000080000083B
:102B800000000800000800001800006000000004B9
:102B9000000807FFF807800807FC00007FC000035B
:102BA000F80007C000780007800807FFF807FFF863
:102BB00004000804000807FFF807000803C000002D
:102BC000E000003800001E000007000001C0040003
:102BD000F007FFF8040000000000007F8001FFE024
:102BE000038070060018040008040008060018039B
:102BF000003001FFE0007F8000000004000807FFB4
:102C0000F807FFF8040408040400040400040400A6
:102C1000040400060C0003F80001F00000000000AE
:102C20000000007F8001FFE0038070060088040040
:102C3000880400C806003C03003E01FFE6007F84D4
:102C400000000004000807FFF807FFF80408080464
:102C50000800040C00040F00040BC00610F003F081
:102C60003801E00800000800000001E0F803F0303F
:102C7000063010041808041808040C08040C080294
:102C800006180207F00781E000000001800006003E
:102C90000004000004000004000807FFF807FFF824
:102CA0000400080400000400000600000180000485
:102CB000000007FFE007FFF0040018000008000014
:102CC0000800000800000800000804001007FFE0EA
:102CD00004000004000006000007E00007FE0004F6
:102CE0001FE00001F80000380001E0043E0007C0CA
:102CF0000006000004000004000007E00007FFC019
:102D0000041FF80007C007F80007FF80043FF80021
:102D100007C004F8000700000400000000000400E1
:102D20000806001807C07805F1C8003E00001F80A3
:102D30000463E80780F80600180400080000000497
:102D4000000006000007800007E008047C08001F60
:102D5000F80007F800180804E00807000006000063
:102D60000400000000000100080600380400F80418
:102D700003E8040F08047C0805F00807C0080700F2
:102D800018040060000000000000000000000000C7
:102D90000000000000003FFFFE2000022000022093
:102DA00000022000022000020000000000000000DD
:102DB0000008000007000000C00000380000060006
:102DC0000001C000003000000E0000010000000003
:102DD000000000000020000220000220000220006D
:102DE000022000023FFFFE00000000000000000083
:102DF00000000000000000000000000008000010BB
:102E0000000030000020000030000010000008002A
:102E100000000000000000000001000001000001AF
:102E2000000001000001000001000001000001009D
:102E3000000100000100000100000100000000008E
:102E40000000000020000020000010000010000022
:102E50000000000000000000000000000000000072
:102E600000000000F00019F8001B180022080026DE
:102E700008002408002410003FF8001FF800000894
:102E800000001800000004000007FFF80FFFF0002A
:102E90001818001008002008002008003018001F33
:102EA000F0000FC00000000000000007C0001FF08D
:102EB000001830002008002008002008003C08000E
:102EC0001C1000006000000000000000000000076F
:102ED000C0001FF00038180020080020080020085B
:102EE00004101007FFF80FFFF000001000000000B2
:102EF00000000000000007C0001FF0001230002298
:102F000018002208002208003208001E10000E20BF
:102F10000000000000000020000020080020080140
:102F2000FFF803FFF8062008042008042008072003
:102F30000003000000000000000000000E000E6E04
:102F4000001FF30031B10020B10020B10031910029
:102F50001F13002E1E00200E003000000000040091
:102F60000807FFF80FFFF8001008002000002000FD
:102F7000002008003FF8001FF800000800000000D3
:102F80000000000000002008002008002008063F84
:102F9000F8063FF8000008000008000008000000E4
:102FA000000000000000000000000003000003001B
:102FB0002001002001002003063FFE063FFC000028
:102FC0000000000000000000000004000807FFF8F7
:102FD0000FFFF8000188000300002FC00038F80040
:102FE0002038002008000008000000000000000059
:102FF0000004000804000804000807FFF80FFFF8A9
:1030000000000800000800000800000000000000A8
:103010002008003FF8003FF8001008002000003FA3
:10302000F8003FF8001008002000003FF8003FF8CB
:10303000000008000000002008003FF8003FF800F2
:103040001008001000002000002008003FF8001FBA
:10305000F80000080000000000000007C0000FF0AA
:103060000018300030080020080020080030080058
:103070001830000FF00007C0000000000000002022
:1030800001003FFF003FFF00101100200900200851
:10309000002008003038001FF0000FC000000000C2
:1030A00000000007C0001FF00038180020080020B2
:1030B00008002009001011001FFF003FFF00000161
:1030C000000000002008002008002008003FF80051
:1030D0003FF8000808001008002008002000003019
:1030E00000003000000000000000000000000C782C
:1030F000001E180033080023080021080021880062
:1031000021980030F000386000000000000000202E
:103110000000200000200000FFF003FFF80020085E
:10312000002008002008000030000000000000001F
:103130000000002000003FF0007FF80000180000B1
:1031400008000008002010003FF8007FF000001089
:10315000000000000000002000003000003C0000E3
:103160003F800023F0000078000070002380003CC6
:1031700000003000002000002000003C00003FE084
:103180000023F80000E0002700003E00003FE000C0
:1031900021F80001E0003E000020000000000020B7
:1031A00008002008003838003E680027800003C867
:1031B000002CF8003838002018002008000000001B
:1031C0000000002000003003003C01003F8300238A
:1031D000EC000070002380003C0000200000200074
:1031E0000000000000000000000038080020380047
:1031F00020F80023E8002F88003E0800380800204F
:103200001800007000000000000000000000000036
:103210000000000000000008000014001FF7FC3050
:103220000006200002000000000000000000000076
:1032300000000000000000000000000000FFFFFF91
:10324000000000000000000000000000000000007E
:1032500000000000002000023000061FF7FC0014F0
:103260000000080000000000000000000000000056
:103270000000000000001800006000004000004056
:1032800000002000001000000800000400000400FE
:10329000000C0000100000B5E70200020002007FF1
:1032A000F0421042107FF0421042107FF0420002C4
:1032B00008020801F800000000D7D37FF0002000CA
:1032C00040008001000200FFF8020002000200023C
:1032D00000020002000E0000000000BCBC10201024
:1032E00020102013FEFC201020102015FC18843024
:1032F00088D04810501020105051882606CAF50179
:10330000000120011001107FFC03800540054009E9
:10331000201110210841040102010001000100D226
:10332000BA0080404027F811400140827842481698
:10333000A81AD023502220422042500288000000C8
:1033400000BEA73FE020203FE020203FE00000FD3E
:10335000F885088508FDF885088508FDF8850800CA
:10336000000000B2E200084F8828880AA88AA84A0C
:10337000A80AA82AA82AA84228450884888888106C
:103380003800000000CAD44050204820400FF80008
:1033900040E04027402240224022202A2833A82E05
:1033A00018000800000000B3CC00001BF0E210225F
:1033B0001023F0F800200033F068806080A3F02034
:1033C00080208027F800000000D0F2020001003FBA
:1033D000F820002FF02020224021803FF820882074
:1033E0009040804080838000000000D1D5200010F4
:1033F000F87E20444028F87E8848A850A864A84851
:10340000A872A884501888610800000000C9AB1099
:103410000010003FE0404080807FF04210421042A8
:10342000107FF04000400840083FF800000000CC4A
:10343000EE20802FF8208027F0F41027F0241027AA
:10344000F0241027F03410CFF80220041000000000
:1034500000B3E404000200FFF80800104020207FC1
:10346000F0089008800880088010882088C07800C4
:10347000000000CEC4040002000200FFF81040105B
:10348000400880088005000200050008803060C008
:103490001800000000D7D604000200FFF880088062
:1034A000083FC0008001000200FFF8020002000295
:1034B000000E0000000000CFD43FE0202020203F7D
:1034C000E0202020203FE008804890289028A00895
:1034D000800880FFF800000000CABE00003FE00046
:1034E0000000000000FFF8020012401220221042EB
:1034F00008820802000E0000000000CDBC7FF840EA
:1035000008440847C84848548843084CC8733840A2
:10351000884C08430840887FF800000000C6AC00D3
:10352000802080208020803FF02000200020003F6D
:10353000C02040204020404040804000000000B4B7
:10354000A520403840484091F07D50555055507D61
:103550005055F054407C40545057F88C08000000FF
:1035600000C3FE2220222027F8FA2027F02410276B
:10357000F03410E7F020802FF821402220EC1800D2
:10358000000000CAE440804140F22044108BE8A0D3
:1035900000F78824A827A834A8E7A824A824882509
:1035A000B800000000C8EB0800040004000200029C
:1035B00000050005000880088010401040202040D1
:1035C00010800800000000C8AB02000200050008DF
:1035D0008010402020DFD8020002001FC00200023D
:1035E000000200FFF800000000B3CC00001BF0E276
:1035F00010221023F0F800200033F068806080A3D0
:10360000F02080208027F800000000BCBC20802033
:10361000802080F7F02080208027E03220E22021E7
:1036200040208021402220EC1800000000CAF50252
:1036300000024002200200FFF807000A800A801200
:10364000402220421082080200020000000000D642
:10365000A702000200FFF8020002007FE010201025
:1036600040088005000200050018C0E03800000096
:1036700000B3D62080208023F0F880208027F8280F
:10368000203020E7F82020222021202020E0E00028
:10369000000000D7A8020002007FF004000400FF31
:1036A000F8080010003FE0002000401C80030000EC
:1036B0008000000000D7A201004080200017F00029
:1036C0008080804080008017F01080208020804023
:1036D000804FF800000000C5FA204024402440F448
:1036E000482450276024403440E4402440244025AE
:1036F000482648E43800000000B7A2020022202239
:103700001044007FF8040008000FE0142024404219
:1037100080810006C0383800000000B3C900A00056
:103720009000807FF8408040907C90449044A0447A
:10373000A0444858A84118820800000000B9A6011A
:10374000000100F90023F021102110211021102187
:10375000103910C21002100410086000000000D2DE
:10376000C60000002000780CE47904516810307E17
:103770006019981A3C2FE448E408380030006000D3
:1037800000D1A100000120012003FC6220342004AC
:103790002003FC240021B021202220323E18000FFB
:1037A000E00000D4F10000000010FC1304110C3DF7
:1037B000F8703E10D015907CF0503E18101BFE02A1
:1037C0003000200000CFEE0000000003FE00607C0F
:1037D0004012FC11041106113611241F44794400D3
:1037E000C0009C01860000C4BF000000000FE03C48
:1037F00018200820043E04600460047E0460042055
:103800000C20081FF001800000B6CC000008001159
:10381000FC103E3EF82D8C2904490409043E8C50CE
:10382000FC10881EC811FC100E0000B0B40000008F
:1038300040006012FE13023A427F4410C41BFE3C5B
:10384000987190113011A00078004C0000C8B700AA
:1038500000004000F878C41F8C313821EC2126414B
:103860003A7DE2272225FA3D26012401040000B614
:10387000A80000010001705FFC700420042FF80113
:10388000001100113821C431003F0063E0403800CE
:1038900000B3A4000000000818086008C00B001E58
:1038A00000181C7FF01000118010E01838098E0FEE
:1038B000000000B0B400000040006012FE13023AA5
:1038C000427F4410C41BFE3C987190113011A0003F
:1038D00078004C0000B7B50000000007F80600248F
:1038E0000014F8078C04042408261825F0647C646E
:1038F000C220801FC00000BBD8000000001FF030B5
:10390000182008278C2C44284428442CC4278420C1
:1039100004300C1FF803800000C7B6010021082105
:10392000083FF800202220223EFF42229422103E2F
:1039300010221022283E2822440082CABD004800DE
:103940004400440040FFFE004000403E4008400864
:1039500040082008220F12780A20060002BFAA00A1
:10396000007FFC08200820082008200820FFFE080F
:10397000200820082008201020102020204020B7F8
:10398000A201001110110822003FFC0200040007F0
:10399000F80A080908111010A0204040A003181CC4
:1039A00006CDF800007FFC40044004421452944AC3
:1039B00054442444244A544A5452946104400440D8
:1039C000144008D6D001000100010001003FF82199
:1039D0000821082108210821083FF82108010001D9
:1039E0000001000100CEC4020001000100FFFE1032
:1039F00010101008200820044002800100028004FA
:103A00004008203018C006B2E2000427C414441451
:103A100054855445544554155415542554E55421A2
:103A2000042284224424140808CAD4002820241024
:103A300024102007FE0020F02017E01120111011A3
:103A400010151019CA170A02060002000000000033
:103A50000000000000000000000000000000000066
:103A600000000000000000000000000000B4F300AF
:103A700000000000000018000010000010000010FE
:103A80000000100000100C3FFFFE001000001800A6
:103A90000018000034000034000022000062000022
:103AA000410000C1800080C00100600600380800AD
:103AB0001C300000000000D4BD0000000000000326
:103AC00000C00200B00200980260881F888C020FBC
:103AD000F0020C80022C887FDC88030C901B0CD039
:103AE0001B0C6013EE60131E64130CF413019C1B7B
:103AF000020C27040421D800407FFC4007F8000096
:103B000000B4B400000000000003800803000C02B1
:103B1000E00C06300C04198C08088C08008C182066
:103B20008C2FF08C48208C08208C08208C08208C4E
:103B300008608C09C10C08080C08080C08080C0C5B
:103B40000C0C07FC78000010000000D0C200000040
:103B500000000002000801003C0133C03EC2000822
:103B60006200044200048200049A0C3FFFFE01023E
:103B7000300102300112301FE2300102300D4230BC
:103B8000193630111430211430210830471030021A
:103B90002030000000D2BA00000000000000060043
:103BA0001803000C020C04FDF00119800111004201
:103BB00033083222F812421812651004E490056AA4
:103BC000B0056A200A71200861403860C01860C0E2
:103BD00018616018623018641E087800000000BE8A
:103BE000A700000000000001004001FFC0010040EC
:103BF00001004001FFC001004001004001FFC00181
:103C000000400000001064081FE7F8104608104646
:103C1000081046081FC7F810460810460810460846
:103C20001FC7F8104608000000C6C10000000000D1
:103C3000000800000FFFF80C00180C00180FFFF828
:103C40000C40900C30C00C10800C11100DFFF808C7
:103C5000308008308008308808309C1FFFE010203A
:103C60008010208020608020408040808003008081
:103C7000000000B2E200000000000011000C09FE8C
:103C8000080D860805864801A64841B64833B6485F
:103C900013B64815B64805B64805B64805B64809EE
:103CA000A64809A64839A4481820481858081844B6
:103CB00008188608190238060018000000CAD40047
:103CC00000000000000001A01001D80800880C00CE
:103CD0008804008400FFFE00008000008004008053
:103CE0003C0280047DC00408C0040840040840046D
:103CF0004860048822050F3407381406E01C0400CD
:103D00000E0000060000000000000000000000009F
:103D100000000000000000000000000000000000A3
:103D20000000000000000000000000000000000093
:103D30000000000000000000000000000000000083
:103D40000000000000000000000000000000000073
:103D500000000000743D0008000000203800000052
:103D600028010008AC3D000838000020480700008A
:103D7000440100080000000000A24A040000000006
:103D8000000000000102030406070809000000000B
:103D90000000020406080000000001020304010202
:0C3DA00003040607080900000000FFFFF4
:040000050800018965
:00000001FF
