:020000040800F2
:100000006807002089010008C104000807040008EF
:10001000BD040008D5020008E70900080000000040
:100020000000000000000000000000002D06000895
:10003000D90200080000000035050008410700084B
:10004000A3010008A3010008A3010008A301000800
:10005000A3010008A3010008A3010008A3010008F0
:10006000A3010008A3010008A3010008A3010008E0
:10007000A3010008A3010008A3010008A3010008D0
:10008000A3010008A3010008A3010008A3010008C0
:10009000A3010008A3010008A3010008A3010008B0
:1000A000A3010008A3010008A3010008A3010008A0
:1000B000A3010008A3010008A3010008A301000890
:1000C000A3010008A3010008A3010008A301000880
:1000D000A3010008A5070008A3010008A301000868
:1000E000A3010008A3010008A301000800F002F822
:1000F00000F03AF80AA090E8000C82448344AAF188
:100100000107DA4501D100F02FF8AFF2090EBAE885
:100110000F0013F0010F18BFFB1A43F0010318473B
:10012000AC0B0000CC0B0000103A24BF78C878C19B
:10013000FAD8520724BF30C830C144BF04680C60ED
:10014000704700000023002400250026103A28BF35
:1001500078C1FBD8520728BF30C148BF0B60704739
:100160001FB51FBD10B510BD00F06EF81146FFF7AA
:10017000F7FF00F093FC00F0A0F803B4FFF7F2FFE4
:1001800003BC00F032FC00000948804709480047E2
:10019000FEE7FEE7FEE7FEE7FEE7FEE7FEE7FEE737
:1001A000FEE7FEE704480549054A064B7047000094
:1001B00045070008ED0000086801002068070020DE
:1001C0006803002068030020704700000FB4044952
:1001D00010B503AA029800F009F810BC5DF814FBF2
:1001E000200000207047704770477047074B70B57C
:1001F0000D467B4400F011F80446284600F020F834
:1002000010B14FF0FF3070BD204670BD8B0800006C
:1002100001694A1C02610878704700B58FB0CDE9CA
:1002200001310021059105497944CDE903101146BA
:10023000684600F02EF80FB000BD0000E5FFFFFF9C
:10024000007B00F080007047754600F03FF8AE4636
:1002500005006946534620F00700854618B020B5D2
:10026000FFF7A0FFBDE820404FF000064FF0000769
:100270004FF000084FF0000B21F00701AC46ACE84E
:10028000C009ACE8C009ACE8C009ACE8C0098D46BB
:1002900070472DE9F04106460024D6E90170F56863
:1002A0008046304603E04146B847641C3046A847C4
:1002B0000028F8D12046BDE8F08110B50446AFF320
:1002C00000802046BDE81040FFF757BF0048704748
:1002D0000401002000BFFEE770472DE9F04102460F
:1002E00000250026002000230024002791F803C0E9
:1002F0000CF00F0591F803C00CF0100CBCF1000FCE
:1003000003D091F802C04CEA050591F800C0BCF199
:10031000000F31D0146800202BE04FF0010C0CFAD4
:1003200000F3B1F800C00CEA03069E4220D183001E
:100330004FF00F0C0CFA03F7BC4305FA03FC4CEA30
:10034000040491F803C0BCF1280F06D14FF0010C52
:100350000CFA00FCC2F814C00AE091F803C0BCF12A
:10036000480F05D14FF0010C0CFA00FCC2F810C088
:10037000401C0828D1D31460B1F800C0BCF1FF0FB5
:1003800034DD546800202EE000F1080C4FF0010825
:1003900008FA0CF3B1F800C00CEA03069E4221D122
:1003A00083004FF00F0C0CFA03F7BC4305FA03FC73
:1003B0004CEA040491F803C0BCF1280F05D100F108
:1003C000080C08FA0CF8C2F8148091F803C0BCF1CC
:1003D000480F07D100F1080C4FF0010808FA0CF89B
:1003E000C2F81080401C0828CED35460BDE8F081CC
:1003F0000246002093680B400BB1012000E0002072
:1004000070470161704700BFFEE701B502E0009848
:10041000401E009000980028F9D108BD08B50121C0
:10042000042000F089F80120ADF800008DF80200EA
:1004300028208DF8030069460148FFF74EFF08BDEC
:100440000008014070B504460D4629462046FFF7D6
:10045000CFFF012814D141F28830FFF7D6FF29469B
:100460002046FFF7C5FF012808D100BF29462046D6
:10047000FFF7BEFF0128F9D0012070BD0020FCE786
:100480000020FAE708B50121102000F055F84FF4DC
:100490000050ADF8000010208DF8030003208DF807
:1004A000020069460448FFF718FF4FF40051024864
:1004B000FFF7A7FF08BD00000010014000BFFEE7E6
:1004C0007047000070B5002100230F22C47804B3E8
:1004D000154C246804F4E064C4F5E064210AC1F119
:1004E0000403CA40447804FA03F184781440214399
:1004F00009010E4C0678A155047804F01F0501246B
:10050000AC4005786D11AD0005F1E025C5F800415E
:1005100009E0047804F01F050124AC40044D06787E
:10052000761145F8264070BD0CED00E000E400E0D7
:1005300080E100E07047000029B1064A9269024359
:10054000044B9A6104E0034A92698243014B9A6129
:10055000704700000010024030B500210022002446
:1005600000232D4D6D6805F00C0121B1042905D043
:10057000082923D105E0294D056022E0274D0560BB
:100580001FE0254D6D6805F47012234D6D6805F46C
:100590008034022505EB92421CB9214D554305607C
:1005A0000BE01D4D6D6805F400351DB11C4D554324
:1005B000056002E0194D5543056002E0174D0560E6
:1005C00000BF00BF144D6D6805F0F0010909154D1D
:1005D0006B5C0568DD4045600F4D6D6805F4E061BA
:1005E000090A104D6B5C4568DD4085600A4D6D68F9
:1005F00005F46051C90A0B4D6B5C4568DD40C56070
:10060000054D6D6805F44041890B074D6B5CC5686D
:10061000B5FBF3F5056130BD0010024000127A0011
:1006200000093D002600002036000020704710B56C
:1006300000F002F810BD00000CB500200190009001
:100640003348006840F480303149086000BF3048CA
:10065000006800F4003000900198401C0190009860
:1006600018B90198B0F5A06FF1D12948006800F4DD
:10067000003010B10120009001E0002000900098AF
:10068000012843D12348006840F010002149086048
:100690000846006820F0030008600846006840F043
:1006A000020008601A4840681949486008464068D6
:1006B00048600846406840F48060486008464068EA
:1006C00020F47C1048600846406840F4E810486018
:1006D0000846006840F08070086000BF0C48006861
:1006E00000F000700028F9D00948406820F00300AD
:1006F000074948600846406840F00200486000BF73
:100700000348406800F00C000828F9D10CBD000037
:100710000010024000200240042808D14FF0E021E0
:10072000096941F004014FF0E022116107E04FF048
:10073000E021096921F004014FF0E02211617047C6
:100740007047000010B51348006840F001001149DF
:10075000086008464068104908400E49486008464D
:1007600000680E4908400B4908600846006820F4FC
:10077000802008600846406820F4FE0048604FF47E
:100780001F008860FFF753FF4FF0006004490860C6
:1007900010BD0000001002400000FFF8FFFFF6FE51
:1007A00008ED00E010B540F225511D4800F057F863
:1007B00010B31B4800F00EF9C4B21A48008800F4C8
:1007C0000040C8B91748008800F4804060B10A2C86
:1007D00003D000201349088020E01248008840F42C
:1007E00000401049088019E00D2C06D10D48008802
:1007F00040F480400B49088010E00A480088C0F3AC
:100800000D0009490C5407480088401C0549088020
:1008100008460088C72801DD0020088010BD0000C0
:1008200000380140240000203C00002021B18289D2
:1008300042F40052828104E082894DF6FF731A402F
:100840008281704702460020B1F5007F00D100BFD1
:1008500013880B400BB1012000E00020704770B5F9
:100860000246002400230025002040F66A16B1420B
:1008700000D100BFC1F3421501F01F03012606FAA3
:1008800003F3012D02D19689334006E0022D02D1F7
:10089000168A334001E0968A33400C12012606FA8C
:1008A00004F41688344013B10CB1012000E000209C
:1008B00070BDF0B50346002400260025002040F658
:1008C0006A17B94200D100BF1846C1F3421401F0C3
:1008D0001F06012707FA06F5012C01D10C3004E0B0
:1008E000022C01D1103000E014301AB107682F43F8
:1008F000076002E00768AF430760F0BD2DE9F047ED
:1009000086B005460E460024A24600BFA146002739
:10091000B08900B100BF2F462C8A4CF6FF7004400E
:10092000F08804432C82AC894EF6F3100440B08862
:1009300031890843718908430443AC81AC8A4FF67E
:10094000FF400440B0890443AC8201A8FFF704FED5
:100950001F48874202D1DDF810A001E0DDF80CA0AD
:10096000A88900F4004040B10AEBCA0000EB0A106D
:1009700031684900B0FBF1F807E00AEBCA0000EB70
:100980000A1031688900B0FBF1F86420B8FBF0F080
:1009900004012009642101FB1089A88900F40040AA
:1009A00040B1322000EBC900B0FBF1F000F00700CD
:1009B000044308E0322000EB09106421B0FBF1F0A1
:1009C00000F00F0004432C8106B0BDE8F087000062
:1009D0000038014001468888C0F308007047C1F321
:1009E00008028280704700BFFEE700BF704700002A
:1009F00010B56FF00400FFF78FFE0A4800680A493F
:100A0000B0FBF1F0094908800846008800EB40017E
:100A1000C1EBC0104FF6FF7101EAC0000449088025
:100A200010BD00000800002000127A001C00002009
:100A30001E0000200146114A12884A434FF0E0236D
:100A40005A6100229A611A46126942F001021A6143
:100A500000BF4FF0E022106900F001021AB100F46B
:100A60008032002AF5D04FF0E022126922F0010214
:100A70004FF0E0231A6100229A6170471E000020A7
:100A800000BF054A128802F04002002AF9D0C2B223
:100A9000014B1B1D1A80704700380140FFF7A8FF6B
:100AA000FFF7F0FCFFF7BAFC4FF4E13000F0BEF8BE
:100AB00072E03A48008800F4004000282CD0374803
:100AC0000088C0F30D003649088036A0FFF77EFB92
:100AD00000203A49088012E03948384A1288815C7F
:100AE0003848FFF77CFF00BF40213648FFF7AAFED9
:100AF0000128F9D131480088401C304908802F482E
:100B00000088274909888842E6DB2FA0FFF75EFBB3
:100B100000202249088031E02D480088401C2C49E3
:100B200008800846008841F2883190FBF1F201FB11
:100B3000120028B927A0FFF749FB2DA0FFF746FBBD
:100B400023480088C82190FBF1F201FB120010B984
:100B50002DA0FFF73BFB1E4800881E2190FBF1F201
:100B600001FB120038B92F48006808B9012000E0E5
:100B700000202C4908600A20FFF75CFF01212A4869
:100B8000FFF760FC012807D12648006808B901205A
:100B900000E00020234908608BE7000024000020CB
:100BA000020000200D0AC4FAB7A2CBCDB5C4CFFB1A
:100BB000CFA2CEAA3A0D0A0D0A00000000000020C4
:100BC0003C000020003801400D0A0D0A0000000022
:100BD000040000200D0A2053544D3332BFAAB7A29F
:100BE000B0E520B4AEBFDA3120B2E2CAD40D0A00BB
:100BF0006D63756465762E74616F62616F2E636FCD
:100C00006D0D0A0D0A000000C7EBCAE4C8EBCAFD6F
:100C1000BEDD2CD2D4BBD8B3B5BCFCBDE1CAF80A4A
:100C200000000000B40122420008014010B586B067
:100C30000446012144F20400FFF77EFC4FF40070EB
:100C4000ADF8140003208DF8160018208DF8170059
:100C500005A91C48FFF741FB4FF48060ADF8140074
:100C600004208DF8170005A91648FFF736FB25204C
:100C70008DF8000003208DF801008DF8020001209E
:100C80008DF803006846FFF71DFC01940020ADF8C5
:100C90000800ADF80A00ADF80C00ADF810000C200B
:100CA000ADF80E0001A90848FFF728FE012240F226
:100CB00025510548FFF7FDFD01210348FFF7B6FD6B
:100CC00006B010BD0008014000380140EC0C0008DF
:100CD000000000203C00000028010008280D00084A
:100CE0003C0000202C070000440100080000000028
:100CF0000000000000A24A04000000000000000004
:100D000001020304060708090000000000000000BB
:100D100000000000000001020304010203040607B2
:080D20000809020406080000A6
:040000050800018965
:00000001FF
