:020000040800F2
:100000007807002089010008D3110008FD0A0008C4
:10001000D1110008390200080D1900080000000085
:10002000000000000000000000000000FD120008B9
:10003000D90200080000000039120008EF1400087F
:100040001D190008A3010008A3010008A30100086E
:10005000A3010008A3010008490300088D0300085C
:10006000C5030008FD030008A3010008A301000860
:10007000A3010008A3010008A3010008A3010008D0
:10008000A3010008A3010008A3010008A3010008C0
:10009000A3010008A3010008A3010008A3010008B0
:1000A000A3010008A3010008A3010008A3010008A0
:1000B000A301000841150008A3010008A3010008DE
:1000C000A3010008A3010008A3010008A301000880
:1000D000A301000871170008A3010008A30100088C
:1000E000A3010008A3010008A301000800F002F822
:1000F00000F03AF80AA090E8000C82448344AAF188
:100100000107DA4501D100F02FF8AFF2090EBAE885
:100110000F0013F0010F18BFFB1A43F0010318473B
:10012000B83C0000D83C0000103A24BF78C878C121
:10013000FAD8520724BF30C830C144BF04680C60ED
:10014000704700000023002400250026103A28BF35
:1001500078C1FBD8520728BF30C148BF0B60704739
:100160001FB51FBD10B510BD00F033F81146FFF7E5
:10017000F7FF01F029FC00F051F803B4FFF7F2FF9C
:1001800003BC01F0E9FB000009488047094800472B
:10019000FEE7FEE7FEE7FEE7FEE7FEE7FEE7FEE737
:1001A000FEE7FEE704480549054A064B7047000094
:1001B000F1140008ED000008780100207807002005
:1001C000780300207803002070477047704770471D
:1001D0007047754600F02CF8AE4605006946534658
:1001E00020F00700854618B020B5FFF7DBFFBDE81B
:1001F00020404FF000064FF000074FF000084FF08E
:10020000000B21F00701AC46ACE8C009ACE8C0091E
:10021000ACE8C009ACE8C0098D46704710B504468B
:10022000AFF300802046BDE81040FFF7A6BF0000F6
:100230000048704714010020FEE700002DE9F0435C
:100240000D4D1F46164688468146002404EB0410D7
:1002500015F81010B14209D105EB40014878B842B9
:1002600004D142464846891C00F02AF8641CA4B216
:10027000382CEBD3BDE8F0831C3300082DE9F043A4
:100280000E4D1F46164688468146002404EB840026
:1002900000EB441015F81010B14209D105EB4001F4
:1002A0004878B84204D142464846891C00F008F814
:1002B000641CA4B2092CE9D3BDE8F083F23A00082B
:1002C00010B5002305E000BF11F8014B00F8014B09
:1002D0005B1C9342F8D310BD70470000F0B50C4D85
:1002E0000C4F85B02C886D883F884FF0100CCDE9FD
:1002F000003CCDE90227241A6D1AA4B2ADB2002643
:1003000004962B46224600F0D7FA05B0F0BD000057
:1003100004010020380000202DE9FF41094D00268E
:1003200010272C886D88CDE90037CDE90226241AE4
:100330006D1AA4B2ADB22B46224601F07FF8BDE89B
:10034000FF8100000401002010B50A2001F022FB0B
:1003500001210B4800F09EFB01280AD10948D0F882
:10036000B41159B15FF00001C0F8B4110649002082
:100370000870BDE81040012000F0D6B80121F3E775
:1003800000080140000022420000002010B50A20B1
:1003900001F000FB0221094800F07CFB30B908485D
:1003A000D0F8B41139B10021C0F8B411BDE8104043
:1003B000022000F0B9B80121F6E700000008014072
:1003C0000000224210B50A2001F0E4FA0421094895
:1003D00000F060FB30B90848D0F8B41139B1002101
:1003E000C0F8B411BDE81040042000F09DB8012110
:1003F000F6E70000000801400000224210B50A2084
:1004000001F0C8FA0821094800F044FB30B9084857
:10041000D0F8B41139B10021C0F8B411BDE81040D2
:10042000082000F081B80121F6E700000008014033
:100430000000224208B50121042000F00BFF0E202D
:10044000ADF8000048208DF803006946014800F02F
:10045000A3FA08BD00080140FEB500F083FBFFF7DA
:10046000E9FF0121084600F0F5FE0121002000F01F
:100470007FFA00278DF808700C208DF809000225FE
:10048000012401958DF80A4001A800F053F80221DB
:10049000002000F06DFA0420019001A800F04AF855
:1004A0000321002000F064FA082601A8019600F05C
:1004B00041F80021084600F05BFA01948DF80960CC
:1004C00001A800F037F806208DF800008DF80150E3
:1004D00003208DF802008DF80340684600F07AFE94
:1004E00007208DF800008DF801508DF802508DF82E
:1004F0000340684600F06EFE8DF800608DF80150F4
:100500008DF802408DF80340684600F063FE092034
:100510008DF800008DF801508DF802708DF80340C1
:10052000684600F057FEFEBD0149086070470000B4
:100530001404014030B51A498379026853B30B683B
:1005400093430B600A1D13680468A3431360027988
:100550000A441368046823431360114A083213687D
:100560000468A3431360131D1C680568AC431C603A
:100570004479102C05D021440A68006802430A60BF
:1005800030BD116804682143116019680068014397
:10059000196030BD0079084401689143016030BDA5
:1005A000000401402DE9F041DFF85C800C4606466E
:1005B0004FF4805715463946404600F074FA05203E
:1005C00000F0C9F9032000F09BFAC4F3074000F0E3
:1005D00097FAC4F3072000F093FAE0B200F090FA23
:1005E000002405E0FF2000F08BFA3055641CA4B213
:1005F000AC42F7D33946404600F053FABDE8F0412B
:10060000052000F0A8B90000000C014030B40C46F1
:100610000178202A1BD00ADC0C2A0ED0102A14D014
:10062000182A18D10D4800BF01FB030108E0302A49
:100630000FD0402A0FD10A48F6E7594301F50021AF
:10064000204630BC1A46FFF7ADBF0648ECE7064827
:10065000EAE70648E8E730BC7047000000120800EF
:100660000092080000080800002608000048080062
:1006700030B40C46014600784978812809D34029D6
:1006800007D3FF2905D0FF2803D07F290CD240399A
:100690000BE00020014603E0401C04F8011B80B27F
:1006A0009842F9D330BC704741398138C0B2C0EBB1
:1006B0004015C9B205EB801001EB400159430C2AEB
:1006C0000CD0102A0CD0182A0DD0202AEAD101F51E
:1006D0006011204630BC1A46FFF764BF034800E0B3
:1006E00003480144F5E701F5ED11F2E700140900B4
:1006F00000DD1100AFF3008070B586B04FF6FF70DB
:1007000000F044FA002005466C462554401CC0B257
:100710001828FAD3112200212046FFF743FF4FF497
:10072000784610216B4632460846FFF7D7FD002079
:100730002554401CC0B21828FAD308221421684658
:10074000FFF730FF6B46324620211020FFF7C6FD31
:1007500000202554401CC0B21828FAD308221E21BC
:100760006846FFF71FFF6B46324630211020FFF727
:10077000B5FD642001F00EF906B070BD2DE9FF4F04
:10078000C1B01C46DDF840B116460D4689465807F3
:1007900000D0012000EBD401600841438A460C2CB4
:1007A00009D0102C07D0182C05D0202C03D0302CC9
:1007B00001D0402C31D10B46224669463046FFF726
:1007C00025FF002627E000BF1DF806704FF0000847
:1007D000380601D54E9A03E0BBF1000F04D14F9AC1
:1007E0002946419800F03CFA78066D1C070EADB220
:1007F000A5EB0900A04205D141984D46401C80B2AE
:10080000419006E008F101001FFA80F8B8F1080FE6
:10081000DED3761CB6B25645D6D345B0BDE8F08FD0
:100820002DE9FF4FA1B01C46DDF8C0B016460D46BD
:100830008946580700D0012000EBD40161438A4665
:100840000C2C05D0102C03D0182C01D0202C30D12A
:100850000B46224669463046FFF70AFF002626E08F
:100860001DF806704FF00008380601D52E9A03E0F7
:10087000BBF1000F04D12F9A2946219800F0F0F91E
:1008800078066D1C070EADB2A5EB0900A04205D19C
:1008900021984D46401C80B2219006E008F10100ED
:1008A00000F0FF08B8F1080FDED3761CF6B256450B
:1008B000D6D325B0BDE8F08F2DE9FE4F0446DDE923
:1008C0000C6780463078DDF840B00D46002820D017
:1008D000E81808EB020AA0EB0709307880281AD93B
:1008E000AAEB0700A04202DAE81985B24446A945FE
:1008F0000FDBDDE90E028DE805083B46324629464E
:100900002046FFF78DFFE01984B216F8020F002889
:10091000E3D1BDE8FE8FAAEB5701A14202DAE91943
:100920008DB24446A945F4DB0D280FD0DDE90E1247
:100930008DE806083B46324629462046FFF71EFF53
:1009400004EB570084B216F8010FE0E7E81985B20E
:100950004446761CF4E7002206E00021491CC9B297
:100960006429FBD3521CD2B28242F6D370470000F6
:1009700010B58A0721F003040649130F21440F2202
:100980008C689A4094438C608A68984002438A60DD
:1009900010BD000000000140F0B5CA78002502F04B
:1009A0000F03D20601D58A7813430A784FF00F0E51
:1009B00012F0FF0F4FF001021CD004680F8802FAFA
:1009C00005F63740B74211D14FEA850C0EFA0CF705
:1009D00024EA070703FA0CF43C43CF78282F02D00F
:1009E000482F02D002E0466100E006616D1C082D30
:1009F000E4D304600C88FF2C1ED944685FF0000625
:100A000006F1080702FA07F50F882F40AF420FD111
:100A10004FEA860C0EFA0CF7BC4303FA0CF73C4382
:100A2000CF78282F00D14561CF78482F00D10561BC
:100A3000761C082EE4D34460F0BD0000F0B5144CE1
:100A4000002801DAE36900E06368420D120185B213
:100A5000C0F301579540C0F30346032F05D0C202EF
:100A60000AD50322B240934307E023F07062636823
:100A700023F07063636002E0AB4343F0706201B146
:100A80002A43002801DAE261F0BD6260F0BD000097
:100A9000000001400246002092680A4200D0012076
:100AA0007047416170470161704770B415461E463A
:100AB000027843780C46812A10D3402B0ED3FF2BAB
:100AC0000CD0FF2A0AD00C2E11D0102E11D0182EC7
:100AD0000DD12946204670BCFFF7D0BB002001464F
:100AE00003E0401C04F8011BC0B2A842F9D370BC5B
:100AF00070472946204670BCFFF7A0BBFEE7000008
:100B00002DE9F047164F002405464FF400497E14A6
:100B10004FF4804A28064946384602D5FFF7C3FFFE
:100B200001E0FFF7BEFF31463846FFF7BAFF68061F
:100B30004FEA106851463846FFF7ACFF40EA080517
:100B400031463846FFF7AFFF641CE4B2082CE1D30E
:100B500031463846FFF7A7FF2846BDE8F08700007A
:100B6000000C014008B50121042000F073FB0120B6
:100B7000ADF800008DF8020028208DF803006946CA
:100B80000148FFF709FF08BD000801402DE9F041C9
:100B90000D4D002407466B882A882146204600F028
:100BA000EBF92E88688800214643084600F0BEF91C
:100BB00000F0E2FA03E0384600F092FA641CB44216
:100BC000F9D3BDE8F0810000040100202DE9F041D7
:100BD000002580212C22204F204C2A234FF02B0C63
:100BE00030B101280DD0012602281ED0032825D0BF
:100BF000A5712180618022816381A4F80CC0C82185
:100C000007E0A5712180618022816381A4F80CC076
:100C10004821362000F0B6FA3D7063882288BDE88E
:100C2000F0410021084600F0A7B9A671218061803B
:100C300022816381A4F80CC0A82107E0A67121805D
:100C4000618022816381A4F80CC06821362000F005
:100C500099FA3E70E1E70000340000200401002012
:100C600010B5144600F062F90448008900F06CFAEF
:100C70002046BDE8104000F033BA00000401002017
:100C8000F8B501210C2000F0E5FA4BF20200ADF8B6
:100C900000000324134F8DF8024010258DF80350F7
:100CA00069463846FFF778FE2E01ADF800608DF8F2
:100CB00002408DF803500C4D69462846FFF76CFE44
:100CC000B001ADF800008DF8024048208DF8030017
:100CD00069463846FFF760FE31462846FFF7E3FED7
:100CE000F8BD0000000C01400008014010B5FFF7FE
:100CF000C7FF00F0EBF9112000F026FA782000F091
:100D000049FEB12000F020FA012000F005FA2C2065
:100D100000F002FA2D2000F0FFF9B22000F014FAE2
:100D2000012000F0F9F92C2000F0F6F92D2000F058
:100D3000F3F9B32000F008FA012000F0EDF92C20BF
:100D400000F0EAF92D2000F0E7F9012000F0E4F9C5
:100D50002C2000F0E1F92D2000F0DEF9B42000F0A5
:100D6000F3F9072000F0D8F9C02000F0EDF9A22037
:100D700000F0D2F9022000F0CFF9842000F0CCF985
:100D8000C12000F0E1F9C52000F0C6F9C22000F052
:100D9000DBF90A2000F0C0F9002000F0BDF9C32003
:100DA00000F0D2F98A2000F0B7F92A2000F0B4F957
:100DB000C42000F0C9F98A2000F0AEF9EE2000F05E
:100DC000ABF9C52000F0C0F90E2000F0A5F93620DF
:100DD00000F0BAF9C82000F09FF9E02000F0B4F963
:100DE0000F2000F099F91A2000F096F90F2000F07A
:100DF00093F9182000F090F92F2000F08DF92820A9
:100E000000F08AF9202000F087F9222000F084F910
:100E10001F2000F081F91B2000F07EF9232000F054
:100E20007BF9372000F078F9002000F075F90720F1
:100E300000F072F9022000F06FF9102000F06CF958
:100E4000E12000F081F90F2000F066F91B2000F08E
:100E500063F90F2000F060F9172000F05DF93320EE
:100E600000F05AF92C2000F057F9292000F054F92D
:100E70002E2000F051F9302000F04EF9302000F023
:100E80004BF9392000F048F93F2000F045F90020E7
:100E900000F042F9072000F03FF9032000F03CF990
:100EA000102000F039F92A2000F04EF9002000F05F
:100EB00033F9002000F030F9002000F02DF97F20F8
:100EC00000F02AF92B2000F03FF9002000F024F96F
:100ED000002000F021F9002000F01EF99F2000F012
:100EE0001BF9F02000F030F9012000F015F9F62090
:100EF00000F02AF9002000F00FF93A2000F024F960
:100F0000052000F009F9292000F01EF90020FFF764
:100F10005DFE4FF480710448FFF7C5FDBDE8104049
:100F20004FF6FF70FFF732BE0008014070B505466E
:100F30000F48104E0C460178708971B100F004F929
:100F4000ED1CA8B200F0CCF8B08900F0FDF8A41CAC
:100F5000A0B2BDE8704000F0C3B800F0F5F8AD1CD9
:100F6000A8B200F0BDF8B08900F0EEF8E41CEFE79D
:100F700034000020040100202DE9F0410546104412
:100F8000401E87B2C818401E86B21A480C46027826
:100F90001948804641890846BAB100F0D5F8ED1CE1
:100FA000A8B200F09DF8FF1CB8B200F099F8B8F8AC
:100FB0000C0000F0C9F8A41CA0B200F091F8B61C17
:100FC000B0B2BDE8F04100F08BB800F0BDF8AD1C48
:100FD000A8B200F085F8BF1CB8B200F081F8B8F8EC
:100FE0000C0000F0B1F8E41CA0B200F079F8F61C97
:100FF000E6E7000034000020040100202DE9FF5F37
:101000001D460C468A46580700D0012000EBD5004B
:1010100069084843203A00F0FF09D0B20026DFF803
:1010200098B0029044E00C2D11D0102D14D0182D42
:1010300040D10298214900EBC00000BF01EB8000C5
:101040004FF00008875D38060BD50E9A0DE0029828
:101050001B4900EB4000F1E71A49029801EB001030
:10106000EEE70F9828B91848828821460098FFF7C4
:10107000F7FD7806070E641CBBF80200A4B2A0427C
:1010800018D9A4EB0A00A84209D100985446401C84
:1010900080B20090BBF8001081420BD906E008F145
:1010A000010000F0FF08B8F1080FCCD3761CF6B2AF
:1010B0004E45B8D3BDE8FF9F04010020C0250008BD
:1010C0005C1B0008D01F00083400002010B5012070
:1010D00000F03AF8BDE81040642000F05BBC00006E
:1010E00070B50C4E04464FF4805529463046FFF744
:1010F000D8FC02213046FFF7D6FC200AFFF700FD9E
:10110000E0B2FFF7FDFC29463046BDE87040FFF72E
:10111000CABC0000000C014070B50A4D06464FF4F1
:10112000805421462846FFF7BCFC02212846FFF7E1
:10113000BAFC3046FFF7E4FC21462846BDE8704083
:10114000FFF7B1BC000C014070B50A4E04464FF4E5
:10115000805529463046FFF7A4FC02213046FFF7B0
:10116000A0FCE0B2FFF7CCFC29463046BDE8704059
:10117000FFF799BC000C014001480089FFF7E4BF6C
:101180000401002010B50C46FFF7DEFFE0B2BDE819
:101190001040FFF7C1BF000038B50121102000F05A
:1011A00059F84FF40054ADF8004010208DF80300BA
:1011B0000320064D8DF8020069462846FFF7ECFB38
:1011C00021462846FFF76FFC38BD000000100140A3
:1011D000FEE7704770B50F23C47801780122F4B19F
:1011E000144C2468457804F4E064C4F5E064240AEF
:1011F000C4F10406E3408478B5401C402C4301F15F
:10120000E021230181F80034007800F01F018A40BA
:101210004009800000F1E020C0F8002170BD01F01D
:101220001F0082404809800000F1E020C0F88021C2
:1012300070BD00000CED00E070470000044A00297A
:10124000D16901D0014300E08143D16170470000C2
:1012500000100240044A0029916901D0014300E0D6
:1012600081439161704700000010024030B51F4972
:101270004A6812F00C031E4A03D0042B01D0082B3D
:1012800021D002604A680F231A4C03EA1212A35CB1
:101290000268DA4042604B68072505EA1323E35CE5
:1012A00022FA03F383604B6805EAD323E35CDA4058
:1012B000C2604968032303EA9131231F595CB2FBE2
:1012C000F1F1016130BD4A684B6802F470124FF0D1
:1012D000020413F4803F04EB924202D04B689B035C
:1012E00001D5054B00E0024B5A43CAE7001002400B
:1012F00000127A002400002000093D007047000021
:101300000CB50021264801910091026842F4803218
:1013100002604FF4A063026802F400320092019A66
:10132000521C0192009A12B9019A9A42F3D10268B2
:10133000920333D5012100911A490A6842F0100244
:101340000A600A6822F003020A600A6842F0020298
:101350000A604168416041684160416841F48061D0
:101360004160416821F47C114160416841F4E81119
:101370004160016841F08071016001688901FCD51C
:10138000416821F003014160416841F00201416080
:101390004168C1F381010229FAD10CBD00910CBD55
:1013A00000100240002002402DE9F04F0446814623
:1013B00093B01D4616468A46580700D0012000EB20
:1013C000D5006843C0B283460C2D03D0102D01D048
:1013D000182D2DD1024669463046FFF766FB0020E6
:1013E00023E000BF1DF808700026380601D51C9ABE
:1013F00003E01D9828B91048028851462046FFF79F
:101400002FFC7806641C070EA4B2A4EB0900A842C6
:1014100004D10AF101004C461FFA80FA761CF6B29C
:10142000082EE2D308F10100C0B280465845D9D356
:1014300013B0BDE8F08F0000380000202DE9FC5FFC
:101440000446DDE90C6780463078DDF83CB00D4697
:1014500000281FD0E81808EB020AA0EB0709327831
:10146000802A19D9AAEB0700A04202DAE81985B24E
:101470004446A9450EDB0E99CDE9001B3B4632469A
:1014800029462046FFF790FFE01984B216F8020FB4
:101490000028E4D1BDE8FC9FAAEB5700A04202DA85
:1014A000E81985B24446A945F4DB0D2A0ED00E9901
:1014B000CDE9001B3B4629462046FFF79FFD00BFB4
:1014C00004EB570084B216F8010FE1E7E81985B282
:1014D0004446761CF4E74FF0E0210428086903D065
:1014E00020F004000861704740F00400FAE77047FC
:1014F0000F4810B5016841F00101016041680D4AD3
:101500001140416001680C4A11400160016821F4FA
:1015100080210160416821F4FE0141604FF41F0108
:101520008160FFF7EDFE05494FF00060086010BDD7
:10153000001002400000FFF8FFFFF6FE08ED00E09B
:1015400010B50B4C0121204600F06BF800280BD0A1
:101550000121204600F058F80648D0F8B41121B116
:101560005FF00001C0F8B41110BD0121FAE70000DE
:10157000000400400000224230B50C46054689B008
:1015800001210220FFF75AFE01210920FFF762FE28
:1015900001211A48FFF752FA2020ADF81C0018204C
:1015A0008DF81F0003208DF81E0007A91448FFF7CF
:1015B000F3F9ADF80450ADF800400024114DADF83A
:1015C0000640ADF802406946284600F083F87020D6
:1015D000ADF80C000120ADF80E00ADF8144003A9E1
:1015E000284600F02BF80821284600F067F8012172
:1015F000284600F00CF809B030BD000000081A00C1
:10160000000C014000040040C943018270470029DA
:10161000018802D041F0010101E021F001010180C7
:10162000704702460020138A92890B4202EA0102A7
:1016300002D0002A00D001207047000070B5028C53
:1016400022F010020284028C8488038B0D8823F41C
:10165000E6464FF6FF7303EA052535430E8922F06F
:10166000200203EA061616434A8803EA02123243AE
:10167000104EB04202D0104EB04215D122F080067A
:101680004A8924F4406403EA0212324322F04006FD
:101690008A8803EA021232438E8903EA86062643C9
:1016A000CC8903EA8404344384800583C988018794
:1016B000028470BD002C014000340140028B4FF6C3
:1016C000FF7322F4006203EA012111430183704792
:1016D0000187704730B502881B4B1C4C98420DD0D7
:1016E000A0420BD0B0F1804F08D0194DA84205D0D0
:1016F000184DA84202D0184DA84203D122F070051F
:101700004A882A43154DA84206D0154DA84203D059
:1017100022F44075CA882A4302808A8882850A8812
:10172000028598420AD0A04208D00E4A904205D0C5
:101730000D4A904202D00D4A904201D1097A0186A9
:101740000121818230BD0000002C014000340140A5
:101750000004004000080040000C00400010004061
:101760000014004000400140004401400048014096
:1017700070B5154C40F22551204600F035F8002890
:101780000ED0204600F0BEF8C2B2104801880B040B
:1017900006D44C044FF0000306D50A2A01D003807A
:1017A00070BD41F400410DE00D2A09D0C1F30D04D4
:1017B000074D491C89B22A550180C729EFD870BD51
:1017C00041F48041018070BD003801401E000020BE
:1017D0003C0000200029818902D041F4005101E041
:1017E00021F400518181704730B501F01F020124BE
:1017F0000025C1F3421304FA02F2012B0FD0022B91
:101800000FD0838A4FEA11210088134204FA01F4B1
:1018100000EA040001D000B10125284630BD8389CB
:10182000F0E7038AEEE710B5C1F3421301F01F049D
:101830000121A140012B07D0022B07D01430002A30
:10184000026805D00A4304E00C30F8E71030F6E7F0
:101850008A43026010BD000030B50446008A85B09E
:101860000D464CF6FF710840E98801432182A189A9
:101870004EF6F3100140A8882A8910436A890A436A
:101880001043A081A08A4FF6FF410840A989014377
:10189000A1826846FFF7EAFC1948844201D1039807
:1018A00000E00298A189090400EBC00101EB0010DF
:1018B000296801D5490000E08900B0FBF1F06422FD
:1018C000B0FBF2F109010B096FF018056B4300EB57
:1018D0008300A3891D044FF0320306D503EBC0003B
:1018E000B0FBF2F000F0070005E003EB0010B0FBE6
:1018F000F2F000F00F000843208105B030BD000079
:10190000003801408088C0F308007047FEE70000FF
:101910000149002008607047082C0040084810B5B5
:10192000007800F011F8FFF7F3FF0648D0F8B41183
:1019300019B10021C0F8B41110BD0121FAE700006F
:101940001800002000002242024900F07F000860D9
:1019500070470000002C00407047000010B56FF089
:101960000400FFF7B8FD084808490068B0FBF1F033
:10197000074900EB40020880C2EBC0104FF6FF722F
:1019800002EAC000488010BD0400002000127A0066
:101990001A0000200B49498848434FF0E021486174
:1019A00000228A61086940F0010008610869C307E4
:1019B00001D0C003FAD5086920F0010008618A61EE
:1019C000704700001A000020FFF7C8FFFFF7E4FB94
:1019D000FEF742FD4FF4E13000F070F8FFF786F9B2
:1019E000FEF788FE4FF6FF70FFF7D0F8002121A325
:1019F0004FF478420846FEF78FFC23A31F221021E4
:101A00000020FEF789FC25A31F2220210020FEF7DD
:101A100083FC002140F28330FFF7AEFD244CDFF859
:101A20009490254D4FF4967700264FF001080A2038
:101A3000FFF7B0FF60780028608801D0401C00E00C
:101A4000401E81B26080B94200D9667009B984F83D
:101A500001804846FFF73CFE20780028E7D1D5F802
:101A6000B40120B15FF00000C5F8B401DFE7012048
:101A7000FAE700002020202050574D2054455354B1
:101A800020202020000000002020C7B6C8EBCABDDF
:101A9000BFAAB7A2CDF82020200000006D637564B6
:101AA00065762E74616F62616F2E636F6D2000002A
:101AB00000000020000400400000224270B50546EE
:101AC00086B0012144F20400FFF7C4FB4FF400701C
:101AD000ADF8100003248DF8124018201D4E8DF82B
:101AE000130004A93046FEF757FF3015ADF810007B
:101AF00004208DF8130004A93046FEF74DFF252081
:101B00008DF814008DF815408DF8164001208DF8E1
:101B1000170005A8FFF75EFB0020ADF80400ADF844
:101B20000600ADF80800ADF80C000C200A4CADF82A
:101B30000A00009569462046FFF78EFE012240F21A
:101B400025512046FFF76FFE01212046FFF742FE98
:101B500006B070BD000801400038014000000000E0
:101B60000000000000000000000000003F400000F6
:101B70000000000000003000400030004000000085
:101B800009000BC03D000BC03D00090018C02440F7
:101B90007FE0224031800000180024C01B000D802F
:101BA0003240018003801C4027401C8007400040D9
:101BB00010006000000000000000000000000000B5
:101BC00000001F80204040200000402020401F8057
:101BD00000000000090006001F8006000900000048
:101BE000040004003F8004000400000000100060B6
:101BF00000000000000000000400040004000400D5
:101C00000400000000000040000000000000000090
:101C1000002001C006003800400000001F80204066
:101C2000204020401F800000000010403FC00040C6
:101C30000000000018C0214022402440184000004D
:101C400010802040244024401B80000002000D0032
:101C500011003FC0014000003C802440244024404B
:101C6000238000001F802440244034400380000073
:101C70003000200027C03800200000001B802440D6
:101C8000244024401B8000001C0022C0224022402F
:101C90001F8000000000000008400000000000005D
:101CA00000000000046000000000000000000400CC
:101CB0000A001100208040400900090009000900C5
:101CC0000900000000004040208011000A000400CC
:101CD0001800200023402400180000001F8020402E
:101CE000274029401F400000004007C039000F0076
:101CF00001C0004020403FC0244024401B80000021
:101D00001F802040204020403080000020403FC005
:101D1000204020401F80000020403FC024402E4033
:101D200030C0000020403FC024402E0030000000A2
:101D30000F001080204022403380020020403FC02E
:101D4000040004003FC02040204020403FC020400D
:101D5000204000000060202020203FC02000200004
:101D600020403FC024400B0030C0204020403FC0F6
:101D700020400040004000C03FC03C0003C03C0089
:101D80003FC0000020403FC00C4023003FC0200067
:101D90001F802040204020401F80000020403FC086
:101DA00024402400180000001F802140214020E032
:101DB0001FA0000020403FC02440260019C0004062
:101DC00018C02440244022403180000030002040D0
:101DD0003FC020403000000020003F800040004015
:101DE0003F80200020003E0001C007003800200096
:101DF000380007C03C0007C038000000204039C050
:101E0000060039C0204000002000384007C038409C
:101E100020000000304021C02640384020C0000093
:101E2000000000007FE04020402000000000700023
:101E30000C000380004000000000402040207FE0B4
:101E40000000000000002000400020000000000012
:101E50000010001000100010001000100000000022
:101E60004000000000000000000002800540054026
:101E700003C0004020003FC0044004400380000035
:101E8000000003800440044006400000000003807E
:101E9000044024403FC0004000000380054005404E
:101EA00003400000000004401FC0244024402000E4
:101EB000000002E0055005500650042020403FC0BD
:101EC0000440040003C000400000044027C000405C
:101ED0000000000000100010041027E000000000C7
:101EE00020403FC00140070004C004402040204083
:101EF0003FC000400040000007C0040007C00400CD
:101F000003C00000044007C00440040003C00040B8
:101F1000000003800440044003800000041007F028
:101F2000045004400380000000000380044004507B
:101F300007F00010044007C0024004000400000045
:101F4000000006400540054004C0000000000400F9
:101F50001F8004400040000004000780004004404F
:101F600007C000400400070004C001800600040010
:101F7000060001C0070001C006000000044006C0C2
:101F8000010006C0044000000410071004E00180B6
:101F9000060004000000044005C0064004400000A4
:101FA0000000000004007BE0402000000000000072
:101FB0000000FFF000000000000040207BE0040073
:101FC0000000000040008000400020002000400091
:101FD0000000000000000000000000000000000001
:101FE0000000000000001FCC000C000000000000FA
:101FF00000000800300060000800300060000000B1
:10200000022003FC1E20022003FC1E2002200000F0
:1020100000000E1811043FFF10840C78000000002F
:102020000F0010840F3800C0077818840078000073
:1020300000780F8410C411240E9800E40084000876
:1020400008006800700000000000000000000000B0
:1020500000000000000007E0181820044002000003
:10206000000040022004181807E0000000000000F3
:102070000240024001800FF0018002400240000057
:102080000080008000800FF8008000800080000049
:102090000001000D000E0000000000000000000024
:1020A00000000080008000800080008000800080B0
:1020B0000000000C000C0000000000000000000008
:1020C00000000006001800600180060018002000D3
:1020D000000007F0080810041004080807F00000CA
:1020E0000000080408041FFC0004000400000000B5
:1020F00000000E0C10141024104411840E0C00006B
:1021000000000C1810041104110412880C70000057
:10211000000000E00320042408241FFC0024000029
:1021200000001F9810841104110410881070000022
:10213000000007F0088811041104188800700000DE
:1021400000001C00100010FC13001C001000000018
:1021500000000E3811441084108411440E38000021
:1021600000000700088C10441044088807F00000A5
:10217000000000000000030C030C00000000000041
:102180000000000000010106000000000000000047
:102190000000008001400220041008081004000024
:1021A0000220022002200220022002200220000041
:1021B0000000100408080410022001400080000004
:1021C00000000E001200100C106C10800F000000B8
:1021D00003E00C1813E4142417C4082807D00000E7
:1021E0000004003C03C41C40074000E4001C000441
:1021F00010041FFC1104110411040E88007000006B
:1022000003E00C1810041004100410081C10000047
:1022100010041FFC100410041004080807F000004C
:1022200010041FFC1104110417C410040818000046
:1022300010041FFC1104110017C01000080000005A
:1022400003E00C181004100410441C780040000037
:1022500010041FFC10840080008010841FFC1004F8
:102260000000100410041FFC100410040000000003
:1022700000030001100110011FFE100010000000FB
:1022800010041FFC110403801464181C10040000C7
:1022900010041FFC1004000400040004000C0000E3
:1022A00010041FFC1F0000FC1F001FFC1004000096
:1022B00010041FFC0C04030000E010181FFC1000A9
:1022C00007F00808100410041004080807F00000C4
:1022D00010041FFC10841080108010800F0000007C
:1022E00007F0081810241024101C080A07F2000038
:1022F00010041FFC1104110011C011300E0C000459
:1023000000000E1C11041084108410441C380000BE
:102310001800100010041FFC10041000180000002A
:1023200010001FF810040004000410041FF810002F
:1023300010001E0011E0001C007013801C00100033
:102340001FC0103C00E01F0000E0103C1FC0000058
:102350001004180C163401C001C01634180C1004F7
:1023600010001C00130400FC13041C0010000000EB
:102370000804101C1064108413041C0410180000BE
:102380000000000000007FFE40024002400200000A
:10239000000030000C0003800060001C00030000FF
:1023A00000004002400240027FFE000000000000EA
:1023B000000000002000400040004000200000001D
:1023C0000001000100010001000100010001000105
:1023D000000040004000200000000000000000005D
:1023E00000000098012401440144014400FC000461
:1023F00010001FFC00880104010400880070000028
:10240000000000700088010401040104008800003D
:102410000000007000880104010411081FFC000482
:10242000000000F8014401440144014400C80000D8
:102430000000010401040FFC110411041100180034
:10244000000000D601290129012901C90106000067
:1024500010041FFC008401000100010400FC0004C2
:1024600000000104190419FC00040004000000002D
:102470000000000300010101190119FE0000000025
:1024800010041FFC0024004001B4010C01040000F2
:102490000000100410041FFC0004000400000000F1
:1024A000010401FC0104010001FC0104010000FC25
:1024B000010401FC008401000100010400FC00048F
:1024C000000000F8010401040104010400F8000008
:1024D000010101FF00850104010400880070000073
:1024E00000000070008801040104010501FF0001E3
:1024F0000104010401FC00840104010001800000CA
:10250000000000CC012401240124012401980000D2
:1025100000000100010007F80104010400000000B0
:10252000010001F8000400040004010801FC00049B
:10253000010001800170000C0010016001800100A9
:1025400001F0010C003001C00030010C01F001006D
:1025500000000104018C00740170018C0104000072
:10256000010101810171000E00180160018001006C
:1025700000000184010C013401440184010C0000BD
:10258000000000000000000001003EFC400240028C
:102590000000000000000000FFFF0000000000003D
:1025A0000000400240023EFC01000000000000006C
:1025B00000006000800080004000400020002000FB
:1025C000000000000000000000000000000000000B
:1025D00000000000000000000000000000000000FB
:1025E00000000000000000000000000000000000EB
:1025F0000000000F80380FFE380F80380000000008
:1026000000000000000000000000000000000100C9
:10261000000600000C000038000031000006000039
:102620000C00003800003000000000000000000036
:1026300061800067F807F9800061800061800061B7
:10264000800061800067F807F98000618000000069
:1026500000000000000001C0E003E0F006300804C4
:1026600018081FFFFE040E080787F00381E0000032
:102670000000000001F000060C00040408060C70C5
:1026800001F9C0000E00003BE000EC180708080448
:102690000C180003E00000000001E00007F003F860
:1026A00018041C0804170807E1D003C0E00023B099
:1026B000003C08002008000010000000000000019D
:1026C00000003100003200001C000000000000008B
:1026D00000000000000000000000000000000000FA
:1026E00000000000000000000000000000000000EA
:1026F0007F0001FFC00780F00C00181000042000CC
:10270000020000000000002000021000040C00186D
:102710000780F001FFC0007F000000000000000003
:102720000000000000000000000000004200006601
:1027300000006600003C0000180003FFC000180005
:10274000003C00006600006600004200000000003F
:10275000080000080000080000080000080001FF51
:10276000C000080000080000080000080000080081
:1027700000000000000100003100003200001C00D9
:102780000000000000000000000000000000000049
:102790000000000000000000080000080000080021
:1027A0000008000008000008000008000008000001
:1027B0000800000800000000000000000000000009
:1027C0003800003800003800000000000000000061
:1027D00000000000000000000000000000000000F9
:1027E000000600001C000070000180000E00003890
:1027F0000000C0000700001C0000300000000000C6
:10280000000000007F8001FFE003807006001804D4
:10281000000804000806001803807001FFE0007F34
:102820008000000000000000000001000801000816
:1028300001000803FFF807FFF80000080000080087
:10284000000800000000000000000001C03802C0C5
:1028500058040098040118040218040418061C18EF
:1028600003F81801E0F8000000000000000000017B
:10287000C0E003C0F00400080408080408080618B3
:102880000803F41801E7F00001E000000000000078
:10289000000000000300000D0000110000610000B6
:1028A000810803010807FFF80FFFF8000108000185
:1028B000080000000000000000E007FCD006080847
:1028C000061008061008061008061838060FF0064D
:1028D00007C0000000000000000000003F8001FF72
:1028E000E0038430020818041008041008041008DB
:1028F000071810030FF00007C000000000000000E0
:10290000000003C0000700000600000600F80607EC
:10291000F806180006E000070000060000000000AE
:1029200000000001E1E003F7F00634100418080489
:102930001808040C08040C0806161803F3F001C16B
:10294000E000000000000000F80003FC300306383F
:102950000402080402080402080404100308F00139
:10296000FFC0007F00000000000000000000000029
:10297000000000000000000070380070380070385F
:102980000000000000000000000000000000000047
:10299000000000000000000000000000301A0030BD
:1029A0001C0000000000000000000000000000000B
:1029B00000000000000000080000140000220000D9
:1029C0004100008080010040020020040010080047
:1029D000080000000000000021000021000021008C
:1029E0000021000021000021000021000021000042
:1029F000210000210000000000000000000008008D
:102A00000804001002002001004000808000410006
:102A10000022000014000008000000000000000375
:102A2000C00004C000040000080038080F3808087F
:102A3000380810000C300007E00003C00000000060
:102A4000000000003F8000FFE0038070020F1006CE
:102A5000708804C088048308047F8802C090030142
:102A60002000FE400000080000180001F8003E08A9
:102A700001C20007020007E20000FE00001FC800BC
:102A800001F800003800000804000807FFF807FFFD
:102A9000F8040808040808040808040808061808C8
:102AA00003F41801E7F00001E0000000000000005E
:102AB0003F8001FFE003807002001804000804005A
:102AC000080400080400100600200780C000000071
:102AD00004000807FFF807FFF804000804000804D2
:102AE000000804001802001003807001FFE0007F5E
:102AF0008000000004000807FFF807FFF80408083A
:102B0000040808040808040808043E08040008062D
:102B1000001801006000000004000807FFF807FF2C
:102B2000F8040808040800040800040800043E0033
:102B30000600000600000180000000000000000008
:102B40003F8001FFE00380700600180400080402C3
:102B5000080402080203F00783F0000200000200EC
:102B600004000807FFF807FFF80408080008000041
:102B7000080000080000080004080807FFF807FF25
:102B8000F804000800000000000004000804000829
:102B900004000807FFF807FFF80400080400080411
:102BA0000008000000000000000000000006000017
:102BB0000700000104000104000104000307FFFEF8
:102BC00007FFFC04000004000004000004000807E4
:102BD000FFF807FFF8040C08001800003E0004C7C7
:102BE000800503C80600F804003804001800000837
:102BF00004000807FFF807FFF804000800000800B9
:102C0000000800000800000800000800001800008C
:102C10006000000004000807FFF807800807FC00B8
:102C2000007FC00003F80007C00078000780080795
:102C3000FFF807FFF804000804000807FFF8070082
:102C40000803C00000E000003800001E000007007C
:102C50000001C00400F007FFF804000000000000BD
:102C60007F8001FFE0038070060018040008040064
:102C70000806001803003001FFE0007F800000001C
:102C800004000807FFF807FFF80404080404000420
:102C90000400040400040400060C0003F80001F022
:102CA00000000000000000007F8001FFE003807052
:102CB0000600880400880400C806003C03003E01AA
:102CC000FFE6007F8400000004000807FFF807FF0C
:102CD000F8040808040800040C00040F00040BC0EA
:102CE0000610F003F03801E00800000800000001C1
:102CF000E0F803F030063010041808041808040C3B
:102D000008040C080206180207F00781E000000022
:102D10000180000600000400000400000400080711
:102D2000FFF807FFF8040008040000040000060094
:102D30000001800004000007FFE007FFF004001816
:102D40000000080000080000080000080000080457
:102D5000001007FFE004000004000006000007E088
:102D60000007FE00041FE00001F80000380001E049
:102D7000043E0007C0000600000400000400000735
:102D8000E00007FFC0041FF80007C007F80007FFB6
:102D900080043FF80007C004F800070000040000AA
:102DA00000000004000806001807C07805F1C800FC
:102DB0003E00001F800463E80780F8060018040046
:102DC0000800000004000006000007800007E0087B
:102DD000047C08001FF80007F800180804E0080742
:102DE00000000600000400000000000100080600CA
:102DF000380400F80403E8040F08047C0805F00810
:102E000007C0080700180400600000000000000070
:102E100000000000000000000000003FFFFE200056
:102E20000220000220000220000220000200000018
:102E300000000000000008000007000000C00000C3
:102E400038000006000001C000003000000E000045
:102E5000010000000000000000002000022000022D
:102E60002000022000022000023FFFFE00000000C0
:102E70000000000000000000000000000000000052
:102E800000080000100000300000200000300000AA
:102E90001000000800000000000000000000010019
:102EA000000100000100000100000100000100001D
:102EB000010000010000010000010000010000010C
:102EC00000000000000000000020000020000010B2
:102ED00000001000000000000000000000000000E2
:102EE000000000000000000000F00019F8001B18AE
:102EF000002208002608002408002410003FF800E3
:102F00001FF800000800001800000004000007FF80
:102F1000F80FFFF000181800100800200800200823
:102F2000003018001FF0000FC0000000000000007B
:102F300007C0001FF0001830002008002008002003
:102F400008003C08001C10000060000000000000A9
:102F50000000000007C0001FF00038180020080023
:102F6000200800200804101007FFF80FFFF00000F1
:102F7000100000000000000000000007C0001FF06B
:102F80000012300022180022080022080032080037
:102F90001E10000E20000000000000002000002095
:102FA0000800200801FFF803FFF8062008042008A5
:102FB00004200807200003000000000000000000BB
:102FC000000E000E6E001FF30031B10020B1002092
:102FD000B1003191001F13002E1E00200E003000A2
:102FE00000000004000807FFF80FFFF800100800B9
:102FF0002000002000002008003FF8001FF800001B
:103000000800000000000000000000200800200868
:10301000002008063FF8063FF800000800000800FE
:103020000008000000000000000000000000000098
:1030300003000003002001002001002003063FFEE2
:10304000063FFC000000000000000000000000043B
:10305000000807FFF80FFFF8000188000300002FA9
:10306000C00038F8002038002008000008000000E8
:103070000000000000000400080400080400080725
:10308000FFF80FFFF800000800000800000800002B
:1030900000000000002008003FF8003FF800100882
:1030A000002000003FF8003FF8001008002000005A
:1030B0003FF8003FF8000008000000002008003F33
:1030C000F8003FF800100800100000200000200861
:1030D000003FF8001FF8000008000000000000009A
:1030E00007C0000FF0001830003008002008002052
:1030F00008003008001830000FF00007C000000082
:10310000000000002001003FFF003FFF0010110001
:103110002009002008002008003038001FF0000FB0
:10312000C00000000000000007C0001FF0003818B9
:10313000002008002008002009001011001FFF00D7
:103140003FFF0000010000000020080020080020D0
:1031500008003FF8003FF8000808001008002008A9
:1031600000200000300000300000000000000000DF
:103170000000000C78001E1800330800230800210E
:10318000080021880021980030F00038600000001D
:1031900000000000200000200000200000FFF003DD
:1031A000FFF8002008002008002008000030000080
:1031B00000000000000000002000003FF0007FF849
:1031C000000018000008000008002010003FF80070
:1031D0007FF0000010000000000000002000003020
:1031E00000003C00003F800023F0000078000070E9
:1031F000002380003C000030000020000020000080
:103200003C00003FE00023F80000E0002700003E03
:1032100000003FE00021F80001E0003E0000200037
:10322000000000002008002008003838003E680038
:1032300027800003C8002CF8003838002018002030
:1032400008000000000000002000003003003C01E6
:10325000003F830023EC000070002380003C00004E
:1032600020000020000000000000000000000038E6
:10327000080020380020F80023E8002F88003E08CE
:103280000038080020180000700000000000000056
:103290000000000000000000000000000800001412
:1032A000001FF7FC300006200002000000000000B4
:1032B000000000000000000000000000000000000E
:1032C0000000FFFFFF000000000000000000000001
:1032D0000000000000000000000020000230000696
:1032E0001FF7FC00140000080000000000000000B0
:1032F0000000000000000000000000180000600056
:103300000040000040000020000010000008000005
:103310000400000400000C0000100000B5E70200EB
:10332000020002007FF0421042107FF04210421073
:103330007FF042000208020801F800000000D7D325
:103340007FF000200040008001000200FFF8020032
:10335000020002000200020002000E000000000055
:10336000BCBC10201020102013FEFC2010201020C8
:1033700015FC18843088D048105010201050518807
:103380002606CAF501000120011001107FFC038010
:1033900005400540092011102108410401020100E7
:1033A00001000100D2BA0080404027F811400140DE
:1033B0008278424816A81AD0235022204220425038
:1033C000028800000000BEA73FE020203FE0202050
:1033D0003FE00000FDF885088508FDF885088508B0
:1033E000FDF8850800000000B2E200084F88288838
:1033F0000AA88AA84AA80AA82AA82AA842284508EA
:1034000084888888103800000000CAD440502048C2
:1034100020400FF80040E040274022402240222078
:103420002A2833A82E18000800000000B3CC0000A2
:103430001BF0E210221023F0F800200033F0688027
:103440006080A3F02080208027F800000000D0F2E8
:10345000020001003FF820002FF0202022402180B0
:103460003FF820882090408040808380000000004A
:10347000D1D5200010F87E20444028F87E8848A846
:1034800050A864A848A872A8845018886108000051
:103490000000C9AB100010003FE0404080807FF08A
:1034A0004210421042107FF04000400840083FF8B0
:1034B00000000000CCEE20802FF8208027F0F410D0
:1034C00027F0241027F0241027F03410CFF8022022
:1034D000041000000000B3E404000200FFF808003C
:1034E000104020207FF00890088008800880108815
:1034F0002088C07800000000CEC404000200020052
:10350000FFF8104010400880088005000200050008
:1035100008803060C01800000000D7D60400020008
:10352000FFF8800880083FC0008001000200FFF81B
:103530000200020002000E0000000000CFD43FE0B5
:10354000202020203FE0202020203FE008804890DD
:10355000289028A008800880FFF800000000CABE5C
:1035600000003FE0000000000000FFF802001240F1
:10357000122022104208820802000E000000000003
:10358000CDBC7FF84008440847C8484854884308E1
:103590004CC8733840884C08430840887FF80000C6
:1035A0000000C6AC00802080208020803FF02000FA
:1035B000200020003FC0204020402040404080406C
:1035C00000000000B4A520403840484091F07D50F4
:1035D000555055507D5055F054407C40545057F84C
:1035E0008C0800000000C3FE2220222027F8FA20C9
:1035F00027F0241027F03410E7F020802FF8214026
:103600002220EC1800000000CAE440804140F22073
:1036100044108BE8A000F78824A827A834A8E7A8BE
:1036200024A8248825B800000000C8EB0800040086
:103630000400020002000500050008800880104018
:10364000104020204010800800000000C8AB02009D
:1036500002000500088010402020DFD80200020090
:103660001FC0020002000200FFF800000000B3CCFF
:1036700000001BF0E210221023F0F800200033F0CD
:1036800068806080A3F02080208027F80000000080
:10369000BCBC208020802080F7F02080208027E0A4
:1036A0003220E2202140208021402220EC1800001E
:1036B0000000CAF50200024002200200FFF80700E5
:1036C0000A800A8012402220421082080200020072
:1036D00000000000D6A702000200FFF8020002006E
:1036E0007FE010201040088005000200050018C08F
:1036F000E03800000000B3D62080208023F0F8805E
:10370000208027F828203020E7F8202022202120C0
:103710002020E0E000000000D7A8020002007FF0B7
:1037200004000400FFF8080010003FE00020004003
:103730001C800300008000000000D7A20100408030
:10374000200017F0008080804080008017F01080FB
:103750002080208040804FF800000000C5FA204003
:1037600024402440F4482450276024403440E4405E
:103770002440244025482648E43800000000B7A231
:1037800002002220221044007FF8040008000FE00D
:10379000142024404280810006C038380000000018
:1037A000B3C900A0009000807FF8408040907C90DA
:1037B000449044A044A0444858A8411882080000FE
:1037C0000000B9A601000100F90023F0211021102A
:1037D0002110211021103910C210021004100860AD
:1037E00000000000D2C60000002000780CE479043C
:1037F000516810307E6019981A3C2FE448E408386C
:10380000003000600000D1A100000120012003FC75
:1038100062203420042003FC240021B02120222037
:10382000323E18000FE00000D4F10000000010FC50
:103830001304110C3DF8703E10D015907CF0503EF2
:1038400018101BFE023000200000CFEE0000000028
:1038500003FE00607C4012FC110411061136112495
:103860001F44794400C0009C01860000C4BF0000D2
:1038700000000FE03C18200820043E0460046004AF
:103880007E046004200C20081FF001800000B6CCEC
:103890000000080011FC103E3EF82D8C290449045C
:1038A00009043E8C50FC10881EC811FC100E00004C
:1038B000B0B400000040006012FE13023A427F44A0
:1038C00010C41BFE3C987190113011A00078004C80
:1038D0000000C8B70000004000F878C41F8C3138E1
:1038E00021EC2126413A7DE2272225FA3D260124BA
:1038F00001040000B6A80000010001705FFC700424
:1039000020042FF801001100113821C431003F00BC
:1039100063E040380000B3A400000000081808600D
:1039200008C00B001E00181C7FF01000118010E072
:103930001838098E0F000000B0B40000004000608D
:1039400012FE13023A427F4410C41BFE3C98719051
:10395000113011A00078004C0000B7B50000000045
:1039600007F80600240014F8078C0404240826181D
:1039700025F0647C64C220801FC00000BBD800001A
:1039800000001FF030182008278C2C4428442844BD
:103990002CC427842004300C1FF803800000C7B615
:1039A0000100210821083FF800202220223EFF428A
:1039B000229422103E10221022283E282244008207
:1039C000CABD0048004400440040FFFE00400040E3
:1039D0003E4008400840082008220F12780A2006BE
:1039E0000002BFAA00007FFC082008200820082051
:1039F0000820FFFE082008200820082010201020A2
:103A000020204020B7A201001110110822003FFC25
:103A10000200040007F80A080908111010A020404D
:103A200040A003181C06CDF800007FFC40044004B1
:103A3000421452944A54442444244A544A545294BA
:103A40006104400440144008D6D001000100010088
:103A500001003FF8210821082108210821083FF82A
:103A600021080100010001000100CEC40200010094
:103A70000100FFFE101010100820082004400280F2
:103A800001000280044008203018C006B2E20004A1
:103A900027C414441454855445544554155415549E
:103AA0002554E55421042284224424140808CAD44D
:103AB000002820241024102007FE0020F02017E00A
:103AC000112011101110151019CA170A0206000250
:103AD00000000000000000000000000000000000E6
:103AE00000000000000000000000000000000000D6
:103AF0000000B4F3000000000000001800001000F7
:103B000000100000100000100000100C3FFFFE002D
:103B100010000018000018000034000034000022DB
:103B20000000620000410000C1800080C001006010
:103B300006003808001C300000000000D4BD000062
:103B4000000000000300C00200B00200980260887C
:103B50001F888C020FF0020C80022C887FDC880307
:103B60000C901B0CD01B0C6013EE60131E64130C26
:103B7000F413019C1B020C27040421D800407FFC95
:103B80004007F8000000B4B400000000000003800B
:103B90000803000C02E00C06300C04198C08088C99
:103BA00008008C18208C2FF08C48208C08208C0862
:103BB000208C08208C08608C09C10C08080C0808AF
:103BC0000C08080C0C0C0C07FC780000100000001E
:103BD000D0C200000000000002000801003C0133D8
:103BE000C03EC200086200044200048200049A0C35
:103BF0003FFFFE0102300102300112301FE23001AE
:103C000002300D42301936301114302114302108A1
:103C100030471030022030000000D2BA000000000F
:103C200000000006001803000C020C04FDF001194E
:103C3000800111004233083222F812421812651036
:103C400004E490056AB0056A200A712008614038D2
:103C500060C01860C018616018623018641E08786F
:103C600000000000BEA700000000000001004001AD
:103C7000FFC001004001004001FFC0010040010001
:103C80004001FFC00100400000001064081FE7F879
:103C90001046081046081046081FC7F810460810BE
:103CA00046081046081FC7F8104608000000C6C1A5
:103CB0000000000000000800000FFFF80C00180CC6
:103CC00000180FFFF80C40900C30C00C10800C1145
:103CD000100DFFF808308008308008308808309CCC
:103CE0001FFFE01020801020802060802040804056
:103CF0008080030080000000B2E2000000000000AD
:103D000011000C09FE080D860805864801A64841E9
:103D1000B64833B64813B64815B64805B64805B692
:103D20004805B64809A64809A64839A448182048B5
:103D30001858081844081886081902380600180090
:103D40000000CAD40000000000000001A01001D84B
:103D50000800880C008804008400FFFE000080003A
:103D600000800400803C0280047DC00408C0040878
:103D700040040840044860048822050F34073814C2
:103D800006E01C04000E0000060000000000000019
:103D90000000000000000000000000000000000023
:103DA0000000000000000000000000000000000013
:103DB0000000000000000000000000000000000003
:103DC00000000000000000000000000000000000F3
:103DD0000000000000000000F83D00080000002086
:103DE0003C00000028010008343E00083C00002090
:103DF0003C070000440100080101000000A24A0441
:103E0000000000000000000001020304060708098A
:103E10007F0000000000000002040608000000000F
:103E20000102030401020304060708090000000060
:043E3000FFFF000090
:040000050800018965
:00000001FF
