:020000040800F2
:100000006007002091010008370A00085B0900081A
:10001000350A000849040008690E000800000000C5
:10002000000000000000000000000000850B000838
:100030009D080008000000009D0A0008590C0008F7
:10004000AB010008AB010008AB010008AB010008E0
:10005000AB010008AB010008AB010008AB010008D0
:10006000AB010008AB010008AB010008AB010008C0
:10007000AB010008AB010008AB010008AB010008B0
:10008000AB010008AB010008AB010008AB010008A0
:10009000AB010008AB010008AB010008AB01000890
:1000A000AB010008AB010008AB010008AB01000880
:1000B000AB010008AB010008AB010008AB01000870
:1000C000AB010008AB010008AB010008AB01000860
:1000D000AB010008AD0C0008AB010008AB01000843
:1000E000AB010008AB010008AB01000800F002F80A
:1000F00000F03FF80AA090E8000C82448344AAF183
:100100000107DA4501D100F034F8AFF2090EBAE880
:100110000F0013F0010F18BFFB1A43F0010318473B
:10012000D80E0000F80E0000103A24BF78C878C13D
:10013000FAD8520724BF30C830C144BF04680C60ED
:10014000704700000023002400250026103A28BF35
:1001500078C1FBD8520728BF30C148BF0B60704739
:10016000642900F07780002070471FB51FBD10B5CF
:1001700010BD00F037F91146FFF7F7FF00F0B8FEA9
:1001800000F055F903B4FFF7F2FF03BC00F06DFE79
:100190000948804709480047FEE7FEE7FEE7FEE71B
:1001A000FEE7FEE7FEE7FEE7FEE7FEE70448054957
:1001B000054A064B704700005D0C0008ED00000882
:1001C0006001002060070020600300206003002021
:1001D000704700000FB4044910B503AA029800F05C
:1001E000D3F810BC5DF814FB200000202DE9F0418D
:1001F0000E460446002020622046E168884730B35E
:10020000252805D0D4E901219047206A401CF2E757
:10021000E168204600278847050018D0A5F1410075
:10022000192802D820354FF4006732462946204667
:100230002760FFF795FF40B1012804D0F61D26F096
:1002400007060836D8E7361DD6E72846DAE7206ADB
:10025000BDE8F0812DE9F0410646002410687529BB
:10026000314616A510D0AFF30080002802DA4042D4
:1002700013A507E031688A0701D512A502E04907F6
:1002800004D511A5012401E0AFF3008000210A226A
:1002900006F1240709E0B0FBF2FCB0FBF2F302FB2D
:1002A0001C00303078541846491C0028F3D12346EE
:1002B0002A463046BDE8F04100F00CB800000000CE
:1002C0002D0000002B000000200000007047704748
:1002D000704770472DE9F0470D469946924604460F
:1002E00000F124080168880604D5E06921F01001B6
:1002F000216000E00120A84201DD471B00E000274B
:10030000A1697A1902EB0900081AA0612078C006D9
:1003100002D42046AFF30080002608E0D4E9012192
:100320001AF806009047206A401C761C20624E4551
:10033000F4DB2078C0060AD52046AFF3008006E043
:10034000D4E9012130209047206A401C2062381EE9
:10035000A7F10107F4DC07E0D4E9012118F8050052
:100360009047206A401C2062281EA5F10105F3DC9D
:100370002046AFF300802078000602D50220BDE8B9
:10038000F0870120FBE70000074B70B50D467B446A
:1003900000F011F80446284600F020F810B14FF0A4
:1003A000FF3070BD204670BD470B000001694A1C3C
:1003B00002610878704700B58FB0CDE901310021A6
:1003C000059105497944CDE9031011466846FFF7C8
:1003D0000DFF0FB000BD0000E5FFFFFF007B00F048
:1003E00080007047754600F02BF8AE460500694660
:1003F000534620F00700854618B020B5FFF7D6FE1B
:10040000BDE820404FF000064FF000074FF0000815
:100410004FF0000B21F00701AC46ACE8C009ACE896
:10042000C009ACE8C009ACE8C0098D46704710B5FA
:100430000446AFF300802046BDE81040FFF7A2BE9F
:100440000048704700010020FEE70000F0B5827A06
:1004500001219140304C226842F0010222602E4D71
:100460001C352A688A432A602B4A067B0C322B4BA8
:10047000002E14D116688E4316604688C78846EA57
:100480000746877A03EBC707C7F840660688878860
:1004900046EA0746877A03EBC707C7F84466067B38
:1004A000012E14D116680E4316604288068842EA6F
:1004B0000642867A03EBC606C6F84026C2888688BE
:1004C00042EA0642867A03EBC603C3F84426124A80
:1004D000C37A121D3BB113680B4313600E4A0389A4
:1004E000143223B106E013688B431360F6E71368F8
:1004F0008B4313600389012B02D113680B431360F4
:10050000407B012802D1286808432860206820F039
:1005100001002060F0BD0000006600400060004067
:1005200010B50022036823F002030360036843F060
:10053000010303604FF6FF7300E0521C4468E407B8
:1005400001D19A42F9D14268D2073ED08A79012A74
:100550003DD0026822F080020260CA79012A3BD0B5
:10056000026822F0400202600A7A012A39D0026849
:1005700022F0200202604A7A012A37D0026822F073
:10058000100202608A7A012A35D0026822F008023D
:100590000260CA7A012A33D0026822F004020260A3
:1005A0008A78CC78920742EA04620C7942EA0442E3
:1005B0004C79098842EA0452491E0A43C261016823
:1005C00021F001010160002120E0002010BD02683F
:1005D00042F080020260C0E7026842F0400202601E
:1005E000C2E7026842F020020260C4E7026842F0FB
:1005F00010020260C6E7026842F008020260C8E723
:10060000026842F004020260CAE7491C4268D2074D
:1006100001D09942F9D14068C00701D0002010BD37
:10062000012010BD02460020002905D0012902D179
:10063000106900F003007047D06800F003007047B5
:100640002DE9F04788B00646DDF840A00F469046F9
:1006500099460121042000F031FA0121480600F0FA
:100660001FFA4FF48050ADF81C0003208DF81E00D7
:1006700018208DF81F00224C07A9204600F00FF922
:10068000E014ADF81C0048208DF81F0007A9204693
:1006900000F005F900248DF816408DF817408DF80C
:1006A000184001258DF819508DF81A408DF81B401F
:1006B0008DF812A08DF813608DF814808DF81570E8
:1006C000ADF8109004A90F48FFF72AFF8DF80A40F3
:1006D0008DF80B408DF80C50ADF80040ADF802409D
:1006E000ADF80440ADF80640ADF808408DF80D5067
:1006F0006846FFF7ABFE08B00020BDE8F0870000B9
:10070000000801400064004010B500EB0113D3F86D
:10071000B04104F004041472002C2CD0D3F8B04182
:10072000E408546003F5D8731C6804F002045472A2
:100730005C6804F00F0494725C68240AD4749C68AA
:10074000D4729C68240A14739C68240C54739C68AB
:10075000240E9473DC68D473DC68240A1474DC6897
:10076000240C5474DB681B0E937449B1016941F089
:100770002001016110BDD3F8B041640D1460D1E7D0
:10078000C16841F02001C16010BD30B502460020B3
:1007900093685B010AD49068000101D5012005E04F
:1007A0009068C00001D5022000E0042004283BD05E
:1007B00002EB0012D2F8803103F00103C2F880315D
:1007C0000B7A93B3D2F880414D681C434B7A43EACD
:1007D000C5031C43C2F880418B7A03F00F038B7270
:1007E00002F5C072536823F00F03536053688C7A8C
:1007F00023435360CB7A8C7B0D7B43EA04634C7BB1
:10080000240444EA052423439360CB7B8C7C43EA95
:1008100004634C7C097C240444EA01210B43D3602B
:10082000116841F00101116030BDFFE7D2F880315D
:100830004C7A23430C8843EA4453C2F88031CBE717
:1008400010B586B0084C00212046FFF7EBFE40B102
:1008500001AA00212046FFF757FF9DF80F0006B0C0
:1008600010BD0020FBE700000064004000B585B02B
:1008700012210091019100218DF808108DF80910C6
:1008800001218DF80A108DF80B0069460248FFF728
:100890007CFF05B000BD00000064004070472DE9FA
:1008A000F0410022CC7804F00F03E40601D58C78E7
:1008B00023430C784FF00F0714F0FF0F4FF0010C9B
:1008C0001CD005680CFA02F40E882640A64211D10D
:1008D000960007FA06F825EA080503FA06F848EA3A
:1008E0000505CE78282E02D0482E02D002E04461C1
:1008F00000E00461521C082AE4D305600A88FF2A3C
:100900001ED94568002202F108060CFA06F40E888A
:100910002640A64210D1960007FA06F825EA0805F7
:1009200003FA06F848EA0505CE78282E00D144617E
:10093000CE78482E00D10461521C082AE3D34560CA
:10094000BDE8F0810246002092680A4200D00120F2
:1009500070474161704701617047FEE770B5002440
:10096000144D02212846FFF7EDFF68B9142000F06E
:1009700099FA02E0142000F095FA02212846FFF7C8
:10098000E1FF0028F6D0012401212846FFF7DAFF15
:1009900068B9142000F086FA02E0142000F082FA10
:1009A00001212846FFF7CEFF0028F6D0022420467A
:1009B00070BD00000008014008B50121042000F0CE
:1009C0007DF848208DF803000320ADF800008DF875
:1009D000020069460148FFF762FF08BD00080140B8
:1009E0004FF400510148FFF7B6BF0000001001406E
:1009F0004FF400510148FFF7ACBF00000010014068
:100A000038B50121102000F059F810208DF80300AE
:100A10004402ADF8004003208DF80200044D694601
:100A20002846FFF73CFF21462846FFF794FF38BDD4
:100A300000100140FEE7704770B50F23C278012611
:100A40000178002A1ED0144A126802F4E062C2F54E
:100A5000E062120AC2F10404D3404578A5408278CE
:100A60001A402A43120101F1E02181F800240078A4
:100A700000F01F018E404009800000F1E020C0F826
:100A8000006170BD01F01F0086404809800000F140
:100A9000E020C0F8806170BD0CED00E07047000000
:100AA000054A002903D0D1690143D1617047D1695A
:100AB0008143D1617047000000100240054A0029BF
:100AC00003D09169014391617047916981439161BC
:100AD000704700000010024010B5264A516801F02E
:100AE0000C01254B002927D0042927D0082927D01D
:100AF0000360516801F0F0010909204B5C5C01685A
:100B0000E1404160546804F4E064240A1C5D21FA69
:100B100004F48460546804F46054E40A1B5DD94012
:100B2000C160526802F44042920B144B1B1F9A5C46
:100B3000B1FBF2F1016110BD0360DAE70360D8E7B1
:100B4000516801F47011536803F48033022404EBFC
:100B5000914133B153689B0307D5094B5943016059
:100B6000C7E7074B59430160C3E7034B5943016093
:100B7000BFE700000010024000127A0028000020A9
:100B800000093D00704700F001B800000CB50022DC
:100B9000019200922748016841F4803101604FF4CE
:100BA000A063016801F4003100910199491C019191
:100BB000009911B901999942F3D10168890302D5CD
:100BC0000121009100E000920099012930D11A49D9
:100BD0000A6842F010020A600A6822F003020A6002
:100BE0000A6842F002020A6041684160416841605F
:100BF000416841F480614160416821F47C114160A9
:100C0000416841F4E8114160016841F08071016080
:100C100001688901FCD5416821F003014160416808
:100C200041F0020141604168C1F381010229FAD11A
:100C30000CBD000000100240002002404FF0E021F7
:100C4000042804D0086920F004000861704708698E
:100C500040F00400086170477047000010B50F486D
:100C6000016841F00101016041680D4A1140416095
:100C700001680C4A11400160016821F48021016083
:100C8000416821F4FE0141604FF41F018160FFF7CC
:100C90007AFF05494FF00060086010BD0010024067
:100CA0000000FFF8FFFFF6FE08ED00E070B5164CFF
:100CB00040F22551204600F039F800280ED0204699
:100CC00000F0CEF8C1B2114A1088030406D44404DF
:100CD0004FF0000307D50A2901D0138070BD40F4FE
:100CE0000040108070BD0D290AD0094DC0F30D04DD
:100CF0002955401C80B21080C728F3D9138070BDDD
:100D000040F48040108070BD003801401C0000207D
:100D100038000020002904D0818941F400518181EC
:100D20007047818921F400518181704770B500249A
:100D300040F66A12C1F3421301F01F05012606FABC
:100D400005F2012B0CD0022B0DD0838A1340090A27
:100D50008E40008830400BB100B10124204670BDA8
:100D600083891340F3E7038A1340F0E710B540F698
:100D70006A13C1F3421301F01F040121A140012BAA
:100D800007D0022B07D014303AB102680A43026040
:100D900010BD0C30F8E71030F6E702688A430260B5
:100DA00010BD000030B585B004460D46208A4CF6D3
:100DB000FF710840E98801432182A0894EF6F311B2
:100DC0000840A9882A8911436A8902431143A181F5
:100DD000A08A4FF6FF410840A9890143A1826846D5
:100DE000FFF77AFE1D48844201D1039800E0029883
:100DF000A189090408D500EBC00101EB00102968A6
:100E00004900B0FBF1F007E000EBC00101EB00107E
:100E100029688900B0FBF1F06422B0FBF2F109010E
:100E20000B096FF018056B4300EB8300A3891D04C9
:100E30004FF0320307D503EBC000B0FBF2F000F037
:100E40000700084306E003EB0010B0FBF2F000F0EF
:100E50000F000843208105B030BD0000003801407C
:100E60008088C0F308007047FEE7704710B56FF048
:100E70000400FFF7E3FE084808490068B0FBF1F002
:100E80000749088000EB4002C2EBC0104FF6FF722A
:100E900002EAC000488010BD0400002000127A0061
:100EA000180000200B49498848434FF0E021486171
:100EB00000238B61086940F0010008610869C207DE
:100EC00001D0C003FAD5086920F0010008618B61E8
:100ED000704700001800002004490A885206FCD51B
:100EE000024AC1B2121D1180704700000038014053
:100EF00008B5FFF7BBFFFFF783FDFFF75DFD4FF47C
:100F0000E13000F029F80020042308220721009096
:100F1000FFF796FB0E4CFFF721FD2070012808D14A
:100F200001460CA0FFF756F9AA20FFF79FFCFFF738
:100F300057FD2078022807D1FFF75AFDFFF780FC04
:100F4000014604A0FFF746F9FA20FFF7ABFFE2E7FE
:100F5000000000202564000070B586B00546012120
:100F600044F20400FFF7AAFD4FF40070ADF814003E
:100F700003248DF8164018218DF817101C4E05A972
:100F80003046FFF78CFC3115ADF8141004218DF8B4
:100F9000171005A93046FFF782FC25208DF80000C8
:100FA0008DF801408DF8024001208DF8030068465D
:100FB000FFF742FD01950020ADF80800ADF80A00EA
:100FC000ADF80C00ADF810000C20ADF80E00094C87
:100FD00001A92046FFF7E6FE012240F225512046F6
:100FE000FFF7C4FE01212046FFF794FE06B070BD56
:100FF00000080140003801401810000800000020DF
:1010000038000000280100085010000838000020B7
:1010100028070000440100080000000000A24A0464
:101020000000000000000000010203040607080998
:10103000000000000000000000000000020406089C
:10104000000000000102030401020304060708096E
:04000005080001915D
:00000001FF
